:020000040800F2
:1040000008590020CD400008175A0008BD57000885
:1040100000000000000000000000000000000000A0
:1040200000000000000000000000000073680008AD
:1040300000000000000000003D5B000899690008D6
:10404000FD400008000000002D620008FD4000084F
:10405000FD40000845540008595400086D540008FC
:1040600000000000275100083751000839510008AE
:10407000FD400008FD400008FD4000080000000071
:10408000FD400008696B0008FD400008FD40000885
:10409000FD400008FD400008FD400008FD4000080C
:1040A000FD400008FD400008FD400008AD7000081C
:1040B00045710008FD4000080348854600F02CFCCF
:1040C0000048004779D90008085900200C4880F3BF
:1040D00008880C480168090E0B4A914205D10B482B
:1040E0000B4901600B480C4901600C4880470C48A3
:1040F0000047FEE7FEE7FEE7FEE7FEE7FEE700001B
:1041000008590020040000001F00000018100240A1
:10411000010000000000014000000000ED6A0008FE
:10412000B940000830B50B4601460020202201248A
:1041300009E00D46D5409D4205D31D469540491BDB
:104140002546954040191546521E002DF1DC30BD24
:1041500070B500242546002801DA012440420029D8
:1041600001DA01254942FFF7DDFFAC4200D04042B1
:10417000002C00D0494270BD01466139192900D890
:104180002038704703460B439B0703D009E008C95A
:10419000121F08C0042AFAD203E00B780370401CF7
:1041A000491C521EF9D27047D2B201E00270401C85
:1041B000491EFBD270470022F6E710B513460A46A7
:1041C00004461946FFF7F0FF204610BD30B50546FE
:1041D0002A460B4610781C78521C5B1C002801D024
:1041E000A042F7D0002C03D0002802D06D1CEFE7CE
:1041F000284630BD421C0178401C0029FBD1801AA2
:10420000704710B5002200E0521C835C8C5CA34216
:1042100001D1002BF8D1D8B2E1B2401A10BD30B5AF
:1042200004460020034600E05B1C934203D2E05C9E
:10423000CD5C401BF8D030BD03460A780270401CAC
:10424000491C002AF9D11846704770B5064603F09C
:1042500053FB046805460A220021304600F090FA1C
:104260002C6070BDF0B507460846584087B0C00FB7
:10427000049048000E46590040084908BC1A88417D
:1042800005D2384631461E4617460B4602465800B0
:10429000400810434CD0300D039040055900400DAC
:1042A000490D0590401A0290402872DA1803012146
:1042B000000B09050843019004980092002805D0DE
:1042C00001995242002088410092019002984021B9
:1042D0000A1A0199009800F0CDF905460C466B4684
:1042E00007CB00F0E8F9C0197141039A0E0D0023C5
:1042F000D71756401A467A40164344D0049A002AEB
:104300002DD0029A012A039A15DC1205C01A914198
:1043100001263605001C7141D20F059ED20700937D
:10432000019202962A46234600F06FFA07B0F0BDCC
:1043300038463146FAE71605224A0F46B218C01A27
:10434000B74101210905001C4F4100187F4111466A
:1043500018187941E20F10436D19644113E0E20728
:104360006D0815436408C2071443039A0126120519
:10437000C01A91413605001C7141CE0740083043F8
:104380004908C01851412A46234600F031FACDE7CA
:10439000FFE7049801224000C117121A00238B4145
:1043A00004983146C417381AA141EEE730B401240D
:1043B000E407634030BC55E730B40124E4076140B2
:1043C00030BC4FE70000E0FFF0B51FB488B00B9998
:1043D0000998002448400999C00F490049080991EB
:1043E000C0070B990090490049080B91099908985A
:1043F000A64608431CD00B990A98084318D0099880
:1044000001244000420D4800410D09982405000395
:10441000000B204309900B980003000B20430B90E6
:1044200050181C494018002201901446104605E01F
:10443000002001460DB0F0BD032801DA034600E07C
:1044400003239C46C11A0AAE0AE05F0008ADED5B8B
:104450004F00F75B7D430027AA187C41491C5B1E77
:104460006145F2DD410004AB5A522104120C0A43AB
:10447000240C401C0828DFDB01980290009970464C
:1044800001910090059B049A0799069800F0BDF9E8
:10449000D0E700000DFCFFFFF0B50C465C4085B096
:1044A000E40FE40703944C00002664085900944686
:1044B000490802460296224321D062460A431ED092
:1044C0006200570D4A000E032303550D01240246D6
:1044D0002C492405781B1B0B360B4018234326431D
:1044E000614600901C46501AB44103D30098401C0A
:1044F000009002E0921800985B41002803DA002047
:10450000014605B0F0BD0020012109050746864699
:1045100011E064461D46141BB54106D36546521B87
:10452000B341744607430C43A646CD0740084908EB
:10453000284392185B4105460D43EAD110461843C3
:1045400013D06046194650407140084306D060467B
:10455000101AB34106D20122002306E000220123F3
:10456000DB0702E00122D243531000987446010594
:10457000381C6141029C039D0019694100F038F923
:10458000BFE70000FD0300000EB5C217C10F504089
:10459000CA0740180021054B0293019200910A4678
:1045A0000B4600F032F903B000BD000033040000F8
:1045B0000EB505490291002100910A460B46019172
:1045C00000F023F903B000BD3304000070B5CD0F37
:1045D0004A0009030123090B1B0519430B4BED0787
:1045E0000024520D9A4201DA002070BD074B34338B
:1045F0009A4203DC9A1A00F04DF802E0044951187F
:1046000088402C43F1D0404270BD0000FF03000001
:10461000CDFBFFFFF0B51FB40646002082B0054673
:104620004024019100901BE0019922460F4630463C
:1046300000F030F8049A059B801A994110D3104677
:104640001946224600F016F8361A8F410197224685
:1046500001200021009F00F00DF838184D41009016
:104660002046641E0028DFDC019B00982946324664
:1046700007B0F0BD10B5202A04DB0146203A914076
:10468000002010BD914020239C1A0346E3401943AB
:10469000904010BD10B5202A04DB0846203AD040D7
:1046A000002110BD0B46D340D0402024A21A9140D7
:1046B0000843194610BD10B5202A06DBCB17084663
:1046C000203A1041C1170B4306E00B461341D0407E
:1046D0002024A21A91400843194610BD0FB400B51A
:1046E00089B00CA900910B990023CB60204B214A83
:1046F00006930792042201921F4A02921F4A0892CF
:1047000002466B46002000F0B6F909B008BC04B0C0
:10471000184770B586B006460020C04301900020BF
:1047200015460C460091029104903246694604A851
:10473000FFF7D4FF024604982118002D05D0002869
:1047400001D0084600E020462860049800280DD0DB
:10475000002A02DD0098884208D0081B01900094CE
:1047600032466946029404A8FFF7B8FF06B070BD50
:10477000CD4C0008ED4C0008FFFFFF7F45490008C5
:10478000F7B5009C0F4600262578641C002D05D047
:1047900000F0D4F80068405DC007F5D12B2D02D0A1
:1047A0002D2D18D0641E39462046029A00F0B0FA2A
:1047B000002F04D03968A14201D1009939607105F8
:1047C000022400290BDA4042002803DD03F094F8AC
:1047D0000460A007FEBD012080020643E3E7002835
:1047E000F8DA03F089F804600048FEBDFFFFFF7FA0
:1047F00010B5002B08DA0024401C614192185B417F
:104800001A4301D14008400010BDF0B51FB482B07A
:1048100005460C0003D0084603F048F802E003F018
:1048200045F820300246009021462846FFF722FF37
:10483000049B059A04460F4618431143084314D0BD
:10484000184610431BD0009840210A1A18460599B3
:10485000FFF720FF05460E46009A05990498FFF7DA
:1048600009FF084305D0012004E02046394607B07F
:10487000F0BD0020C11705430E432C433743009978
:104880000E986305401A7905E40A00220C43FD0ADC
:104890000A3002D500200146E9E7010510196941F7
:1048A0000C9C0D9D00196941FFF7A2FFDFE7000096
:1048B0004A0009030123090B1B0519430A4B10B5D4
:1048C000520D9A4202DA0020014610BD064B3433E5
:1048D0009A4203DC9A1AFFF7DDFE10BD034BD21893
:1048E000FFF7C8FE10BD0000FF030000CDFBFFFF77
:1048F00010B5002904DB0124E40740428C41214625
:10490000002B04DB1C460123DB075242A3419942E2
:1049100000D1904210BD0000064C0125064E05E076
:10492000E36807CC2B430C3C98471034B442F7D3D0
:10493000FFF7C6FBAC5B0208DC5B0208004870476F
:104940004849020810B50446FFF7F8FF0068005D0B
:10495000C007C00F10BD0000FFB5087889B015462C
:10496000FF2805D0491C2D2804D00022002407E090
:1049700000240BE00122F9E70A235C430419491CD7
:104980000878FF28F8D1002A00D064420020049063
:104990002A7801462D2A01D02B2A0FD16D1C2D2AF1
:1049A00002D00022049209E00122FBE700260A223D
:1049B00033466D1C00F0FFF9381871412F78FF2F36
:1049C000F4D10C9AA218069202460A4304D0FF239F
:1049D000069A9133DA4205DA002109980A4606C0A0
:1049E0000DB0F0BD0024B74AB54D2646079200F041
:1049F0002FFA029006980391002801DA474200E05E
:104A0000074639050020AF4A001C51410191009032
:104A100012E0F80707D022462B4630460799FFF7E9
:104A2000D3FC0646079122462B4610461946FFF74F
:104A3000CBFC04460D467F10002FEAD10698019B5F
:104A40000028009A0399029806DAFFF725FD3246FE
:104A5000079BFFF721FD05E0FFF7B6FC3246079BF9
:104A6000FFF7B2FC049A002A02D00122D20751407B
:104A7000099A03C2B4E7FFB591B000200990002560
:104A8000ED432E209E685C681F460190B9696D1C3D
:104A9000129888470090396A88470028F6D1009814
:104AA000401C0AD00D20C0018443002E12DD009866
:104AB0002B2809D02D280DD103E00020C04315B0CC
:104AC000F0BD012080020443B9696D1C129888472B
:104AD000761E009003A9600501D52D2000E02B2053
:104AE0006A461073491C0CA80F9102900AE0B9693C
:104AF0006D1C1298884700900120400204431398CF
:104B0000761E0560002E02DD00983028EFD0019956
:104B10000098884246D18020044308E00998401E4E
:104B200009900120400204431399681C0860B96988
:104B30006D1C761E1298884700903028EED031E028
:104B40000199884205D1200603D480200443761EB3
:104B50001EE0009802F0AAFF002826D001204002A3
:104B6000044307A90F980331761E88420BD20098A0
:104B70000F99303808700F98401C0F90200607D509
:104B80000998401E03E0200602D40998401C0990B1
:104B9000A00502D51399681C0860B9696D1C1298AC
:104BA00088470090002ECBDC59E0002E57DD00989E
:104BB000652801D0452852D1A00550D50320000218
:104BC0008443B9696D1C761E129888470090002EA8
:104BD0000CDD2B2804D02D2808D1FF200130044300
:104BE000B9696D1C12988847761E0090E00501D5C2
:104BF0002D2100E02B21029801700298401C0290A8
:104C0000019025E00120400204430EA902980131E1
:104C1000761E88420ED20098029930380006000EA7
:104C2000087003D10299019881420AD90298401C68
:104C3000029006E0E00501D5234801E02248404209
:104C40000990B9696D1C1298884700901398056007
:104C5000002E04DD009802F029FF0028D2D1F96966
:104C6000129888470F99FF200870029903AA0870CC
:104C700000200A900B900CA90AA8099BFFF76CFE74
:104C8000A00502D40120C04319E72420044209D022
:104C9000E00713D138680B9A0A99031D3B6000683E
:104CA00006C00BE00B990A9800F0E0F80146E00717
:104CB00004D13868021D3A60006801602846FEE6AB
:104CC000000014400000F03FF1D8FFFF4268002AC6
:104CD00008D001680B78491C002B03D0521E06C077
:104CE000184670470121C160881E70474268002A3B
:104CF0000BD0C3680168002B07D183688B4204D0B6
:104D0000491E521C06C0002070470020C043704757
:104D1000F7B582B0029C00272078641C15460197E5
:104D2000302802D0002D15D015E020780127641C12
:104D3000782804D0582802D0002D09D00BE0002D8F
:104D400001D0102D07D1002710252078641C02E027
:104D5000082500E00A250026009610E000990127AA
:104D600069430818020C294680B2714300908E18DE
:104D70003804864201D3012001902078641C294622
:104D800000F056F80028E9DA0398002805D0002F33
:104D900001D0641E00E0029C04600198002806D047
:104DA00002F0AAFD02210160C81E05B0F0BD009905
:104DB00030040843F9E7F0B51FB486B00020009036
:104DC000019002900698069980B204900798090C09
:104DD00002040014114307900027089D09980691CA
:104DE0003E463C4603900398A9B20204000C03908F
:104DF00004982D0C1543484300212246FFF73AFC46
:104E0000C719714110340E46402CECDB3846029A2B
:104E1000FFF730FC009A019B8018009059410298DE
:104E20000191103002904028CCDB00980BB0F0BD0F
:104E30003A2800D23038202302469A43412A01D32F
:104E400010463738884201D30020C0437047000025
:104E50000EB5054A02920022009213460192FFF716
:104E6000D4FC03B000BD000033040000CB0FDB070F
:104E7000490010B5490802460A4307D00A0D072425
:104E80000903E401090B121B002A01DC002010BDFC
:104E9000C900440F0C43C100E018D205801800F08F
:104EA00001F810BD002904DA401C490001D1400876
:104EB0004000704770B40024050C05D11024000494
:104EC00002D1002921D01124050E01D1000208349D
:104ED000050F01D10001241D850F01D18000A41C04
:104EE000002801DB4000641C002908D020252E1B6F
:104EF0000D46F540A14000D0012129430843010699
:104F00001B1B000ADB1D02D5002070BC7047DB05AF
:104F1000181880180029F8DA401C4900F5D170BC37
:104F200040084000704770B58C180578401C6B072E
:104F30005B0F01D10378401C2A1106D10278401C76
:104F400003E006780E70401C491C5B1EF9D12B074C
:104F500005D40023521E0DD40B70491CFAE70378C8
:104F6000401CCB1A921C03E01D780D70491C5B1C81
:104F7000521EF9D5A142D8D3002070BD10B50B4602
:104F80000021846A1C43846200BF0C4614432146FE
:104F9000416110BD002904D0826801231A43826058
:104FA00003E0826802231A4382607047002904D01C
:104FB000C26801231A43C26003E0C268520852006B
:104FC000C2607047C26802239A43C260C2680A4343
:104FD000C260704700B58DB00121084600F04EFE5A
:104FE000194800F0C9F819480290194803900020A8
:104FF0000490042005900020069080200790400037
:1050000008908000099020200A9000020B90002058
:105010000C9002A90C4800F085F9022000F08EF8EF
:1050200001220221084800F073F909216846017144
:1050300001218171417101A800F0F0FC01210248B9
:1050400000F08CF80DB000BD080002404024014083
:105050006601002010B504460548844207D10121AD
:10506000401500F04BFE0021601500F047FE10BD1A
:105070000024014030B501460020002200238C6846
:105080000125ED072C438C6000BF8C68E30FDB0724
:10509000521C0F242403A24201D0002BF5D18C68AE
:1050A000E40FE407002C01D1086C00E0002030BDC3
:1050B00030B5024600200023012424060C40002CB9
:1050C00005D0946801252D06AC43234600E0136803
:1050D0001C460C40002C01D0012000E0002030BD17
:1050E00010B50022C268084B1A400C7964030B68A3
:1050F00023438C682343CC6823430C6923434C69C6
:1051000023431A43C26010BD03D2FFFF816804220B
:105110001143816070470021016001718160C160AD
:1051200001614161704710B5022000F0D7F80220FC
:1051300000F004F810BD7047704700000121090716
:105140000140002902D00349486001E0024948605B
:10515000704700000004024000000240002904D013
:10516000026801231A43026003E00268014B1A40FF
:1051700002607047FEFF00000168554A114001605F
:105180000021016041608160C1605249884208D1BC
:105190005049083949680F2211434E4A083A516074
:1051A00094E04C491431884208D14A490839496889
:1051B000F0221143474A083A516087E045492831B7
:1051C000884209D14349083949680F221202114324
:1051D000404A083A516079E03E493C31884209D161
:1051E0003C49083949680F2212031143394A083AE9
:1051F00051606BE037495031884209D1354908394F
:1052000049680F2212041143324A083A51605DE0A6
:1052100030496431884209D12E49083949680F2242
:10522000120511432B4A083A51604FE02949783161
:10523000884209D12749083949680F2212061143CB
:10524000244A083A516041E02349884208D1224962
:10525000083949680F2211431F4A083A516035E066
:105260001D491431884208D11B4908394968F02288
:105270001143194A083A516028E0174928318842F9
:1052800009D11549083949680F2212021143124AFF
:10529000083A51601AE010493C31884209D10E4960
:1052A000083949680F22120311430B4A083A51602A
:1052B0000CE009495031884208D10749083949684A
:1052C0000F2212041143044A083A5160704700004B
:1052D000FEFF0000080002400804024001460020D2
:1052E000002201231B070B40002B02D0064B1A683B
:1052F00001E0064B1A6813460B40002B01D0012039
:1053000000E000207047000000040240000002405E
:10531000002A03D003680B43036002E003688B4359
:105320000360704710B5002202680D4B1A400C6AEA
:105330008B6823430C6923434C6923438C692343C3
:10534000CC6923434C6A23438C6A23431A4302608B
:10535000CB6843600B6883604B68C36010BD00007E
:105360000F80FFFFFFB589B00C4600250026002006
:105370000890079000272046FEF73CFFC0B2089037
:1053800000BF605D25284AD1681C205C642803D0DA
:10539000681C205C782842D100200190142102A8CA
:1053A00000F02EFB002E02D10B9807900AE0012E90
:1053B00002D10C98079005E0022E02D10020079040
:1053C00000E03BE0681C205C642805D10A2202A9A9
:1053D000079805F065FD04E0102202A9079805F082
:1053E0005FFD701CC6B2002001900EE002A901987A
:1053F0000A5C3846791CCFB209990A54002F00D1B3
:1054000009E00198401CC0B2019002A8FEF7F2FE2C
:1054100001998842EAD800BFA81CC5B208E0284616
:10542000691CCDB2225C3846791CCFB209990A5466
:10543000002F00D102E008988542A2DB00BF0DB02A
:10544000F0BD000010B5034800F038F8014800F046
:105450002FF810BDF0FF000010B5034800F02EF843
:10546000014800F025F810BDF0FF000010B5012044
:10547000C00200F029F8002805D006F055F90120F7
:10548000C00200F015F80120000300F01DF800280C
:1054900005D006F08DF90120000300F009F803485B
:1054A00000F00CF8014800F003F810BDF0FF000018
:1054B000014948617047000000040140014948610A
:1054C000704700000004014001460020044A526970
:1054D0000A40002A01D0012000E0002070470000AF
:1054E00000040140002120498279002A35D00A4673
:1054F000126803689A430B461A600A4652680368AA
:105500009A430B465A60027951180A6803681A4395
:105510000A60154A926803689A43134B9A601A46C8
:10552000D26803689A43104BDA604279102A0CD192
:105530001A46926803681A430B4B9A601A46D2685F
:1055400003681A43084BDA600DE0074942795118A5
:105550000A6803681A430A6005E0027951180A686C
:1055600003689A430A607047000401400149C8601B
:10557000704700000020024030B5044604250B208F
:10558000000400F08FF80546042D17D10C4800697F
:10559000022108430A490861084644610069402124
:1055A0000843074908610B20000400F07BF805461A
:1055B000034800690221884301490861284630BD3B
:1055C0000020024004200D49C968C907C90F0029FD
:1055D00001D0012010E00949C968102211400029BA
:1055E00001D0022008E00549C968042211400029C1
:1055F00001D0032000E0042070470000002002409A
:105600000348006980210843014908617047000090
:105610000020024078B506460C4604250020009084
:105620000B20000400F03EF80546042D24D1134859
:105630000069012108431149086134800B200004EE
:1056400000F030F80546042D10D1B01C0090200C5D
:10565000009908800B20000400F024F80546074854
:105660000069400840000549086105E003480069F9
:105670004008400001490861284678BD00200240EA
:105680000548006980210840002804D003480249E9
:105690004860034848607047002002402301674586
:1056A000AB89EFCD10B503460424FFF78BFF04460A
:1056B00003E0FFF787FF04465B1E012C01D1002B9E
:1056C000F7D1002B00D10524204610BDF0B50A46C5
:1056D00000210023002400BF3DE001258D402B4622
:1056E00015681D402C469C4234D11579012D02D0FD
:1056F0001579022D16D185684F000326BE40B543AB
:10570000856055794E00B54086683543856085884B
:1057100001268E40B5438580858896798E40B6B245
:105720003543858005684F000326BE40B5430560BC
:1057300015794E00B540066835430560C5684F00D1
:105740000326BE40B543C560D5794E00B540C66856
:105750003543C560491C1029BFD3F0BDF0B5002307
:1057600000244D07EE0E1546B5402B46CD10AE0079
:1057700005462035AD594E07F70E0F26BE40B543FE
:10578000CE10B60007462037BD51CD10AE003D46C5
:10579000AD591D432C46CD10AD003E467451F0BDB1
:1057A00002460020138A0B40002B01D0012000E0AC
:1057B00000207047018570478161704702E072B632
:1057C00000F0A0F9FBE7000002460848807A0028B4
:1057D0000AD00020054B98721846C07A0870184607
:1057E000007B1070012070470020FCE773510020FF
:1057F000F8B5002604F0C0FB064600272D480078C7
:10580000B04217D12C4800687D21090140182B496E
:10581000096888420AD9062129480078401CFEF709
:1058200097FCC8B226490870012706E000202449E9
:10583000087002E00020224908701E4806701F48C8
:1058400000681D490860312E32DB392E30DC00241F
:105850001C48FEF7CFFCC5B2002F15D0002D01D09B
:10586000681EC5B21648007800F092F80446412C34
:1058700004DB5A2C02DC20462030C4B211484455C7
:1058800001217F30817312E0062D10DA0C48007878
:1058900000F07EF80446412C04DB5A2C02DC204642
:1058A0002030C4B20748445501217F30817300BFC6
:1058B0000020F8BDDD010020D8010020C800002034
:1058C000DC010020E550002070B5002404F054FBFA
:1058D00004460026002C4BD026480078A04227D151
:1058E00024E0312C0BDB392C09DC2348C07B022857
:1058F00003D02148C07B012801D1204D00E0642560
:105900001F48006840191F49096888420AD90621C2
:105910001D480078401CFEF71BFCC8B21A490870ED
:10592000012604E000201849087000E0D9E702E0F1
:105930000020154908700F4804701248006810498B
:1059400008601148007800F023F8104908700846F4
:105950000078002809D00120074988720846C672DD
:105960000A4801780448017302E000200249887265
:1059700070BD0000E501002073510020DC0500002F
:10598000E0010020C8000020E4010020E601002022
:1059900070B50546002404F0EFFA04461648C07BB3
:1059A00000280BD1312C05DB392C03DC05F060FD20
:1059B000204670BD05F05CFD2046FAE70E48C07B2E
:1059C000022803D00C48C07B012810D1312C0ADBFF
:1059D000392C08DC05F04CFD20463138C000074961
:1059E0004018405DE5E705F043FD2046E1E705F09E
:1059F0003FFD2046DDE7000073510020A8F00108BC
:105A00000246002000BF03E000231354431C98B259
:105A10008842F9DB704772B600F074F80021827892
:105A2000002A27D0184A03231B02D21803789B10A0
:105A30009B00D15802789207D30EFF229A400B4662
:105A40009343194642789207120E03789B07DB0EA8
:105A50009A4011430C4A03231B02D21803789B106F
:105A60009B00D1500278D306DB0E01229A40064BF0
:105A70001A6007E00278D306DB0E01229A40024B3F
:105A800080331A607047000000E100E010B5002884
:105A900019DA1A4A03071B0F083B9B089B00D258D0
:105AA0008307DC0EFF23A3409A438B071B0E84075A
:105AB000E40EA3401A43114B0407240F083CA4082A
:105AC000A4001A5118E00E4A03231B02D2188308BF
:105AD0009B00D2588307DC0EFF23A3409A438B0719
:105AE0001B0E8407E40EA3401A43054B0324240233
:105AF0001B198408A4001A5110BD00001CED00E021
:105B000000E100E0BFF34F8F03480449C860BFF3D2
:105B10004F8F00BFFEE700000400FA0500ED00E033
:105B2000BFF34F8F03480449C860BFF34F8F00BFD6
:105B3000FEE700000400FA0500ED00E070470000F9
:105B400001460E48407A002804D10C4809304078BC
:105B5000002811D00948407A087008480930407878
:105B60004870002205484272093042700020034A02
:105B7000803A1070012070470120FCE7645100203A
:105B800070B500240C48FEF735FBC5B2002D01D1DD
:105B9000002070BD80210848C01DFEF70CFB06499F
:105BA000C91DC81F04F066FA044600BF0248C01DA4
:105BB000FEF720FB80B2ECE7E550002010B5002096
:105BC0000D49087000210C4880300172491E017394
:105BD0000021817307217F38FEF7EDFA8021064806
:105BE0000830FEF7E8FA032103488930FEF7E3FAAC
:105BF0000BF05CFA10BD0000E450002010B503214A
:105C00000F48FEF7D8FA0E4809380C2141564900D2
:105C10007838091879300A78027249784172072178
:105C20008038FEF7C8FA802105488138FEF7C3FAAC
:105C30000021C9430248093801730021017210BDD7
:105C40006D5100200C4949680122920391430A4A90
:105C500051601146496882B21143074A51601146AA
:105C6000096B92159143044A11631146096B020CAA
:105C70001143014A1163704700100240002905D00A
:105C8000054A52690243044B5A6104E0024A5269D0
:105C90008243014B5A61704700100240002905D031
:105CA000054AD2690243044BDA6104E0024AD26930
:105CB0008243014BDA61704700100240002905D091
:105CC000054A12690243044B1A6104E0024A126950
:105CD0008243014B1A61704700100240002905D031
:105CE000054A92690243044B9A6104E0024A9269B0
:105CF0008243014B9A61704700100240002905D091
:105D0000054AD2680243044BDA6004E0024AD268D2
:105D10008243014BDA607047001002401948006866
:105D200001210843174908600846406816490840A1
:105D30001449486008460068144908401149086041
:105D4000084600680121890488430E490860084616
:105D500040683F21090488430A4948600846C06AF0
:105D600000090001C8620846006B0949084005495E
:105D700008630846406B4008400048630020886084
:105D800070470000001002400CB8FF08FFFFF6FE4D
:105D9000ACFEF0FFFEB50446002500260020029070
:105DA000019000900027864840680C210840054675
:105DB000002D06D0042D07D0082D08D00C2D2CD195
:105DC00028E0804820602BE07E48206028E07C4866
:105DD00040680F218904084006467948406803213D
:105DE000C90308400290B00C861C0298002803D119
:105DF0007548374647430BE07148C06A0007000FFB
:105E0000401C01906F480199FEF78CF970430746DA
:105E1000276005E06D48206002E06A48206000BF0E
:105E200000BF67484068F021084005462D096848D2
:105E3000405D009020680099C840606060484068FC
:105E400007210902084005462D0A6148405D00907F
:105E500061680098C140A1605948006BFF21013181
:105E60000840884202D05B48E0600DE0544840683A
:105E7000012189030840884203D0A0684008E060FF
:105E800002E0A0688008E0604D48006B40210840B7
:105E9000402802D05048206102E00120C003206168
:105EA0004748006B10210840102802D04548606127
:105EB00001E0206860614248006B8007800F002885
:105EC00002D1A068A06119E03D48006B8007800FF7
:105ED000012802D12068A06110E03948006B8007DA
:105EE000800F022802D18003A06107E03448006BD4
:105EF0008007800F032801D13248A0613048006B31
:105F0000032109040840002802D1A068E06120E0D4
:105F10002B48006B03210904084001210904884231
:105F200002D12068E06114E02548006B03210904D8
:105F3000084001214904884202D18010E06108E054
:105F40001F48006B032109040840884201D11D4805
:105F5000E0611B48006B032189040840002802D13E
:105F6000A068206220E01648006B032189040840E5
:105F700001218904884202D12068206214E010487F
:105F8000006B0321890408400121C904884202D121
:105F90000011206208E00A48006B032189040840D0
:105FA000884201D1074820620548006B80210840E3
:105FB000802802D00548606200E06762FEBD0000F4
:105FC0000010024000127A0000093D00006CDC0263
:105FD00093020020809FD5001280000010B5024679
:105FE0000021002300205111002902D10C4C23680C
:105FF0000BE0012902D10A4C236A06E0022902D1F2
:10600000074C636A01E0064C636BD106C90E01249C
:106010008C401C40002C01D0012000E0002010BD6D
:1060200000100240024840680C2108407047000000
:106030000010024001460020054A5068F023024645
:106040009A43104602460A431046014A5060704780
:10605000001002400021024A91701146887070477A
:1060600000100240002806D00649096801221143A9
:10607000044A116005E00349096849084900014ADA
:1060800011607047001002400849096A4908490038
:10609000064A11621146096A04229143034A1162B9
:1060A0001146096A01431162704700000010024066
:1060B00001460020064A506807231B0202469A4305
:1060C000104602460A431046014A506070470000DD
:1060D00000100240002807D0074909680122120673
:1060E0001143054A116006E00349096801221206BE
:1060F0009143014A116070470010024001460020A0
:10610000044A50688008800002460A431046014A4B
:106110005060704700100240014600BFF020084068
:1061200000110A23584302460807000F8018C0B226
:1061300070470146002204E0501CC2B208460A38EB
:10614000C1B20A29F8DA1007000E084370470000B0
:1061500010B50021010980220A4392B2D243044BB8
:10616000DB68802423401A43014BDA6010BD000035
:106170000028004008B50022009200200021124AA9
:10618000D26840231A40002A1BD1421E0E4BDA600F
:1061900000BF0D4AD26840231A401146009A521C93
:1061A00000921B02009A9A4201D00029F1D0064ABF
:1061B000D26840231A40002A01D0012002E00020CA
:1061C00000E0012008BD0000002800400348C0682E
:1061D000802188430149C8607047000000280040C2
:1061E00070B501460020002200230F4C24680425CE
:1061F0002C4022460C4C403CA4680C408E0C0D46B2
:10620000F540ED0B15402C432346074C403CE46819
:106210000D092C402246002B04D094B2002C01D052
:10622000012000E0002070BD4028004008B501209A
:106230000003FFF7D5FF00280AD000216846C1708F
:106240000170417081706946012000F00BF800BFB9
:1062500001200003FFF77CFF01204004FFF72EF927
:1062600008BD0000F8B505460C4600260020009049
:10627000002D0AD12F48806840210840002800D016
:1062800002E00020E07000BF0EE02A488068402154
:106290000840002804D02078FFF73EFF064602E0C1
:1062A0000020E07000BF00BF002D0BD0207800045C
:1062B000617809020843A1780843E178090408439A
:1062C000064610E02078FFF734FF07046078FFF7F8
:1062D00030FF00020743A078FFF72BFF0743E07869
:1062E000000407433E46CA201249486253204862D0
:1062F000FFF740FF002801D1009016E00E48304023
:106300000C490860FFF762FF0A48806820210840B6
:10631000002808D100F012F8002801D1009004E014
:106320000120009001E001200090FF200149486217
:106330000098F8BD002800407F7F7F0008B500224C
:10634000009200200021174A926820231A40002A58
:1063500001D0012025E0CA22124B5A6253225A6210
:106360001A46D268A0239A430E4BDA6000BF0D4A4A
:10637000D26820231A401146009A521C00929B02B8
:10638000009A9A4201D00029F1D0064AD26820230F
:106390001A40002A01D0012000E00020FF22014B1A
:1063A0005A6208BD00280040FFB581B004460E4681
:1063B000174600BF20480078002801D101F082F87C
:1063C00000BF1D484069A04230D9EFF31081084654
:1063D000012181F3108800BF00BF002C18D01821C4
:1063E0006143154A603256501821614389184F6045
:1063F00018226243104B6033D21804999160002236
:1064000018216143C9180A6118216143C918CA607B
:1064100018226243084B6033D2180A995161C1B205
:1064200081F3108800BF00BF002501E00025ED4387
:10643000284605B0F0BD000050530020FFB581B0E4
:1064400004460E46174600BF20480078002801D1B8
:1064500001F038F800BF1D480069A04230D9EFF3C1
:1064600010810846012181F3108800BF00BF002C75
:1064700018D018216143154A18325650182161432B
:1064800089184F6018226243104B1833D2180499B0
:106490009160002218216143C9180A6118216143E3
:1064A000C918CA6018226243084B1833D2180A99D7
:1064B0005161C1B281F3108800BF00BF002501E027
:1064C0000025ED43284605B0F0BD000050530020E4
:1064D000FEB5044600BF21480078002801D100F035
:1064E000F1FF00BF0027FF2069460871102C30DA49
:1064F0001B48005D4871194D1835EFF3108000906E
:10650000012080F3108800BF00BF287D8007800F26
:10651000022807D113480470022201A9284601F07D
:106520004FF90FE0284601F005F80646022E07D382
:106530000C480470022201A9284601F07EF901E00E
:106540000027FF430098C0B280F3108800BF00BF4F
:1065500001E00027FF433846FEBD000050530020F5
:106560008202002092020020F8B504460D4616462D
:1065700000BF0E480078002801D100F0A3FF00BF43
:10658000EFF310800746012080F3108800BF00BFA2
:1065900032462946204600F00BF80090F8B280F30E
:1065A000108800BF00BF0098F8BD000050530020C5
:1065B000F7B582B007461646039801901820784335
:1065C0001B494018009000984069002804D0012819
:1065D00011D0022826D11EE0009800F0ABFF05463E
:1065E000B54201D2002405E03446324601990098B4
:1065F00001F023F918E0009800F09CFF0546B54231
:1066000001D2284600E0304604462246019900980F
:1066100001F013F908E032460199009801F0D0F832
:10662000044601E0002400BF00BF204605B0F0BDD5
:10663000685300200FB438B50446002506A8009022
:106640006A462046059900F008F8054600200090AB
:10665000284638BC08BC04B01847F7B59AB00D46B8
:10666000144602A8159040201690002017901A9802
:1066700019900020189000BF2E786D1C002E00D1BC
:10668000E4E0252E79D100270120149000BF2E7858
:10669000232E12D02B2E0CD02D2E02D0302E10D126
:1066A00003E0012007436D1C0EE0022007436D1C30
:1066B0000AE0042007436D1C06E0082007436D1C18
:1066C00002E00020149000BF00BF14980028DED123
:1066D000129000BF2E78302E01DB392E00DD08E04D
:1066E0006D1C0A21129848433146303940181290E7
:1066F000F0E700BF002013902E782E2E11D16D1CD4
:1067000000BF2E78302E01DB392E00DD08E06D1C35
:106710000A21139848433146303940181390F0E766
:1067200000BF2E7800BF6C2E01D0682E02D16D1CE8
:106730002E7800E000E0F6E700BF702E63D008DCA2
:10674000252E72D0582E38D0632E09D0642E71D1E8
:1067500014E0732E40D0752E1FD0782E6AD12BE016
:106760002168081D2060086814901498C0B2019038
:1067700015A8019901F002F85DE05FE02168081DAD
:106780002060086814901298019700900A2215A8BA
:10679000139B149900F0DCFE4DE02168081D206079
:1067A000086814901298019700900A2215A8139B6C
:1067B000149900F055FF3EE000BF2168081D2060DD
:1067C00008681490129801970090102215A8139B46
:1067D000149900F045FF2EE02168081D206008682C
:1067E000019000BF019806780198401C0190002E8E
:1067F00000D106E0314615A800F0C0FF1898002827
:10680000F0DA00BF17E02168081D206008681490C6
:10681000002008210B4610220091019015A8149920
:1068200000F01EFF07E000E004E0252115A800F0BD
:10683000A5FF00E000BF00BF6D1C03E0314615A8B6
:1068400000F09CFF1898002800DB15E700BF18989F
:1068500000280BDD1798002804D002A9179A1A986F
:10686000FFF782FE179918984018189018981DB0D5
:10687000F0BD704730B500228B071C0F0F23A340DB
:106880001A460B4B8C10A4001B599343084C8D10D7
:10689000AD00635123468C10A4001B598C07250FB3
:1068A0000446AC402343024C8D10AD00635130BD13
:1068B000080001400CB500200190009011201D49F6
:1068C00008601D4840681C494860084640684860A8
:1068D000084640687F21C903884317494860084635
:1068E00040680521C9040843134948600846006808
:1068F0000121090608431049086000BF0E480068DE
:106900000121490608400028F8D00B48406880085B
:10691000800009494860084640680221084306494A
:10692000486000BF044840680C2108400828F9D19D
:106930000CBD000000200240001002400146887893
:1069400000228A7070471F207047000001461F29EF
:1069500001D3002070470148405CFBE7F0F00108DC
:10696000002202704170521EC27000228270704775
:1069700003214156002909DB032141561F2905D275
:1069800003214156034A515C817001E0002181706E
:1069900070470000F0F0010810B51C48807801280D
:1069A00005D11B480068801D1949086004E018489B
:1069B0000068401C16490860164800687D21C9001F
:1069C000401813490968884205D2114800681149E6
:1069D000086001F01BFF10480088002805DD0E4804
:1069E0000088401E0C49088006E00C480079012808
:1069F00002D102200949087109480078002804DD05
:106A000007480078401E0649087010BD1C19002078
:106A1000C8000020CC000020C4000020A80A0020EC
:106A20006401002011201D4908601D4840681C4970
:106A30004860084640684860084640687F21C903AE
:106A4000884317494860084640680521C90408433F
:106A500013494860084600680121090608431049A7
:106A6000086000BF0E480068012149060840002860
:106A7000F8D00B4840688008800009494860084603
:106A80004068022108430649486000BF0448406846
:106A90000C2108400828F9D170470000002002406E
:106AA0000010024010B5FFF739F90120FFF7DAFABC
:106AB00000BF0120FFF792FA0028FAD00020FFF76C
:106AC0001DFB0020FFF7C6FA0020FFF7DDFA0020CB
:106AD000FFF700FB0020FFF7ADFA0020FFF7E8FA10
:106AE00000BFFFF79FFA0028FBD110BD10B51B486F
:106AF00000680121084319490860084640681849A0
:106B0000084016494860084600681649084013497D
:106B10000860084600680121890488430F4908601D
:106B2000084640683F21090488430C4948600846EC
:106B3000C06A00090001C8620846006BFF21543199
:106B40008843064908630846406B40084000486394
:106B500000208860FFF7AEFE10BD0000001002406C
:106B60000CB8FF08FFFFF6FE10B50121064800F043
:106B700057F8002807D004F0F5F904F07FFC012154
:106B8000014800F03CF810BD001000401FB5002483
:106B90000021174800F036F801211020FFF77EF899
:106BA000112168460170012141708170FEF736FFA6
:106BB000012400BF092002900E496846818000210F
:106BC0008181C18001A90A4800F048F801210848E4
:106BD00000F012F801221146054800F034F80020B8
:106BE000034948620121024800F00CF81FBD000073
:106BF00000100040BF120000CA4302827047CA431F
:106C000002827047002904D0028801231A430280BF
:106C100003E00288014B1A4002807047FEFF00002B
:106C200030B50246002000230024158A0D402B4673
:106C300095890D402C46002B03D0002C01D001205B
:106C400000E0002030BD002A03D083890B438381FC
:106C500002E083898B438381704700000022028811
:106C6000154B984206D001239B07984202D0134B44
:106C7000984203D1124B1A404B881A43114B984249
:106C800003D0114B1A400B891A4302804B68C36230
:106C90000B880385084B984208D00C4B984205D0CE
:106CA0000B4B984202D00B4B984201D18B7A038652
:106CB0000123838270470000002C01400004004043
:106CC0008FFF000000100040FFFC0000004001406A
:106CD000004401400048014038B5044600202070BF
:106CE000607014209B23034A5B210090022004F073
:106CF000C4FD38BDFFFF00000FB400B589B01422F9
:106D00000C4904A8FDF73EFA0B490C4A08A8C07DBF
:106D10008300C01804ABC018722301920291009046
:106D200046220021084605F03BFE09B008BC04B02D
:106D300018470000504702083A390000FFFF0000E2
:106D4000F1B58AB00A9801280DD1FEF737FF01206E
:106D5000844908702620A023834A4A2100900020FD
:106D600004F08BFDFCE07F488030807B0028F9D068
:106D70000024002500267B48401CFDF73BFAC5B2E5
:106D80000021784880308173002006900790089099
:106D90000990744880300C214156002911DA4E21A7
:106DA000002004F079FD70491F226E48401C4E23DC
:106DB00001920291009002220021084605F0F0FDA8
:106DC0000DE069491F22D2026648401C4E23019201
:106DD0000291009002220021084605F0E1FDFEF735
:106DE000CFFEC5B2002D7DD05E488030007AC10054
:106DF000081A4000A84207DB0E212846FDF7A8F933
:106E0000C1B2584880300172681C564980310C224A
:106E10008A56C10F091849108A4208DBC10F0918A8
:106E20004910491E4AB24F4980310A731EE00020C2
:106E300006900790089009900E212846FDF788F9E2
:106E4000471C48488030007A421C3B4647A106A8B0
:106E5000FEF788FA44481F2106AA4E2300920191AA
:106E6000029082220021084605F09AFDE90F491997
:106E70004A103C498031097ACB00591A511ACEB2D6
:106E8000072E00DD07265F21002004F005FD002409
:106E90005BE0204631306946087433481F210122E7
:106EA00004AB0093019202910390122060430246CA
:106EB0005F23002108460BF079FA2A4880300C2124
:106EC0004156002925DB01460C2008560721FDF715
:106ED0003FF9A1421DD124491F22D2020223214899
:106EE000803000E034E0007AC700381A001947000B
:106EF0001C480830381801930292039100902046F4
:106F000012214843821D5F23002108460BF04EFAF0
:106F100019E015491F22022312488030007AC70069
:106F2000381A001947000F480830381801930292A8
:106F300003910090204612214843821D5F230021C7
:106F400008460BF033FA601CC4B2B442A1DB06E081
:106F50005F21002004F0A0FC0B200649087000BF50
:106F60000BB0F0BDE4500020FFFF000025642F258A
:106F700064000000E801002070B504460D46002DB5
:106F80000CD1032020560C494A57904213D0E07888
:106F900008700021204600F011F80CE0012D0AD104
:106FA00001212046FFF7DCFCE0780349087001214D
:106FB000204600F003F870BDD10100207FB50446E3
:106FC0000E4600250020039001202070FFF7BBFC37
:106FD00003216156884204DCFFF7B5FC401E40B235
:106FE000E07003202056002803DA00202D490870A5
:106FF00014E0032161562B4800780E30814204DDF5
:10700000E0780E382749087008E00320205625490B
:107010000978884202DAE0782249087000253EE0CB
:10702000204909784919C8B2FFF790FC03906946D6
:10703000087B002831D01B48007840190321615695
:1070400088421BD1122029460A225143C91C0090B4
:10705000C8B213461F225C2104F00FFC1F20124906
:1070600003AA00920191029028460A214843C21CBB
:107070005C230021084605F093FC0EE00A481F211E
:1070800003AA00920191029028460A214843C21C9B
:107090005C230021084605F083FC681CC5B20F2D57
:1070A000BEDB7FBDD0010020FFFF000010B52049EE
:1070B000204800F033F9002834D01D491D4800F065
:1070C0008BF81D490988481CC117490D0918C912B8
:1070D000C902411A184A528891420CD0154800F052
:1070E000E1F9C1B2144802880088401C124B188094
:1070F0001248815402E00F4800F0D4F90E49088884
:10710000C117490D0918C912C902411A0A4A11804A
:107110000120114608712021064800F05BF8032089
:10712000074908800021C943024800F053F810BD08
:107130000501050000380140A80A0020A80200202F
:10714000C400002010B51F491F4800F0E7F80028D0
:1071500031D01C491C4800F03FF81C490988481CE4
:10716000C117490D0918C912C902411A174A528894
:1071700091420CD0144800F095F9C1B2134802882E
:107180000088401C114B18801148815402E00E48C1
:1071900000F088F90D490888C117490D0918C9126E
:1071A000C902411A094A11800120114608712021A3
:1071B000054800F00FF80021C943034800F00AF821
:1071C00010BD00000501050000440040FC14002033
:1071D000FC0C00200162704710B5002300220B0C4C
:1071E00001249C402246026210BD002904D002689E
:1071F00001231A43026003E0026852085200026051
:107200007047000010B504463248844209D101217C
:107210008803FEF773FD002101208003FEF76EFD59
:1072200056E02D48844209D101214804FEF746FD6D
:10723000002101204004FEF741FD49E02748844237
:1072400009D101218804FEF739FD002101208004C5
:10725000FEF734FD3CE02248844209D10121C804F4
:10726000FEF72CFD00210120C004FEF727FD2FE0D2
:107270001C48844209D101210805FEF71FFD0021A9
:1072800001200005FEF71AFD22E01748844208D1CC
:1072900001212020FEF732FD00212020FEF72EFDE7
:1072A00016E01248844208D101214020FEF726FD55
:1072B00000214020FEF722FD0AE00D48844207D15C
:1072C00001218020FEF71AFD00218020FEF716FD27
:1072D00010BD00000038014000440040004800405C
:1072E000004C0040005000400014014000180140D4
:1072F000001C0140002A03D003680B43036002E036
:1073000003688B430360704702460020D3690B403B
:10731000002B01D0012000E00020704770B502462C
:107320000B4600240021002500201E04350ED9B292
:1073300001268E403146012D02D11668314006E00B
:10734000022D02D15668314001E0966831401C0C94
:107350000126A6403446D6693440002903D0002CCB
:1073600001D0012000E0002070BDF8B503460024E4
:10737000002600960025002018460E04340ECEB2DA
:1073800000960127009EB7403D46022C01D1001D0A
:1073900002E0032C00D10830002A03D006682E43F7
:1073A000066002E00668AE430660F8BDF0B58BB03B
:1073B00004460D46002700200A9000262068400859
:1073C0004000206066680321090330468843064672
:1073D000A8680643666026682D480640E968686824
:1073E00008432969084306432660A6680321090269
:1073F00030468843064668690643A6606846FEF73D
:10740000C9FC2448844202D106980A900DE0224823
:10741000844202D107980A9007E02048844202D1B2
:1074200008980A9001E002980A9020680121C90397
:10743000084000280CD029680A9A5000FCF772FE18
:10744000074629680A9A5000FCF76CFE0E4609E0D0
:1074500029680A98FCF766FE074629680A98FCF72F
:1074600061FE0E4628684008B04200D87F1C2068A4
:107470000121C9030840002806D03807460F3846C6
:107480000749084030430746A7810BB0F0BD000014
:10749000F3E9FFFF0038014000440040004800408D
:1074A000F0FF00000146888CC005C00D7047002A1F
:1074B00003D0038B0B43038302E0038B8B430383D3
:1074C0007047000010B5124C03202061606111A0CC
:1074D000A0611349E161FF21013121620021A16214
:1074E0006162E1620BA020660E4961661021A1660F
:1074F00000212167E16661670BA1E01DFCF79CFE9E
:107500000AA12046FCF798FE2020A07110BD0000C3
:10751000505300205465726D696E616C000000006C
:10752000F8530020F8540020525454005345474764
:107530004552000010B501460A69CB689A4204D84A
:107540008C68641EE41AA01801E0D41A601E10BDF5
:10755000FFB585B006460F460F9D0E9C002F01DA41
:10756000784200E0384603900120049007E0079934
:107570000398FCF7EDFD03900498401C04900799D4
:1075800003988842F3DA04990898884201D9089848
:107590000490002C06D0002F03DB04202840042890
:1075A00000D1641E02202840002802D0089800283C
:1075B00015D0E807C00F002811D1002C0FD008E02B
:1075C000641E2021304600F0D9F8F068002800DA67
:1075D00004E0002C02D00498A042F1D300BFF06870
:1075E00000283ADB002F05DA7F422D21304600F0DB
:1075F000C5F807E004202840042803D12B21304699
:1076000000F0BCF8F068002827DB022028400228A0
:1076100018D1E807C00F002814D10898002811D10C
:10762000002C0FD008E0641E3021304600F0A6F890
:10763000F068002800DA04E0002C02D00498A04290
:10764000F1D300BFF068002807DB019500943946AC
:107650003046089B079A00F003F809B0F0BD00001F
:10766000FFB585B0064617461D460E9C069802904B
:1076700001200390019007E039460298FCF752FD83
:1076800002900198401C01900298B842F4D20198EF
:10769000854200D901950F98C007C00F00281DD161
:1076A000002C1BD002210F980840022804D1002D85
:1076B00002D13020009001E02020009008E0641EFC
:1076C0003046009900F05AF8F068002800DA04E02B
:1076D000002C02D00198A042F1D300BFF06800282E
:1076E00048DB0FE0012D01D96D1E08E003990698D3
:1076F000FCF718FD04900498B84200D203E0039808
:1077000078430390EEE700BF00BF03990698FCF7AB
:1077100009FD04900399049848430699081A0690B5
:10772000154A0498115C304600F028F8F0680028EB
:1077300000DA07E039460398FCF7F4FC039003985D
:107740000028E2D100BF0F98C007C00F002811D059
:10775000002C0FD008E0641E2021304600F00EF807
:10776000F068002800DA04E0002C02D00198A04262
:10777000F1D300BF09B0F0BDB448020870B50446AB
:107780000E46A568681C6168814206D3206846558C
:10779000681CA060E068401CE0606168A0688842E6
:1077A0000DD1A26821682069FEF7DEFEA16888423B
:1077B00003D00020C043E06001E00020A06070BD65
:1077C000F7B582B00446174600200190E56800BF77
:1077D000206900900098A84203D90098401B461EDB
:1077E00004E0A1680098281A401C0E1AA068401BEB
:1077F000B04201D9304601E0A068401B0646BE42B7
:1078000001D2304600E038460646616848193246E3
:107810000399FCF7B7FC019880190190039880192F
:107820000390BF1BAD19A068A84200D10025E560F8
:10783000002FCDD1019805B0F0BDF7B582B0044658
:107840001546E668A068871BAF4208D961688819A9
:107850002A460399FCF796FC7019E06010E0019746
:1078600061688819019A0399FCF78CFCE81B019068
:10787000039AD1196068019AFCF784FC0198E060D2
:1078800005B0F0BD0FB410B504A9074B02AA0398C8
:1078900000F014F9044602A9002000F0ABFC2046D9
:1078A00010BC08BC04B01847F58100082021020C68
:1078B00001D010211046020A01D0104608390209F1
:1078C00001D01046091F820801D01046891E4208C7
:1078D00001D0881E7047081A704730B47446641E81
:1078E0002578641CAB4204D3635D5B00E31830BCB5
:1078F00018471D46F8E7000000487047A402002022
:107900000148006870470000A402002002E008C897
:10791000121F08C1002AFAD170477047002001E009
:1079200001C1121F002AFBD1704700000149086005
:1079300070470000A4020020F0B51FB486B009987B
:10794000089A030D0021024314D05148514A1818D7
:10795000504305141198012810981AD0281A401C79
:1079600000264D4F4D49009601910490002812DAEF
:10797000444211E01198012449A3012801D1109833
:10798000C1430698119A84600360C26041600BB0E5
:10799000F0BD4042E4E70446210500203F4A001CB8
:1079A00051410391029012E0E00707D032463B4676
:1079B00001990098FCF708FD0191009032463B4682
:1079C00010461946FCF700FD06460F466410002CD1
:1079D000EAD10498039B0028029A0999089806DACC
:1079E000FCF7F2FC019B009AFCF7EEFC05E0FCF7CB
:1079F00053FD019B009AFCF74FFD04460E46002202
:107A0000284BFCF775FF03D80020C043014607E070
:107A10000022254B20463146FCF724FCFCF748FFAA
:107A2000102409E0002C0ADB0A220023FCF7F2FDF7
:107A3000079B30321A55641E02460A43F2D11122C6
:107A4000641C079B121B1C19119B012B03D00123E3
:107A500008430ED10AE0084304D011201090002002
:107A6000119077E71098151A6D1E0BE0109882425E
:107A700002DD00236D1C03E0824201DA00236D1E4B
:107A8000002BEED0069811998260C16030C07EE76D
:107A900001FCFFFF104D0000000014400000F03F0B
:107AA000300000000000F0430000E03F30380A28BA
:107AB00001D201207047002070470000FFB597B049
:107AC0000646002518E2252877D100242746FD49DF
:107AD000049400E00443761C32780120203A904060
:107AE0000842F7D130782A280ED002223078014699
:107AF0003039092916D804990A23594330394018D6
:107B00001443761C0490F1E7189802C80491189069
:107B1000002904DA01204003044348420490022073
:107B20000443761C30782E2814D104200443707846
:107B3000761C2A2809D11898761C80C8189009E06C
:107B40000A214F43303FC719761C3078014630393F
:107B50000929F5D930786C2810D006DC4C281AD0C9
:107B600068280ED06A2817D104E0742813D07A2828
:107B700012D110E00120400504430CE00121090569
:107B800001E0032109050C437178814203D10120F2
:107B900000052418761C761C3078119066280BD0CE
:107BA00013DC58287DD009DC00287BD04528F6D08E
:107BB0004628F4D047281AD1A5E118E0632835D02B
:107BC000642870D0652812D19DE170286CD008DC43
:107BD0006728F1D069287BD06E280DD06F2806D198
:107BE000BAE073282ED0752871D0782859D01A9A07
:107BF000199990476D1C7EE16002400F022809D060
:107C000003280DD00428189801680DD00D60001DC0
:107C1000189070E11898EA1701680D604A60F6E75D
:107C2000189801680D80F2E70D70F0E718986A4621
:107C300001781172001D18900020507202A8009067
:107C4000012005E0189802C8189000200091C04358
:107C500061070DD5002101E00199491C0191B9424C
:107C600012DA8142F8DB009A515C0029F4D10BE072
:107C7000002101E00199491C01918142FADB019A3E
:107C80000099895C0029F5D1019904981A9B471A3B
:107C900021463846199A00F097FA0199401945187B
:107CA0000BE04FE02CE113E04EE0009800990078E3
:107CB000491C00911A9A199990470198401E019009
:107CC000401CF2D1214638461A9B199A10E137E040
:107CD0000A200021009001916002410F022907D083
:107CE000189A01CA1892C2179446032908D00AE0CC
:107CF0001898C01DC108C90005C91891944607E02D
:107D000000B2C2179446042902D140B2C1178C4672
:107D100000226146944506DA0A460021404291411C
:107D20008C462D2102E0210504D52B216A461173D2
:107D3000012103E0E10701D02021F7E7029155E09E
:107D40000A200AE0102008E0102000900021042002
:107D500004430191082703E00820002101910090CD
:107D60006002410F022907D0189A01CA1892002216
:107D70009446032908D008E01898C01DC108C9001E
:107D800005C91891944603E080B2042900D1C0B21D
:107D900000210291210729D51199702906D0009A56
:107DA0001021019B4A401A4305D00EE040216A464B
:107DB0001173012108E06146014306D030216A4673
:107DC00011731199517302210291009A0821019BAC
:107DD0004A401A430AD16146014301D1610705D5E2
:107DE00030216A46117301217F1E02911199582991
:107DF00004D035A10E910DA90D910DE037A1F9E741
:107E00006146019B009AFCF705FC0E9B8C469B5C2F
:107E10000D9A521E0D92137061460143F0D10D98D8
:107E200005A9081A20300190600703D5012000043D
:107E3000844300E001270198874201DD381A00E001
:107E40000020019900904118029809180498401ADE
:107E50000490E00306D421461A9B199A049800F076
:107E6000B3F94519002706E003A81A9AC05D1999CD
:107E700090476D1C7F1C02988742F5DBE0030CD510
:107E800021461A9B199A049800F09EF9451904E0BE
:107E90001A9A3020199990476D1C0099481E00903D
:107EA0000029F5DC08E00D980D990078491C0D912A
:107EB0001A9A199990476D1C0199481E0190002942
:107EC000F1DC63E1092801003031323334353637D3
:107ED0003839616263646566000000003031323316
:107EE00034353637383941424344454600000000B6
:107EF00000F05AF94519761C3078002800D0E2E5E8
:107F000028461BB0F0BD600700D406271898C01D96
:107F1000C108C90048680A680831C30FDB07189117
:107F2000190001D09CA108E0210501D59BA104E026
:107F3000E10701D09AA100E09AA1430011985B08E3
:107F4000109165280CD006DC452809D046281DD0A4
:107F5000472841D141E0662818D067283CD13CE051
:107F60000021112F01DB112000E0781C019100900D
:107F700008A911A8FFF7E0FC139905910021119AB7
:107F800015927F1C12980197009150E00120C007C4
:107F900003900120019008A9009711A8FFF7CCFCDD
:107FA000139A149905920022119B0092129815932E
:107FB000059A0192002901D0104602E0791C401870
:107FC0000190381A01D5019804E04042401E00900B
:107FD000781C0190C01B029043E0012F00DA0127BA
:107FE0000021112F01DD112000E0384601910090A1
:107FF00008A911A8FFF7A0FC13990591119A002177
:10800000129815920091019721070CD40599B94255
:1080100001DB019900E00191012904DD159A491E57
:10802000515C302906D0B84201DA011D05DA012180
:10803000029115E00199491EEDE7002805DC009941
:10804000411800910199091A03E0019A411C9142DB
:1080500000DD01910099401A401C02900120C007E8
:108060000390200706D402990198814202DB002088
:10807000C043029000206946C87707AF01210398EA
:108080000337C907884224D0022011902B20129078
:10809000039800280CDA404203902D20129007E04C
:1080A0000A210398FCF73EF830317F1E03903970A7
:1080B0001199481E11900029F2DC03980028EFD195
:1080C000791E129808703078202108404530BF1E74
:1080D000387006A8C01BC01D0390109800780028B7
:1080E00000D00120019941180298C017091803987F
:1080F00009180498401A401E0490E00306D4214653
:108100001A9B199A049800F05FF8451910980078A6
:10811000002803D01A9A199990476D1CE00324D5C2
:1081200021461A9B199A049800F04EF845191CE054
:108130000098002807DB00990598884203DD159810
:10814000405C199901E0199930201A9A90470098DB
:108150006D1C401C00900298401E0290002804D123
:108160001A9A2E20199990476D1C0199481E01906A
:108170000029DDDC05E038781A9A7F1C19999047B0
:108180006D1C0399481E03900029F4DC21461A9BBC
:10819000199A0498ACE600002D0000002B000000A6
:1081A0002000000000000000F8B5044600251E462F
:1081B0001746880404D405E039462020B0476D1CDA
:1081C000641EF9D52846F8BDFFB50446002581B0E8
:1081D0001E46C80301D5302700E02027880404D5B7
:1081E00005E038460399B0476D1C641EF9D5284652
:1081F00005B0F0BD0A68531C0B601070704700009A
:1082000000B587B02548FDF71DFD01214802FDF7A7
:1082100065FD2348FCF71EFF01A8FCF77CFF00204A
:108220000190012069460872002003900590069095
:1082300001A91B48FCF754FF072202211848FCF74C
:108240009DFE072210211648FCF798FE07224021C8
:108250001348FCF793FE072280211148FCF78EFE9D
:108260000F48FCF707FF02210D48FCF7ABFE012188
:108270000B48FCF79BFE01210948FCF78BFE00BF71
:1082800008490748FCF714FF0028F9D00448FCF718
:108290003DFFFCF79FFE07B000BD0000004000015D
:1082A00000240140010000011CB5022000900321C0
:1082B0006846417101710021C17169460920C006FB
:1082C000FDF704FA10200090032168464171017106
:1082D0000021C17169460920C006FDF7F7F9402069
:1082E000009003216846417101710021C171694606
:1082F0000920C006FDF7EAF98020009003216846B6
:10830000417101710021C17169460920C006FDF764
:10831000DDF91CBD7047000004480078002804D136
:1083200003480068401C024908607047E8010020CB
:10833000300100201CB500241748007A012823D101
:10834000322416480088A04218DD322000F024FBB9
:1083500013A005F0CBFD322000F01EFB14A016493F
:1083600016A319A20091019019A10020FEF762F94D
:10837000002009490872094908800CE00748008874
:10838000401C0649088006E004480088002802D006
:108390000020024908801CBD1C1900204A02002050
:1083A00041542B504F433D3043303030300D0A00A4
:1083B0001B5B306D00000000360E00002E2E5C624C
:1083C00073705C75692E63001B5B343B34326D0047
:1083D00025732025732D25643A41545F54585F302E
:1083E000433030303025730D0A00000030B583B0C3
:1083F0000446FFF785FA05460020009002460190EA
:1084000021466846FCF785F92846FFF78FFA01995F
:10841000009803B030BD000010B50548407A002830
:1084200002D10BF0CFF902E000200AF0A9F910BD4B
:10843000DC18002010B50021084609F06FFB002071
:108440000549086748670846A0308078012802D1AE
:10845000002008F0EFFF10BD7C18002010B53F4849
:10846000407A012876D13D486038006F401C3B4976
:10847000603908673948807BFF2844D00846006F80
:108480006031897B88423ED334484030C07801282F
:1084900039D133480078232835D031480078242852
:1084A00031D02F48007825282DD02D4800780D2870
:1084B00029D02B4800780B2825D0294800780C2893
:1084C00021D02748007818281DD025480078192881
:1084D00019D0234800781A2815D0214800781B2885
:1084E00011D01F4800781C280DD00121002009F070
:1084F00015FB1C48807E002805D001211748C17358
:1085000004200EF063FC15486038006F052811D375
:1085100012484030C07800280CD112484038007D05
:10852000002807D10D4840308078002802D1012072
:1085300008F080FF09486038006F142806D007480B
:108540006038016F6030807B814205D109F07AFE8E
:1085500002E0FFE7FFF76EFF10BD0000DC1800200F
:10856000E8010020A215002070B5054600245B48F4
:1085700004889120000184421EDC062058490870BE
:10858000002004F0CBFF57480088401C5549088064
:108590000A2C04DA002008800EF0CAFC67E051487B
:1085A0000088FF21F531884261DB08464D4908808B
:1085B00001200EF0BDFC5AE000204A4908809120BD
:1085C0000001844207DD4848844204DC0020C043A7
:1085D000434908704BE044480A30844207DD952047
:1085E0000001844203DC00203D4908703FE03E4822
:1085F0002E30844207DD3C486730844203DC012092
:108600003749087033E038487130844207DD364816
:10861000AC30844203DC02203149087027E0324844
:10862000B630844207DD3048ED30844203DC03205D
:108630002B4908701BE02C48F730844206DD2B489C
:10864000844203DC04202649087010E027480A30E1
:10865000844206DD2648844203DC05202049087058
:1086600005E02348844202DD08201D490870012DE1
:1086700029D1204800781A4900228A56904207D012
:1086800000201D490880164800781A49087024E027
:1086900019480088401C184908800846008850285E
:1086A00009D116480078002817D00D490020085637
:1086B00000F012FB11E01048008850280DDD00206A
:1086C0000D49088009E0002D07D10C4800780028EA
:1086D00003D00349485700F0FFFA70BD660100203F
:1086E000D0000020D40000202C0900005F0A000008
:1086F000FE0B0000D1000020D2000020E801002085
:1087000010B50748407A002809D101200449487271
:1087100004480078012802D100200AF031F810BD89
:10872000DC180020E80100201CB51248007901285F
:1087300003D100200F4908711BE00E48007A012880
:1087400017D10A2001F0D0FB012812D1FFF772FEE9
:108750001E2000F021F908A005F0C8FB0AA0252181
:1087600089010BA30EA2009101900FA10020FDF73B
:1087700061FF1CBD1C19002041542B504F433D305C
:1087800043303030300D0A001B5B306D00000000BC
:108790002E2E5C6273705C706F632E6300000000AD
:1087A0001B5B343B34326D0025732025732D25640B
:1087B0003A41545F54585F30433030303025730DA8
:1087C0000A000000014600200F4A107000BF16E0AA
:1087D0000A5C002A05D00C4A1278521C0A4B1A7007
:1087E0000BE0421E8A5C002A07D10A5C002A04D1F1
:1087F000421C8A5C002A00D17047421CD0B2122869
:10880000E6DB01480078F7E74102002070B5264812
:108810000079002807D124484079002803D1224854
:108820008079002838D020490979E122120151438A
:108830001D4A52793C235A4389181B4A9279891858
:10884000481C1A49FBF784FC0C46E121090120462B
:10885000FBF768FC14490871E12109012046FBF788
:1088600061FC0D463C212846FBF75CFC0E49487133
:108870003C212046FBF756FC0B488171007900280B
:1088800009D109484079002805D107488079002896
:1088900001D108F0C3FB05E00020034908714871CD
:1088A0000120887170BD0000D600002080510100B9
:1088B000F3B587B00F460798002801D0002F03D1E9
:1088C0000020C04309B0F0BD0798FBF793FC401CA3
:1088D000059000200490012003903846059A0799DE
:1088E000FBF750FC29A13846FBF770FC0446002C2E
:1088F00014D13846FBF77EFCC019841E2046FBF7D6
:10890000A4FC02900298FBF73FFE0022204B01914D
:108910000090FBF7C1FD05460E4614E0E01B02285F
:1089200001DDA41E02E03C46002003902046FFF734
:108930005DFD05460E460022154B28463146FBF7E5
:10894000ABFD05460E462A46334612A12046FEF7E9
:1089500099FF0398002803D0611C2046FBF76CFCAC
:108960000AA13846FBF732FC04462046FBF742FCDE
:1089700004900498082806DD04980146083920462A
:108980000830FBF718FC01209CE700002E000000D7
:1089900000004E40256C660070B505462A4611A1C0
:1089A0000020FDF747FE1348807801280CD10024F1
:1089B00007E0002600E0761C7D20C0008642FAD346
:1089C000641CAC42F5D30BE0002407E0002600E075
:1089D000761C7D2080018642FAD3641CAC42F5D31C
:1089E00070BD000064656C61795F6D732825642932
:1089F0000D0A00001C19002070B505461E480078BD
:108A0000A84224DD00241EE0AC421ADBAC4218DB95
:108A1000621C33235A43184B5B1CD1183322624328
:108A2000D0183322FBF7AEFB13480078401EA0425B
:108A300007D133216143104A521C88183321FBF7B8
:108A4000BAFB601CC4B20C480078A042DCDC0B48C6
:108A5000407E012806D127200749087000200749D9
:108A6000487604E004480078401E0349087008F086
:108A7000ADFC08F00FFC70BDE7480020C750002097
:108A800070B5054619480078A84224DD00241EE090
:108A9000AC421ADBAC4218DB621C26235A43134B50
:108AA0005B1CD11826226243D0183322FBF76AFBE5
:108AB0000E480078401EA04207D1262161430B4A90
:108AC000521C88183321FBF776FB601CC4B20748A0
:108AD0000078A042DCDC05480078401E034908709D
:108AE00008F062FC08F0C8FB70BD00007A4100206D
:108AF00000B591B05B48FBF77DFB00287ED05A485B
:108B00000078282805DB00205749087001205749C4
:108B100048765549097833225143534A521C8918E3
:108B20000846123014224F49FBF72CFB4E490978B6
:108B3000332251434C4A521C881812224949123997
:108B4000FBF720FB402101A8FBF735FB46490978DC
:108B500033225143444A521C8918084626300C21BE
:108B6000FBF729FB424908790A21FBF7F1FA30307B
:108B7000C1B2684601713E4908790A21FBF7E8FA5B
:108B80003031684641713A218171394948790A2169
:108B9000FBF7DEFA3030C1B26846C171344948791A
:108BA0000A21FBF7D5FA3031684601720221417281
:108BB0002F4988780A21FBF7CBFA3030C1B26846DA
:108BC00081722B4988780A21FBF7C2FA3031684656
:108BD000C1722D2101732649C8780A21FBF7B8FA22
:108BE0003030C1B2684641732149C8780A21FBF789
:108BF000AFFA303168468173002100E030E0C17384
:108C00001949097833225143174A521C89180846DA
:108C100026300C2201A9FBF7B5FA12482D38807EC8
:108C200002280AD1012210480078332148430E4916
:108C3000491C40182030827409E000220A4800785C
:108C4000332148430849491C4018203082740648A3
:108C50000078401C0449087008F0B8FB08F01AFBC3
:108C600011B000BD09190020E7480020C7500020BE
:108C7000D600002010B51649097826225143144A1F
:108C8000521C881812221349FBF77CFA1049097804
:108C9000262251430E4A521C8918084612301422CB
:108CA0000C491231FBF76EFA12210A48FBF783FADE
:108CB000142108481230FBF77EFA05480078401C62
:108CC0000349087008F070FB08F0D6FA10BD0000E8
:108CD0007A410020544100203EB50446601C030048
:108CE000FEF7FBFD0A061825323F4C59667886943C
:108CF0004EA1022005F0C4FA54481F21C9021022D7
:108D00001423009201910290514A00218C2002F01C
:108D1000A2FD88E04D484F49102214230092019192
:108D200002904B4A00218C2002F095FD7BE04748E1
:108D3000484910221423009201910290464A0021D2
:108D40008C2002F088FD6EE0404842491022142336
:108D5000009201910290414A00218C2002F07BFD9B
:108D600061E03A483B49102214230092019102909D
:108D70003B4A00218C2002F06EFD54E03348354917
:108D800010221423009201910290364A00218C2077
:108D900002F061FD47E02D482E4910221423009275
:108DA00001910290304A00218C2002F054FD3AE0FB
:108DB0001EA1022005F064FA24481F21C9021022D6
:108DC0001423009201910290284A00218C2002F085
:108DD00042FD28E01D481F21C902102214230092E1
:108DE00001910290214A00218C2002F034FD1AE00A
:108DF00016481F21C90210221423009201910290EB
:108E0000194A00218C2002F026FD0CE00F48114980
:108E100010221423009201910290144A00218C2008
:108E200002F019FD00BF00BF3EBD000037353335ED
:108E30003931434634463445464630433842463756
:108E40003531343537353335000000003A3900000C
:108E500054C20108FFFF00007CC20108A4C201083F
:108E6000CCC20108F4C201081CC3010844C30108B4
:108E70001FB5044665480078002818D101206349D1
:108E8000087063480121092207230093019202918F
:108E9000039004230C221946022003F073FD5C4862
:108EA0000223062209210090104603F079FE2300D8
:108EB000FEF713FD050425466788A90055480223DF
:108EC00005220A210090092003F06AFE514802237E
:108ED0000722082100900D2003F062FE4D48022376
:108EE000092206210090112003F05AFE494802236E
:108EF0000B2204210090152003F052FE84E0444828
:108F0000022305220A210090092003F049FE41486E
:108F100002230722082100900D2003F041FE3D4866
:108F20000223092206210090112003F039FE39485E
:108F300002230B2204210090152003F031FE63E090
:108F40003348022305220A210090092003F028FE5D
:108F50002F4802230722082100900D2003F020FE55
:108F60002C480223092206210090112003F018FE4C
:108F7000284802230B2204210090152003F010FE44
:108F800042E02348022305220A210090092003F031
:108F900007FE1F4802230722082100900D2003F03E
:108FA000FFFD1B480223092206210090112003F037
:108FB000F7FD184802230B2204210090152003F02E
:108FC000EFFD21E01248022305220A21009009202A
:108FD00003F0E6FD0E4802230722082100900D2031
:108FE00003F0DEFD0A480223092206210090112029
:108FF00003F0D6FD064802230B2204210090152021
:1090000003F0CEFD00E000BF00BF1FBDEC0100205B
:10901000FFFF00003A3900003EB50446002C04D0A2
:10902000012C0ED0022C27D119E015480C220190FA
:10903000134600920290134A02216C2002F00BFCAE
:109040001BE00F481F21C9020C2213460092019118
:1090500002900C4A02216C2002F0FDFB0DE0084852
:1090600009490C221346009201910290054A0221FF
:109070006C2002F0F0FB00E000BF00BF3EBD00002E
:109080003A390000ACC40108FFFF00003EB50446B9
:10909000022C04D0032C0FD0042C27D119E01B483C
:1090A0001B491CA203230092019102901A22002165
:1090B000084603F075FC26E01448154916A2032360
:1090C0000092019102901A220021084603F068FCE8
:1090D00019E00E480E4911A203230092019102905B
:1090E0001A220021084603F05BFC0CE007480849FF
:1090F0000BA203230092019102901A22002108463C
:1091000003F04EFC00BF00BF3EBD00003A39000036
:10911000FFFF0000324700003347000034470000E3
:10912000202000003EB504460D4616480068401C4D
:109130001449086008460068134988420DD1134855
:109140001F21C90212A22B460092019102902246D1
:109150000021012003F024FC12E00A4800680D49B8
:1091600088420DD1002007490860084808A20190F4
:109170002B460092029022460021012003F010FCB1
:109180003EBD00002802002088130000FFFF000001
:109190007C000000102700003EB504462300FEF7C7
:1091A0009CFB0A0614212E3B4855626F7C8943487C
:1091B0001F21C90210221346009201910290404AD9
:1091C0000021782002F047FB75E03C483D49102221
:1091D00013460092019102903B4A0021782002F050
:1091E0003AFB68E035483749102213460092019156
:1091F0000290364A0021782002F02DFB5BE02F48D8
:10920000304910221346009201910290304A002109
:10921000782002F020FB4EE028482A49102213460D
:109220000092019102902B4A0021782002F013FB5A
:1092300041E02248234910221346009201910290F6
:10924000254A0021782002F006FB34E01B481D4926
:1092500010221346009201910290204A00217820AA
:1092600002F0F9FA27E01548164910221346009239
:10927000019102901A4A0021782002F0ECFA1AE0DB
:109280000E48104910221346009201910290154A8F
:109290000021782002F0DFFA0DE008480949102289
:1092A00013460092019102900F4A0021782002F0AB
:1092B000D2FA00E000BF00BF3EBD00003A39000016
:1092C0006CC30108FFFF00008CC30108ACC3010898
:1092D000CCC30108ECC301080CC401082CC401086C
:1092E0004CC401086CC401088CC4010810B590B0CE
:1092F0001C22234904A8FAF745FF2248007D0128D3
:109300003BD12048C030C07B002836D114210BA8A7
:10931000FAF751FF1C48C07800901B4883780288F8
:109320001AA10BA8FEF7AEFA1B481C490BAA73231F
:1093300000920191029000220121104603F030FBBF
:109340001149C979890004AA5058FAF753FF062138
:109350004843A021081A401F84B20F490F4A0A4807
:10936000C079800004AB18587323019202910090D9
:1093700022460021084603F013FB10B010BD000088
:109380005C7A01081C180020D600002025642D25D9
:10939000642D2564000000003A390000FFFF000042
:1093A000FFB58DB00446154600200C900026AC4257
:1093B00004DA27460A950E980B9003E02F460A948C
:1093C00010980B903E4638E00E98FBF7F1F80391A9
:1093D00002901098FBF7ECF801910090039B029A21
:1093E000FAF7E4FF07910690281BFBF7CDF80391ED
:1093F0000290F01BFBF7C8F801910090039B029AC2
:10940000FBF74AF805910490079B069AFAF7DCFFF0
:1094100009910890FBF7DAF80C901698C0B200900A
:109420000B990C980818C0B20990F0B2012308906B
:10943000179A099903F01FFD761C0A988642C3DD2E
:1094400011B0F0BDF0B587B00446382523265B483F
:109450000078002816D1002C13D059481F21C902CA
:1094600058A233460092019102902A4600210846F4
:1094700003F096FA01205149087055480068554993
:10948000086098E0002C14D14D481F21C90252A257
:1094900033460092019102902A460021084603F0CB
:1094A0007FFA0020454908704E4908604E4908601F
:1094B00081E047490968474A1268881A7D21C90036
:1094C000FAF730FE47490860474800680968884253
:1094D00071D03CA211685068926806920491059080
:1094E000404800684049086040493E480068FAF733
:1094F00019FE3030C1B268460174E12109013948D2
:109500000068FAF70FFE07460A21FAF70BFE303122
:10951000684641743A218174E121090131480068AB
:10952000FAF700FE0F464B21C9003846FAF7FAFD5C
:109530003030C1B26846C174E12109012948006890
:10954000FAF7F0FD03913C210398FAF7EBFD07468B
:109550000A21FAF7E7FD3031684601753A21417575
:109560003C2120480068FAF7DDFD0F460A21384605
:10957000FAF7D8FD01463031684681753C2119481B
:109580000068FAF7CFFD0F460A213846FAF7CAFD00
:1095900030316846C1750021017609481F21C90292
:1095A00004AA33460092019102902A4600210846FF
:1095B00003F0F6F900BF07B0F0BD00006402002020
:1095C000FFFF000030303A30303A30300000000009
:1095D000C800002068020020202020202020202019
:1095E000000000005C02002060020020A08C00004F
:1095F00030B585B004465C480078002820D1002CA6
:109600001DD0039004905948028859A103A8FEF781
:1096100039F958481F21C90203AA0092019102900A
:1096200055480378554802780021084603F0B8F9F8
:1096300001204D490870524800685249086091E085
:10964000002C12D14B481F21C9024FA20092019158
:10965000029049480378494802780021084603F0FF
:109660009FF90020404908707CE045490968454A57
:109670001268881A7D21C900FAF754FD0546FF21BA
:10968000FAF750FD4248017000783849098888424D
:1096900068DC364800783E490978401A3C49087031
:1096A0003C480078097888425CD03BA103C904910A
:1096B00003903748007837490870642134480078AF
:1096C000FAF746FD3030C1B2684601730A213048CE
:1096D0000078FAF73DFD05460A21FAF739FD3031E9
:1096E000684641730A212A480078FAF731FD303183
:1096F000684681737321C17300210174007B302897
:109700000ED16846407B30280AD06846417B017301
:10971000817B4173732181732021C1730021017406
:109720006846007B30280DD16846407B302809D13F
:109730006846817B0173732141732021817300216D
:10974000C17301740B481F21C90203AA0092019141
:10975000029009480378094802780021084603F07E
:109760001FF900BF05B030BD4C020020560200209A
:1097700025647300FFFF0000550200205402002002
:10978000C8000020500200202020202000000000FF
:1097900058020020590200203030307300000000D1
:1097A0003EB504464248007D01287DD14149887973
:1097B0000A21FAF7CDFC30303F4908703D498879DD
:1097C0000A21FAF7C5FC3031C8B23B494870394923
:1097D00048790A21FAF7BCFC30303849087035491D
:1097E00048790A21FAF7B4FC3031C8B233494870DD
:1097F000304908790A21FAF7ABFC3030304908705B
:109800002C4908790A21FAF7A3FC3031C8B22C4957
:109810004870084600782B490978884207D12848C3
:10982000407828494978884201D1002C1DD025482C
:1098300023490A7802704978417023482349204A15
:10984000032300920191029042220021084603F076
:10985000A7F81D481D491EA2032300920191029002
:109860004E220021084603F09BF81448007819495D
:109870000978884207D111484078164949788842CA
:1098800001D1002C13D013480C490A780270497892
:1098900041700D480D49094A03230092019102903D
:1098A00054220021084600E001E003F079F83EBDB3
:1098B0001C180020D6000020EA000020E400002050
:1098C000DE000020E10000203A390000FFFF000028
:1098D0003A000000E7000020FFB581B004460D46C5
:1098E00016462A2003F0FCFC2746E117090EC91989
:1098F0000904080E03F056FDE117090EC9190912F3
:109900000902611AC8B203F04DFDA719F917090E33
:10991000C9190904080E03F045FDA719F917090E26
:10992000C91909120902791AC8B203F03BFD2B20AC
:1099300003F0D6FC2F46E917090EC9190904080ED1
:1099400003F030FDE917090EC91909120902691A55
:10995000C8B203F027FD04996F18F917090EC91949
:109960000904080E03F01EFD04996F18F917090E7B
:10997000C91909120902791AC8B203F013FD05B01A
:10998000F0BD00001CB5284807F038FC022000900C
:1099900000216846417101710121C1716946224867
:1099A000FBF794FE204807F029FC012000900021DD
:1099B0006846417101710121C17169461A48FBF77E
:1099C00085FE1A4807F01AFC012000900021684625
:1099D000417101710121C17169461448FBF776FE9E
:1099E0000920C00607F00AFC2020009000216846EC
:1099F000417101710121C17169460920C006FBF75F
:109A000065FE0920C00607F0F9FB0120C0030090A5
:109A100000216846417101710121C1716946092027
:109A2000C006FBF753FE1CBD0014004800040048AC
:109A30001CB54A4807F0E2FB0120400300900021DA
:109A40006846417101210171C17169464348FBF7C4
:109A50003DFE012149034148FBF7ACFE3F4807F0BA
:109A6000CDFB012080030090002168464171012157
:109A70000171C17169463948FBF728FE012189034C
:109A80003648FBF797FE354807F0B8FB0120C003C6
:109A9000009000216846417101210171C171694640
:109AA0002E48FBF713FE0121C9032C48FBF782FE69
:109AB0002B4807F0A3FB0420009000216846417169
:109AC00001210171C17169462548FBF7FFFD0421A1
:109AD0002348FBF771FE224807F090FB022000901C
