:020000040800F2
:10400000105A0020CD4000089D4A0008D141000808
:1040100000000000000000000000000000000000A0
:104020000000000000000000000000001F56000813
:1040300000000000000000004F410008E9560008A1
:10404000FD40000800000000D94F0008FD400008B6
:10405000FD40000825470008394700084D47000883
:1040600000000000E7440008F7440008F944000895
:10407000FD400008FD400008FD4000080000000071
:10408000FD40000825580008FD400008FD400008DC
:10409000FD400008FD400008FD400008FD4000080C
:1040A000FD400008FD400008FD400008955900084B
:1040B0002D5A0008FD4000080348854600F0FCF832
:1040C0000048004733430008105A00200C4880F392
:1040D00008880C480168090E0B4A914205D10B482B
:1040E0000B4901600B480C4901600C4880470C48A3
:1040F0000047FEE7FEE7FEE7FEE7FEE7FEE700001B
:10410000105A0020040000001F0000001810024098
:10411000010000000000014000000000A957000855
:10412000B9400008EFF3108072B6704780F3108832
:1041300070472A4A1368012B03D001231360284AD1
:104140001060284A11602848284901607047EFF341
:10415000108272B62148016800291DD0002101603B
:104160001F48016800290AD0EFF30981203900684F
:104170000160F0C144464D4656465F46F0C11949BC
:1041800009680968F0C9F0B4F0C9A046A946B2466A
:10419000BB46F0BC81F3098882F3108804204042BA
:1041A0000047104908600E49002008600B490120B3
:1041B00008600F480F490268114301600A480B4923
:1041C00001600D480068006880F3088862B6704797
:1041D000EFF3098000B504F0DFF800BD1402002001
:1041E0000C0200201002002004ED00E0000000108E
:1041F00020ED00E00000FF0008ED00E030B50B46C8
:10420000014600202022012409E00D46D5409D42B0
:1042100005D31D469540491B254695404019154636
:10422000521E002DF1DC30BD70B50024254600285B
:1042300001DA01244042002901DA01254942FFF751
:10424000DDFFAC4200D04042002C00D0494270BD9E
:1042500003460B439B0703D009E008C9121F08C09F
:10426000042AFAD203E00B780370401C491C521E4A
:10427000F9D27047D2B201E00270401C491EFBD255
:1042800070470022F6E710B513460A460446194661
:10429000FFF7F0FF204610BD421C0178401C0029AA
:1042A000FBD1801A704703460A780270401C491CF3
:1042B000002AF9D118467047064C0125064E05E044
:1042C000E36807CC2B430C3C98471034B442F7D337
:1042D000FFF7F6FE543301088433010870B58C18DB
:1042E0000578401C6B075B0F01D10378401C2A1135
:1042F00006D10278401C03E006780E70401C491C71
:104300005B1EF9D12B0705D40023521E0DD40B7070
:10431000491CFAE70378401CCB1A921C03E01D7875
:104320000D70491C5B1C521EF9D5A142D8D3002048
:1043300070BD10B504F0CCFF002010BD10B50B46C9
:104340000021846A1C43846200BF0C46144321464A
:10435000416110BD002904D0826801231A438260A4
:1043600003E0826802231A4382607047002904D068
:10437000C26801231A43C26003E0C26852085200B7
:10438000C2607047C26802239A43C260C2680A438F
:10439000C260704700B58DB00121084600F01EFCD8
:1043A000194800F0C9F819480290194803900020F4
:1043B0000490042005900020069080200790400083
:1043C00008908000099020200A9000020B900020A5
:1043D0000C9002A90C4800F085F9022000F08EF83C
:1043E00001220221084800F073F909216846017191
:1043F00001218171417101A800F060FB0121024897
:1044000000F08CF80DB000BD0800024040240140CF
:10441000FA00002010B504460548844207D1012166
:10442000401500F01BFC0021601500F017FC10BDCA
:104430000024014030B501460020002200238C6892
:104440000125ED072C438C6000BF8C68E30FDB0770
:10445000521C0F242403A24201D0002BF5D18C68FA
:10446000E40FE407002C01D1086C00E0002030BD0F
:1044700030B5024600200023012424060C40002C05
:1044800005D0946801252D06AC43234600E013684F
:104490001C460C40002C01D0012000E0002030BD63
:1044A00010B50022C268084B1A400C7964030B68EF
:1044B00023438C682343CC6823430C6923434C6912
:1044C00023431A43C26010BD03D2FFFF8168042258
:1044D0001143816070470021016001718160C160FA
:1044E00001614161704710B5022000F0D7F8022049
:1044F00000F004F810BD7047704700000121090763
:104500000140002902D00349486001E002494860A7
:10451000704700000004024000000240002904D05F
:10452000026801231A43026003E00268014B1A404B
:1045300002607047FEFF00000168554A11400160AB
:104540000021016041608160C1605249884208D108
:104550005049083949680F2211434E4A083A5160C0
:1045600094E04C491431884208D14A4908394968D5
:10457000F0221143474A083A516087E04549283103
:10458000884209D14349083949680F221202114370
:10459000404A083A516079E03E493C31884209D1AD
:1045A0003C49083949680F2212031143394A083A35
:1045B00051606BE037495031884209D1354908399B
:1045C00049680F2212041143324A083A51605DE0F3
:1045D00030496431884209D12E49083949680F228F
:1045E000120511432B4A083A51604FE029497831AE
:1045F000884209D12749083949680F221206114318
:10460000244A083A516041E02349884208D12249AE
:10461000083949680F2211431F4A083A516035E0B2
:104620001D491431884208D11B4908394968F022D4
:104630001143194A083A516028E017492831884245
:1046400009D11549083949680F2212021143124A4B
:10465000083A51601AE010493C31884209D10E49AC
:10466000083949680F22120311430B4A083A516076
:104670000CE009495031884208D107490839496896
:104680000F2212041143044A083A51607047000097
:10469000FEFF00000800024008040240014600201E
:1046A000002201231B070B40002B02D0064B1A6887
:1046B00001E0064B1A6813460B40002B01D0012085
:1046C00000E00020704700000004024000000240AB
:1046D000002A03D003680B43036002E003688B43A6
:1046E0000360704710B5002202680D4B1A400C6A37
:1046F0008B6823430C6923434C6923438C69234310
:10470000CC6923434C6A23438C6A23431A430260D7
:10471000CB6843600B6883604B68C36010BD0000CA
:104720000F80FFFF10B5034800F038F8014800F093
:104730002FF810BDF0FF000010B5034800F02EF870
:10474000014800F025F810BDF0FF000010B5012071
:10475000C00200F029F8002805D002F09DFC0120DD
:10476000C00200F015F80120000300F01DF8002839
:1047700005D002F0D5FC0120000300F009F8034841
:1047800000F00CF8014800F003F810BDF0FF000045
:104790000149486170470000000401400149486137
:1047A000704700000004014001460020044A52699D
:1047B0000A40002A01D0012000E0002070470000DC
:1047C00000040140002120498279002A35D00A46A0
:1047D000126803689A430B461A600A4652680368D7
:1047E0009A430B465A60027951180A6803681A43C3
:1047F0000A60154A926803689A43134B9A601A46F6
:10480000D26803689A43104BDA604279102A0CD1BF
:104810001A46926803681A430B4B9A601A46D2688C
:1048200003681A43084BDA600DE0074942795118D2
:104830000A6803681A430A6005E0027951180A6899
:1048400003689A430A607047000401400149C86048
:10485000704700000020024030B5044604250B20BC
:10486000000400F08FF80546042D17D10C480069AC
:10487000022108430A490861084644610069402151
:104880000843074908610B20000400F07BF8054647
:10489000034800690221884301490861284630BD68
:1048A0000020024004200D49C968C907C90F00292A
:1048B00001D0012010E00949C968102211400029E7
:1048C00001D0022008E00549C968042211400029EE
:1048D00001D0032000E004207047000000200240C7
:1048E00003480069802108430149086170470000BE
:1048F0000020024078B506460C46042500200090B2
:104900000B20000400F03EF80546042D24D1134886
:104910000069012108431149086134800B2000041B
:1049200000F030F80546042D10D1B01C0090200C8A
:10493000009908800B20000400F024F80546074881
:104940000069400840000549086105E00348006926
:104950004008400001490861284678BD0020024017
:104960000548006980210840002804D00348024916
:1049700048600348486070470020024023016745B3
:10498000AB89EFCD10B503460424FFF78BFF044637
:1049900003E0FFF787FF04465B1E012C01D1002BCB
:1049A000F7D1002B00D10524204610BDF0B50A46F2
:1049B00000210023002400BF3DE001258D402B464F
:1049C00015681D402C469C4234D11579012D02D02A
:1049D0001579022D16D185684F000326BE40B543D8
:1049E000856055794E00B540866835438560858879
:1049F00001268E40B5438580858896798E40B6B273
:104A00003543858005684F000326BE40B5430560E9
:104A100015794E00B540066835430560C5684F00FE
:104A20000326BE40B543C560D5794E00B540C66883
:104A30003543C560491C1029BFD3F0BDF0B5002334
:104A400000244D07EE0E1546B5402B46CD10AE00A6
:104A500005462035AD594E07F70E0F26BE40B5432B
:104A6000CE10B60007462037BD51CD10AE003D46F2
:104A7000AD591D432C46CD10AD003E467451F0BDDE
:104A800002460020138A0B40002B01D0012000E0D9
:104A900000207047018570478161704772B600BF82
:104AA000BFF34F8F03480449C860BFF34F8F00BF67
:104AB00000BFFEE70400FA0500ED00E00021827867
:104AC000002A27D0184A03231B02D21803789B1010
:104AD0009B00D15802789207D30EFF229A400B46D2
:104AE0009343194642789207120E03789B07DB0E18
:104AF0009A4011430C4A03231B02D21803789B10DF
:104B00009B00D1500278D306DB0E01229A40064B5F
:104B10001A6007E00278D306DB0E01229A40024BAE
:104B200080331A607047000000E100E010B50028F3
:104B300019DA1A4A03071B0F083B9B089B00D2583F
:104B40008307DC0EFF23A3409A438B071B0E8407C9
:104B5000E40EA3401A43114B0407240F083CA40899
:104B6000A4001A5118E00E4A03231B02D21883082E
:104B70009B00D2588307DC0EFF23A3409A438B0788
:104B80001B0E8407E40EA3401A43054B03242402A2
:104B90001B198408A4001A5110BD00001CED00E090
:104BA00000E100E00C4949680122920391430A4A5E
:104BB00051601146496882B21143074A516011465B
:104BC000096B92159143044A11631146096B020C5B
:104BD0001143014A1163704700100240002905D0BB
:104BE000054A52690243044B5A6104E0024A526981
:104BF0008243014B5A61704700100240002905D0E2
:104C0000054AD2690243044BDA6104E0024AD269E0
:104C10008243014BDA61704700100240002905D041
:104C2000054A12690243044B1A6104E0024A126900
:104C30008243014B1A61704700100240002905D0E1
:104C4000054A92690243044B9A6104E0024A926960
:104C50008243014B9A61704700100240002905D041
:104C6000054AD2680243044BDA6004E0024AD26883
:104C70008243014BDA60704700100240FEB50446E3
:104C80000025002600200290019000900027864811
:104C900040680C2108400546002D06D0042D07D0A1
:104CA000082D08D00C2D2CD128E0804820602BE066
:104CB0007E48206028E07C4840680F218904084035
:104CC0000646794840680321C90308400290B00CA9
:104CD000861C0298002803D17548374647430BE0ED
:104CE0007148C06A0007000F401C01906F4801998D
:104CF000FFF784FA70430746276005E06D4820609F
:104D000002E06A48206000BF00BF67484068F021A9
:104D1000084005462D096848405D009020680099CC
:104D2000C8406060604840680721090208400546A5
:104D30002D0A6148405D009061680098C140A16003
:104D40005948006BFF2101310840884202D05B487E
:104D5000E0600DE054484068012189030840884222
:104D600003D0A0684008E06002E0A0688008E0602E
:104D70004D48006B40210840402802D05048206137
:104D800002E00120C00320614748006B1021084069
:104D9000102802D04548606101E020686061424807
:104DA000006B8007800F002802D1A068A06119E085
:104DB0003D48006B8007800F012802D12068A06168
:104DC00010E03948006B8007800F022802D1800371
:104DD000A06107E03448006B8007800F032801D1F1
:104DE0003248A0613048006B0321090408400028C4
:104DF00002D1A068E06120E02B48006B0321090488
:104E0000084001210904884202D12068E06114E0D1
:104E10002548006B03210904084001214904884208
:104E200002D18010E06108E01F48006B03210904F3
:104E30000840884201D11D48E0611B48006B0321F6
:104E400089040840002802D1A068206220E01648AA
:104E5000006B03218904084001218904884202D1A2
:104E60002068206214E01048006B03218904084088
:104E70000121C904884202D10011206208E00A48D9
:104E8000006B032189040840884201D10748206251
:104E90000548006B80210840802802D005486062E8
:104EA00000E06762FEBD00000010024000127A00C0
:104EB00000093D00006CDC02E6010020809FD50067
:104EC00012800000014600BFF020084000110A23B4
:104ED000584302460807000F8018C0B270470146C9
:104EE000002204E0501CC2B208460A38C1B20A29A6
:104EF000F8DA1007000E08437047000010B50021D3
:104F0000010980220A4392B2D243044BDB68802419
:104F100023401A43014BDA6010BD00000028004016
:104F200008B50022009200200021124AD2684023D6
:104F30001A40002A1BD1421E0E4BDA6000BF0D4AF8
:104F4000D26840231A401146009A521C00921B025C
:104F5000009A9A4201D00029F1D0064AD268402333
:104F60001A40002A01D0012002E0002000E00120C8
:104F700008BD0000002800400348C0688021884325
:104F80000149C860704700000028004070B5014624
:104F90000020002200230F4C246804252C402246C8
:104FA0000C4C403CA4680C408E0C0D46F540ED0BBB
:104FB00015402C432346074C403CE4680D092C4027
:104FC0002246002B04D094B2002C01D0012000E036
:104FD000002070BD4028004008B501200003FFF705
:104FE000D5FF00280AD000216846C17001704170C9
:104FF00081706946012000F00BF800BF012000031A
:10500000FFF77CFF01204004FFF7C8FB08BD00004C
:10501000F8B505460C46002600200090002D0AD168
:105020002F48806840210840002800D002E000207E
:10503000E07000BF0EE02A48806840210840002848
:1050400004D02078FFF73EFF064602E00020E07023
:1050500000BF00BF002D0BD020780004617809024A
:105060000843A1780843E17809040843064610E0A4
:105070002078FFF734FF07046078FFF730FF000265
:105080000743A078FFF72BFF0743E07800040743AE
:105090003E46CA201249486253204862FFF740FF4B
:1050A000002801D1009016E00E4830400C490860FD
:1050B000FFF762FF0A48806820210840002808D1D5
:1050C00000F012F8002801D1009004E001200090C7
:1050D00001E001200090FF20014948620098F8BDDE
:1050E000002800407F7F7F0008B50022009200204A
:1050F0000021174A926820231A40002A01D001207B
:1051000025E0CA22124B5A6253225A621A46D268CA
:10511000A0239A430E4BDA6000BF0D4AD2682023C9
:105120001A401146009A521C00929B02009A9A4221
:1051300001D00029F1D0064AD26820231A40002A63
:1051400001D0012000E00020FF22014B5A6208BD7F
:1051500000280040FFB581B004460E46174600BF48
:1051600020480078002801D100F020FE00BF1D4833
:105170004069A04230D9EFF310810846012181F344
:10518000108800BF00BF002C18D018216143154AB9
:10519000603256501821614389184F6018226243CB
:1051A000104B6033D218049991600022182161439A
:1051B000C9180A6118216143C918CA6018226243DC
:1051C000084B6033D2180A995161C1B281F310883B
:1051D00000BF00BF002501E00025ED43284605B0D3
:1051E000F0BD000024510020FFB581B004460E46FA
:1051F000174600BF20480078002801D100F0D6FDF6
:1052000000BF1D480069A04230D9EFF31081084665
:10521000012181F3108800BF00BF002C18D0182195
:105220006143154A183256501821614389184F605E
:1052300018226243104B1833D2180499916000224F
:1052400018216143C9180A6118216143C918CA604D
:1052500018226243084B1833D2180A995161C1B21F
:1052600081F3108800BF00BF002501E00025ED4359
:10527000284605B0F0BD000024510020FEB50446CC
:1052800000BF21480078002801D100F08FFD00BF49
:105290000027FF2069460871102C30DA1B48005D9A
:1052A0004871194D1835EFF310800090012080F3FC
:1052B000108800BF00BF287D8007800F022807D11B
:1052C00013480470022201A9284600F007FF0FE0EE
:1052D000284600F0A3FD0646022E07D30C480470B2
:1052E000022201A9284600F036FF01E00027FF4313
:1052F0000098C0B280F3108800BF00BF01E0002713
:10530000FF433846FEBD000024510020D501002097
:10531000E5010020F8B504460D46164600BF0E48CC
:105320000078002801D100F041FD00BFEFF31080AC
:105330000746012080F3108800BF00BF324629468F
:10534000204600F00BF80090F8B280F3108800BF00
:1053500000BF0098F8BD000024510020F7B582B0CE
:105360000746164603980190182078431B494018B9
:10537000009000984069002804D0012811D002282C
:1053800026D11EE0009800F049FD0546B54201D245
:10539000002405E0344632460199009800F0DBFE17
:1053A00018E0009800F03AFD0546B54201D22846C3
:1053B00000E03046044622460199009800F0CBFEFA
:1053C00008E032460199009800F088FE044601E0AA
:1053D000002400BF00BF204605B0F0BD3C510020B6
:1053E0000FB438B50446002506A800906A4620464A
:1053F000059900F008F8054600200090284638BCC2
:1054000008BC04B01847F7B59AB00D46144602A878
:10541000159040201690002017901A98199000209F
:10542000189000BF2E786D1C002E00D1E4E0252ED0
:1054300079D100270120149000BF2E78232E12D09E
:105440002B2E0CD02D2E02D0302E10D103E00120B7
:1054500007436D1C0EE0022007436D1C0AE0042088
:1054600007436D1C06E0082007436D1C02E0002086
:10547000149000BF00BF14980028DED1129000BF26
:105480002E78302E01DB392E00DD08E06D1C0A215C
:10549000129848433146303940181290F0E700BF67
:1054A000002013902E782E2E11D16D1C00BF2E7867
:1054B000302E01DB392E00DD08E06D1C0A21139827
:1054C00048433146303940181390F0E700BF2E783A
:1054D00000BF6C2E01D0682E02D16D1C2E7800E02A
:1054E00000E0F6E700BF702E63D008DC252E72D0F6
:1054F000582E38D0632E09D0642E71D114E0732E4B
:1055000040D0752E1FD0782E6AD12BE02168081D5F
:105510002060086814901498C0B2019015A80199F1
:1055200000F0A0FD5DE05FE02168081D20600868D4
:1055300014901298019700900A2215A8139B1499B1
:1055400000F07AFC4DE02168081D20600868149086
:105550001298019700900A2215A8139B149900F045
:10556000F3FC3EE000BF2168081D2060086814902D
:10557000129801970090102215A8139B149900F01F
:10558000E3FC2EE02168081D20600868019000BF40
:10559000019806780198401C0190002E00D106E089
:1055A000314615A800F05EFD18980028F0DA00BF1B
:1055B00017E02168081D2060086814900020082169
:1055C0000B4610220091019015A8149900F0BCFC24
:1055D00007E000E004E0252115A800F043FD00E00D
:1055E00000BF00BF6D1C03E0314615A800F03AFD76
:1055F0001898002800DB15E700BF189800280BDD7D
:105600001798002804D002A9179A1A98FFF782FE6B
:10561000179918984018189018981DB0F0BD704749
:1056200030B500228B071C0F0F23A3401A460B4BEB
:105630008C10A4001B599343084C8D10AD0063518E
:1056400023468C10A4001B598C07250F0446AC4040
:105650002343024C8D10AD00635130BD0800014062
:105660000CB500200190009011201D4908601D48D4
:1056700040681C49486008464068486008464068E1
:105680007F21C903884317494860084640680521BF
:10569000C904084313494860084600680121090607
:1056A00008431049086000BF0E4800680121490600
:1056B00008400028F8D00B4840688008800009495D
:1056C000486008464068022108430649486000BF18
:1056D000044840680C2108400828F9D10CBD00009E
:1056E000002002400010024010B502F0EDFE03F071
:1056F000FDFA02F0F9FE10BDF8B5002500240026E1
:105700000027244840680C2108400546002D04D09D
:10571000042D06D0082D2AD107E01F481F49086034
:1057200029E01D481D49086025E01A4840680F21FE
:10573000890408400446174840680321C90308400B
:105740000646A00C841C002E04D115486043134962
:1057500008600BE00F48C06A0007000F471C39467D
:105760000D48FEF74BFD60430C49086003E00A4812
:105770000A49086000BF00BF06484068F0210840A1
:10578000000908490D5C05480068E84003490860C5
:10579000F8BD00000010024000127A00F80100205D
:1057A00000093D00FC01002010B51B4800680121E4
:1057B00008431949086008464068184908401649D6
:1057C00048600846006816490840134908600846C2
:1057D00000680121890488430F4908600846406831
:1057E0003F21090488430C4948600846C06A000903
:1057F0000001C8620846006BFF2154318843064906
:1058000008630846406B40084000486300208860F9
:10581000FFF726FF10BD0000001002400CB8FF0883
:10582000FFFFF6FE10B50121064800F057F80028EA
:1058300007D001F0A5F901F0D9FA0121014800F0E3
:105840003CF810BD001000401FB50024002117488F
:1058500000F036F801211020FFF7D0F91121684639
:105860000170012141708170FFF728F9012400BF08
:10587000092002900E496846818000218181C18003
:1058800001A90A4800F048F80121084800F012F880
:1058900001221146054800F034F80020034948620F
:1058A0000121024800F00CF81FBD0000001000406C
:1058B000BF120000CA4302827047CA430282704787
:1058C000002904D0028801231A43028003E00288E1
:1058D000014B1A4002807047FEFF000030B50246BF
:1058E000002000230024158A0D402B4695890D4089
:1058F0002C46002B03D0002C01D0012000E000201A
:1059000030BD002A03D083890B43838102E0838961
:105910008B4383817047000000220288154B984218
:1059200006D001239B07984202D0134B984203D123
:10593000124B1A404B881A43114B984203D0114B1B
:105940001A400B891A4302804B68C3620B88038597
:10595000084B984208D00C4B984205D00B4B98420C
:1059600002D00B4B984201D18B7A038601238382AC
:1059700070470000002C0140000400408FFF000031
:1059800000100040FFFC00000040014000440140C6
:105990000048014010B52049204800F033F90028A4
:1059A00034D01D491D4800F08BF81D490988481C5A
:1059B000C117490D0918C912C902411A184A52885B
:1059C00091420CD0154800F0E1F9C1B214480288A8
:1059D0000088401C124B18801248815402E00F4886
:1059E00000F0D4F90E490888C117490D0918C912E9
:1059F000C902411A0A4A118001201146087120216A
:105A0000064800F05BF80320074908800021C943DD
:105A1000024800F053F810BD0501050000380140B0
:105A2000840A002084020020C400002010B51F4911
:105A30001F4800F0E7F8002831D01C491C4800F04E
:105A40003FF81C490988481CC117490D0918C9129B
:105A5000C902411A174A528891420CD0144800F0EA
:105A600095F9C1B2134802880088401C114B188078
:105A70001148815402E00E4800F088F90D49088869
:105A8000C117490D0918C912C902411A094A1180E2
:105A90000120114608712021054800F00FF800216F
:105AA000C943034800F00AF810BD000005010500D5
:105AB00000440040D8140020D80C00200162704738
:105AC00010B5002300220B0C01249C4022460262E8
:105AD00010BD002904D0026801231A43026003E0CC
:105AE00002685208520002607047000010B5044678
:105AF0003248844209D101218803FFF7AFF8002121
:105B000001208003FFF7AAF856E02D48844209D10E
:105B100001214804FFF782F8002101204004FFF72B
:105B20007DF849E02748844209D101218804FFF724
:105B300075F8002101208004FFF770F83CE022484E
:105B4000844209D10121C804FFF768F8002101202F
:105B5000C004FFF763F82FE01C48844209D10121FB
:105B60000805FFF75BF8002101200005FFF756F854
:105B700022E01748844208D101212020FFF76EF867
:105B800000212020FFF76AF816E01248844208D16D
:105B900001214020FFF762F800214020FFF75EF866
:105BA0000AE00D48844207D101218020FFF756F812
:105BB00000218020FFF752F810BD0000003801409E
:105BC0000044004000480040004C004000500040AD
:105BD0000014014000180140001C0140002A03D0BD
:105BE00003680B43036002E003688B430360704764
:105BF00002460020D3690B40002B01D0012000E0B9
:105C00000020704770B502460B4600240021002595
:105C100000201E04350ED9B201268E403146012DDA
:105C200002D11668314006E0022D02D1566831409B
:105C300001E0966831401C0C0126A6403446D66926
:105C40003440002903D0002C01D0012000E00020C6
:105C500070BDF8B5034600240026009600250020FC
:105C600018460E04340ECEB200960127009EB740AF
:105C70003D46022C01D1001D02E0032C00D108306A
:105C8000002A03D006682E43066002E00668AE4391
:105C90000660F8BDF0B58BB004460D460027002025
:105CA0000A900026206840084000206066680321B2
:105CB0000903304688430646A8680643666026689E
:105CC0002D480640E9686868084329690843064387
:105CD0002660A668032109023046884306466869A3
:105CE0000643A6606846FEF7C9FF2448844202D1F5
:105CF00006980A900DE02248844202D107980A9043
:105D000007E02048844202D108980A9001E00298F6
:105D10000A9020680121C903084000280CD0296896
:105D20000A9A5000FEF76AFA074629680A9A500054
:105D3000FEF764FA0E4609E029680A98FEF75EFA53
:105D4000074629680A98FEF759FA0E46286840085F
:105D5000B04200D87F1C20680121C90308400028F8
:105D600006D03807460F38460749084030430746F3
:105D7000A7810BB0F0BD0000F3E9FFFF0038014040
:105D80000044004000480040F0FF00000146888CBD
:105D9000C005C00D7047002A03D0038B0B4303835B
:105DA00002E0038B8B4303837047000010B5124C55
:105DB00003202061606111A0A0611349E161FF210E
:105DC000013121620021A1626162E1620BA02066C3
:105DD0000E4961661021A16600212167E1666167B5
:105DE0000BA1E01DFEF75FFA0AA12046FEF75BFA61
:105DF0002020A07110BD0000245100205465726D58
:105E0000696E616C00000000CC510020CC52002073
:105E100052545400534547474552000010B50146BF
:105E20000A69CB689A4204D88C68641EE41AA018E8
:105E300001E0D41A601E10BDFFB585B006460F46BE
:105E40000F9D0E9C002F01DA784200E03846039047
:105E50000120049007E007990398FEF7E5F9039005
:105E60000498401C0490079903988842F3DA049937
:105E70000898884201D908980490002C06D0002F79
:105E800003DB04202840042800D1641E022028409F
:105E9000002802D00898002815D0E807C00F002875
:105EA00011D1002C0FD008E0641E2021304600F0F4
:105EB000D9F8F068002800DA04E0002C02D0049839
:105EC000A042F1D300BFF06800283ADB002F05DACA
:105ED0007F422D21304600F0C5F807E0042028401D
:105EE000042803D12B21304600F0BCF8F0680028CC
:105EF00027DB02202840022818D1E807C00F00281D
:105F000014D10898002811D1002C0FD008E0641E8D
:105F10003021304600F0A6F8F068002800DA04E0EE
:105F2000002C02D00498A042F1D300BFF0680028F2
:105F300007DB0195009439463046089B079A00F02C
:105F400003F809B0F0BD0000FFB585B0064617465E
:105F50001D460E9C0698029001200390019007E0D8
:105F600039460298FEF74AF902900198401C0190C8
:105F70000298B842F4D20198854200D901950F9851
:105F8000C007C00F00281DD1002C1BD002210F9884
:105F90000840022804D1002D02D13020009001E0F9
:105FA0002020009008E0641E3046009900F05AF866
:105FB000F068002800DA04E0002C02D00198A0422A
:105FC000F1D300BFF068002848DB0FE0012D01D9B4
:105FD0006D1E08E003990698FEF710F904900498E6
:105FE000B84200D203E0039878430390EEE700BF85
:105FF00000BF03990698FEF701F9049003990498ED
:1060000048430699081A0690154A0498115C3046D0
:1060100000F028F8F068002800DA07E03946039815
:10602000FEF7ECF8039003980028E2D100BF0F9828
:10603000C007C00F002811D0002C0FD008E0641E4C
:106040002021304600F00EF8F068002800DA04E065
:10605000002C02D00198A042F1D300BF09B0F0BDDE
:106060000E32010870B504460E46A568681C6168CA
:10607000814206D320684655681CA060E068401C39
:10608000E0606168A06888420DD1A268216820693B
:10609000FFF740F9A168884203D00020C043E060C8
:1060A00001E00020A06070BD0146481E084A9042F1
:1060B00001D901207047481E064A5061FF20064A58
:1060C000D0700020034A9061072010610020F1E7A2
:1060D000FFFFFF0000E000E020ED00E0F7B582B038
:1060E0000446174600200190E56800BF2069009033
:1060F0000098A84203D90098401B461E04E0A168FE
:106100000098281A401C0E1AA068401BB04201D902
:10611000304601E0A068401B0646BE4201D2304630
:1061200000E0384606466168481932460399FEF792
:106130008FF8019880190190039880190390BF1B74
:10614000AD19A068A84200D10025E560002FCDD18F
:10615000019805B0F0BDF7B582B004461546E66873
:10616000A068871BAF4208D9616888192A4603993D
:10617000FEF76EF87019E06010E001976168881909
:10618000019A0399FEF764F8E81B0190039AD1196C
:106190006068019AFEF75CF80198E06005B0F0BD18
:1061A00030B47446641E2578641CAB4204D3635D2E
:1061B0005B00E31830BC18471D46F8E7014600298C
:1061C00000D17047C8B2002804D0C8B2114A105C90
:1061D000401CF6E7FF2000020840002807D0FF20FF
:1061E0000002084000120B4A105C0930E9E7FF206A
:1061F00000040840002807D0FF20000408400014D5
:10620000044A105C1130DCE7080E024A105C1930B9
:10621000D7E700001E32010802E008C8121F08C1BB
:10622000002AFAD170477047002001E001C1121F17
:10623000002AFBD17047000003490868884201D05A
:10624000012070470020FCE770020020FEB50446E4
:1062500015461E460A9F204614304060006000BF6D
:10626000256266620898A0620998E0622321E26ACA
:10627000A06A02F0B7F9E16AA06A4018021F606ADA
:106280000190206A114B0090019902F0FDF8E06145
:1062900036200755352007550020A0630B98E06392
:1062A0000B98206400202063002134200155002039
:1062B0002067606700902346054A214601902046EA
:1062C000443002F099FD0020FEBD0000BD890008A9
:1062D0001D8C0008FFB581B004460E4617460A988B
:1062E0006072607A400840006072E66127620020B8
:1062F000A06204986062002506E0EA00214614319D
:10630000501802F01EF96D1C012DF6DB05B0F0BD32
:1063100010B50246002001460EE0CC0013461433AF
:10632000E018046843686360446803682360406061
:10633000006000BF481C01460129EEDB10BD0000D3
:1063400000B587B02548FEF72DFC01214802FEF775
:1063500075FC2348FEF75EF801A8FEF7BCF80020A4
:106360000190012069460872002003900590069074
:1063700001A91B48FEF794F8072202211848FDF7EF
:10638000DDFF072210211648FDF7D8FF0722402124
:106390001348FDF7D3FF072280211148FDF7CEFFF8
:1063A0000F48FEF747F802210D48FDF7EBFF0121EA
:1063B0000B48FDF7DBFF01210948FDF7CBFF00BFCC
:1063C00008490748FEF754F80028F9D00448FEF7BA
:1063D0007DF8FDF7DFFF07B000BD000000400001C1
:1063E00000240140010000011CB50220009003219F
:1063F0006846417101710021C17169460920C006DA
:10640000FEF7D4FA10200090032168464171017113
:106410000021C17169460920C006FEF7C7FA402075
:10642000009003216846417101710021C1716946E4
:106430000920C006FEF7BAFA8020009003216846C2
:10644000417101710021C17169460920C006FEF742
:10645000ADFA1CBD7047000010B5C0220549C80345
:1064600002F091F8044800680321084302490860DB
:10647000002010BD004000080000014010B5044697
:10648000204602F041FB10BDFFB581B004460D4629
:1064900016462A2001F0E4F92746E117090EC9192A
:1064A0000904080E01F03EFAE117090EC919091294
:1064B0000902611AC8B201F035FAA719F917090ED5
:1064C000C9190904080E01F02DFAA719F917090EC8
:1064D000C91909120902791AC8B201F023FA2B204E
:1064E00001F0BEF92F46E917090EC9190904080E73
:1064F00001F018FAE917090EC91909120902691AF7
:10650000C8B201F00FFA04996F18F917090EC919EA
:106510000904080E01F006FA04996F18F917090E1C
:10652000C91909120902791AC8B201F0FBF905B0BC
:10653000F0BD00001CB5284801F0D4FD02200090F9
:1065400000216846417101710121C17169462248EB
:10655000FEF72CFA204801F0C5FD01200090002133
:106560006846417101710121C17169461A48FEF7FF
:106570001DFA1A4801F0B6FD01200090002168467E
:10658000417101710121C17169461448FEF70EFA8B
:106590000920C00601F0A6FD2020009000216846D9
:1065A000417101710121C17169460920C006FEF7E0
:1065B000FDF90920C00601F095FD0120C0030090FF
:1065C00000216846417101710121C17169460920AC
:1065D000C006FEF7EBF91CBD00140048000400489B
:1065E0001CB54A4801F07EFD0120400300900021C7
:1065F0006846417101210171C17169464348FEF746
:10660000D5F9012149034148FEF744FA3F4801F01A
:1066100069FD01208003009000216846417101213D
:106620000171C17169463948FEF7C0F9012189033A
:106630003648FEF72FFA354801F054FD0120C0031B
:10664000009000216846417101210171C1716946C4
:106650002E48FEF7ABF90121C9032C48FEF71AFAC0
:106660002B4801F03FFD0420009000216846417155
:1066700001210171C17169462548FEF797F904218E
:106680002348FEF709FA224801F02CFD0220009071
:1066900000216846417101210171C17169461C48A0
:1066A000FEF784F902211A48FEF7F4F90920C00622
:1066B00001F018FDFF200130009000216846417173
:1066C00001210171C17169460920C006FEF76EF90A
:1066D000FF2101310920C006FEF7DCF90920C006C0
:1066E00001F000FD01200090002168464171012168
:1066F0000171C17169460920C006FEF757F90121F1
:106700000920C006FEF7C6F91CBD000000080048BD
:1067100000040048F8B505460E4600240027FEF7A1
:106720001FF93420FEF792F8012080023018401E35
:10673000870A00BF09E0A1024819FEF78DF8042876
:1067400002D0FEF7CDF8F8BD641CBC42F3D3FEF7CF
:10675000C7F800BFF7E7F8B504460D4616462746CA
:10676000324639462846FDF773FDF8BDF8B50646B2
:106770000D461746FEF7F4F82520FEF767F80024CB
:1067800012E0295D601C285C00020918A01C285C2E
:1067900000040918E01C285C000608180090301955
:1067A0000099FEF7A7F8241DBC42EAD3FEF798F83B
:1067B000F8BD000070B505460C46202C08DB7E2C89
:1067C00006DC204620380C2148430649461801E0E3
:1067D000002070BD0C222946304601F0F5FC012056
:1067E000F7E70000406D060070B58CB005460C461A
:1067F0001FA2536891681068D26809930B920A919E
:1068000008901FA31A681B1D0BCB05AE0BC6049284
:106810001FA30FCB6E460FC6672C05D1102208A907
:106820002846FDF715FD21E06A2C05D1102204A9A8
:106830002846FDF70DFD19E05F2C05D110226946B1
:106840002846FDF705FD11E0202C07DB7E2C05DC3A
:106850002046203800011249461802E000200CB002
:1068600070BD10222946304601F0AEFC0120F6E74B
:1068700000F018080810F8000001131212190F0098
:106880000000000000F4000000000810100F0000DD
:106890000000000000000000002020202020200038
:1068A000C0B70300F3B581B00E4634787578A12CDB
:1068B0000FDBA32C0DDCA12D0BDB2046A1385E21C4
:1068C00048432946A1394018182148431C49471814
:1068D0002FE0A92C08D1A12D06DB284679301821FC
:1068E00048431749471824E0B02C11DBF72C0FDC84
:1068F000A12D0DDB2046B0385E2148432946A13941
:106900004018FF307930182148430D49471810E0EE
:1069100031780198FFF768FF002808D07178019856
:106920001030FFF761FF002803D00120FEBD0020DA
:10693000FCE718223846019901F046FC0120F5E7F2
:1069400080CF0300F3B581B00E4634787778A42C5D
:1069500005DBA82C03DCA12F01DB002530E0A12CF6
:106960000CDBA92C0ADCA12F08DB2046A1385E2114
:1069700048433946A1394018450121E0B02C0EDBCF
:10698000F72C0CDCA12F0ADB2046B0385E214843EF
:106990003946A13940180E494018450110E03178B8
:1069A0000198FFF721FF002808D071780198103076
:1069B000FFF71AFF002803D00120FEBD0020FCE7EE
:1069C00020222846019901F0FFFB0120F5E7000095
:1069D0004E03000010B5044620460A380300FFF7B6
:1069E000DFFB06040B131C232C3501211B48FEF78B
:1069F00047F81B4908702DE020210920C006FEF74A
:106A00003FF81749087025E00121C9030920C00695
:106A1000FEF736F8124908701CE002210F48FEF715
:106A20002FF80F49087015E0012109030920C0065D
:106A3000FEF726F80A4908700CE00121C902092076
:106A4000C006FEF71DF80649087003E0002004495F
:106A5000087000BF00BF0248007810BD0014004855
:106A60003C0100200148007870470000D40100205C
:106A700010B5044800680449086004490448FDF75B
:106A800000FC10BDC8000020CC000020540900000C
:106A90008402002010B50121084600F04DF80221C3
:106AA000012000F049F80421012000F045F80821F8
:106AB000012000F041F81021012000F03DF82021D4
:106AC000012000F039F84021012000F035F8802144
:106AD000012000F031F810BD70B5044600251CE01F
:106AE0000121C9031348FDF7D5FF8020204000286D
:106AF00005D0012149030F48FDF7CEFF04E0012135
:106B000049030C48FDF7C6FF6006040E0121C903C6
:106B10000848FDF7C1FF681CC5B2082DE0DB012164
:106B200089030448FDF7B6FF012189030148FDF7F9
:106B3000B3FF70BD0008004870B505460C46002D37
:106B400005D10848007820430649087004E005484C
:106B50000078A0430349087002480078FFF7BCFFA3
:106B600070BD0000C8010020002181700180C17843
:106B7000012903D10021C17001210171704700007A
:106B800010B50A20FFF726FF002803D1794802F04C
:106B9000A5FC02E0774802F093FC0B20FFF71AFFF8
:106BA000002804D17348001D00F0EEF803E071489E
:106BB000001DFFF7D9FF0C20FFF70CFF002804D1C0
:106BC0006C480A3000F0E0F803E06A480A30FFF74A
:106BD000CBFFFFF747FF68490978884207D0FFF7E6
:106BE00041FF6549087000206449087004E063486B
:106BF0000078401C614908706148807800280BD1FA
:106C00005E480078322812DD00205C4908705A483E
:106C100000785C4908700AE058480078082806DDCA
:106C20000020564908705448007856490870554865
:106C300000780300FFF7B4FA110A4B50555A645F0D
:106C4000696E73787D82878C91969B0049481030DD
:106C5000FFF78AFF47481630FFF786FF45481C308C
:106C6000FFF782FF43482230FFF77EFF414828307C
:106C7000FFF77AFF3F482E30FFF776FF3D4834306C
:106C8000FFF772FF3B483A30FFF76EFF394840305C
:106C9000FFF76AFF37484630FFF766FF35484C304C
:106CA000FFF762FF3348523002F00AFC3148563099
:106CB00002F006FC2F485A3002F002FC2D485E30EC
:106CC00002F0FEFB2B48623002F0FAFB50E029484C
:106CD000523002F003FC4BE02648563002F0FEFB37
:106CE00046E024485A3002F0F9FB41E021485E308A
:106CF00002F0F4FB3CE01F48623002F0EFFB37E0AB
:106D00001C484C3000F040F832E01A48103000F0D7
:106D10003BF82DE01748163000F036F828E015480B
:106D20001C3000F031F823E01248223000F02CF83B
:106D30001EE01048283000F027F819E00D482E30EA
:106D400000F022F814E00B48343000F01DF80FE09A
:106D500008483A3000F018F80AE00648403000F0E1
:106D600013F805E00348463000F00EF800E000BFDD
:106D700000BF10BDBE500020CC010020CD0100207E
:106D8000F8180020CA01002015498978002907D188
:106D90003021144A11804B21C900134A118005E0AB
:106DA0000021104A118064210F4A11808178002946
:106DB00015D10188491C018001880A4A1288914234
:106DC00001DD0121C1700188074A1288914206DD68
:106DD0000021C17001800121817002210171704781
:106DE000F8180020D0010020D20100208948C08876
:106DF0008949884213DD8748C0888749A031884285
:106E00007ADA844880888549884209DD814880880B
:106E10008249A031884203DA0120814908706BE081
:106E20007C4880887F49884209DD7A4880887D498E
:106E3000A031884203DA0220794908705CE0754885
:106E400080887949884209DD724880887649A03176
:106E5000884203DA0820724908704DE06D48808846
:106E60007249884209DD6B4880886E498F398842B3
:106E700003DA09206A4908703EE0664880886C4958
:106E8000884209DD6348808867498839884203DA87
:106E90000B20634908702FE05E488088654988426E
:106EA00009DD5C48808861497439884203DA0C2026
:106EB0005B49087020E0574880885F49884209DDB7
:106EC000544880885C49A031884203DA0E20544936
:106ED000087011E04F4880885849884209DD4D48C4
:106EE00080885649A031884203DA0F204C49087047
:106EF00002E000204A490870464880884649884296
:106F000014DD444880884449A03188420EDA414863
:106F1000C0884249091D884209DD3E48C0883F4972
:106F2000A431884203DA03203D49087071E03948F2
:106F3000C0883C49891E884209DD3648C0883949E5
:106F40009E31884203DA04203549087061E03148F7
:106F5000C0883649491C884209DD2E48C08831491D
:106F60008E39884203DA05202D49087051E02948FE
:106F7000C0883249884209DD2648C0882F49A0319F
:106F8000884203DA06202649087042E02148C0887A
:106F90002849891E884209DD1E48C0882349763960
:106FA000884203DA07201E49087032E01948C08879
:106FB0001D49891E884209DD1648C0881A499E313C
:106FC000884203DA0A201649087022E01148C08876
:106FD00017490A31884209DD0E48C08812497E39B6
:106FE000884203DA0D200E49087012E00948C08873
:106FF0001149091F884209DD0648C0880E499C31A5
:10700000884203DA10200649087002E00020044993
:1070100008707047FA000020AF0F00004709000019
:10702000D40100203B0E0000B10700000C0D000051
:1070300089060000F80B00001A050000AC0A0000E9
:107040000EB50B210020FEF7EBFA0120C0020190E3
:10705000002168460172102141720121817201A84C
:10706000FDF7B0FB0C210020FEF7DAFA0120000347
:107070000190002168460172102141720121817244
:1070800001A8FDF79FFB07216846017001214170AF
:107090008170FDF713FD0EBD10B50E20FFF79AFCB1
:1070A00001281BD11B480078422810D11A480078CB
:1070B000002805D11749087002201849087028E0F7
:1070C00000201449087001201449087021E0412073
:1070D000104908700020104908701AE00D48007827
:1070E000422810D10C480078002805D109490870C1
:1070F00001200A4908700CE00020064908700220AF
:107100000649087005E04120024908700120024943
:10711000087010BDDE000020DF000020020100200A
:1071200010B50F20FFF756FC01281BD11B48007833
:10713000412810D11A480078002805D11749087055
:1071400001201849087028E0002014490870022026
:107150001449087021E042201049087000201049AD
:1071600008701AE00D480078412810D10C480078CA
:10717000002805D10949087002200A4908700CE06E
:1071800000200649087001200649087005E04220E9
:107190000249087001200249087010BDDE0000207D
:1071A000DF00002002010020FFB581B004460D463B
:1071B00016460A9F0097324629462046049B00F057
:1071C0008EF805B0F0BDFFB581B004460D461646F9
:1071D0000A9F0097324629462046049B00F0A2F9F8
:1071E00005B0F0BD3EB505460C46002D0BD10C4850
:1071F0000CA2019023460092029000220121284611
:1072000000F02CF80AE006480DA2019023460092F7
:10721000029000220121284600F020F83EBD000027
:10722000FFFF0000202020202020202020202020E0
:10723000202020202020202020202020202000008E
:10724000202020202020202020202020202020203E
:107250002020200010B500F0C1F910BDFFB583B0AB
:1072600004460F46154600200290019000260C9817
:10727000FDF712F8C6B2002C05D1062002901A2E96
:1072800008DD1A2606E0012C04D108200290132EF6
:1072900000DD1326012F0AD1A0214A1B0299714358
:1072A000501AC10F0918C903090C019100E001959A
:1072B000002C08D10D9800900E9B0C9A069901980D
:1072C00000F037F809E0012C07D10D9800900E9BD3
:1072D0000C9A0699019800F09BF807B0F0BDFFB535
:1072E00081B014461D460A9E701E83B2681E82B28B
:1072F00002990198FFF7C8F82C2000F0B1FA002796
:1073000013E0002000900BE02078641C00F00AFBE2
:107310002078641C00F006FB0098401CC0B200906E
:107320000098A842F0DB781CC7B2B742E9DB05B091
:10733000F0BDFFB58DB006460F461546202104A8C6
:10734000FCF79FFF2846FCF7A7FF80B20C900024B3
:1073500059E0285D20282ADB285D7E2827DC295D6E
:1073600004A8FFF727FA08221699109800920191B5
:107370000290F9B2062060438019C0B2062304AA25
:10738000039000F0F2F805221699109800920191EE
:10739000029038460830C1B2062060438019C0B25E
:1073A000062305AA0232039000F0DFF829E029192C
:1073B00004A8FFF777FA002823D00822169910981E
:1073C000009201910290F9B2062060438019C0B288
:1073D0000C2304AA039000F0C8F804221699109810
:1073E00000920191029038460830C1B206206043F5
:1073F0008019C0B20C2307AA039000F0B6F8601CF5
:1074000084B2601C84B20C988442A2DB11B0F0BD3F
:10741000FFB58DB007461646202104A8FCF731FFC2
:107420003046FCF739FF80B20C90002475E0305DE7
:10743000202847DB305D7E2844DC315D04A8FFF75F
:10744000D3F900251AE004A928460830085CC006D4
:10745000010E04AA28460830115404A9085C495DAD
:107460004911084329460831505404A8405DC00022
:10747000F821084004A94855681C85B2082DE2DBB4
:107480000822169910980092019102900E98C1B2AC
:10749000E000C019C0B2134604AA039000F065F8DA
:1074A0000822169910980092019102900E980830C7
:1074B000C1B2E000C019C0B2134606AA039000F0A2
:1074C00054F828E0311904A8FFF73CFA002822D02C
:1074D0000822169910980092019102900E98C1B25C
:1074E000E000C019C0B2102304AA039000F03DF8D8
:1074F0000822169910980092019102900E98083077
:10750000C1B2E000C019C0B2102308AA039000F075
:107510002CF8601C84B2601C84B20C98844286DB18
:1075200011B0F0BDFFB581B015461C460A9E701E15
:1075300083B2601E82B202990198FEF7A5FF2C204B
:1075400000F08EF900270CE00020009005E02846AE
:1075500000F0AEF90098401C00900098A042F6DBC5
:107560007F1CB742F0DB05B0F0BDFFB581B01D4612
:107570000A98401E83B2681E82B202990198FEF7F3
:1075800083FF2C2000F06CF9002422E000261CE090
:10759000E217520F1219D3106B43039A9219D25C5F
:1075A0002046E3175B0F1B18DB10DB00E71A0123F3
:1075B000BB401A40002A03D00B9800F079F902E092
:1075C0000C9800F075F9701CC6B2AE42E0DB601C8E
:1075D000C4B20A988442D9DB05B0F0BD10B500F002
:1075E00039F810BD002107E0002200E0521C7D2385
:1075F0009B019A42FAD3491C8142F5D3704700009F
:107600001CB500241EE0A100104A505800F06AFD8D
:1076100060000F49085A009000216846417101211D
:107620000171C171A100094A50586946FDF7BEF9C0
:107630006200074B995AA200044B9858FDF72AFAAA
:10764000601CC4B20D2CDEDB1CBD00000801002054
:10765000F431010810B500F0E9F8112000F000F94C
:107660007820FFF7BFFFB12000F0FAF8052000F006
:1076700059F93C2000F056F93C2000F053F9B420B1
:1076800000F0EEF8002000F04DF9C02000F0E8F81E
:10769000282000F047F9082000F044F9042000F009
:1076A00041F9C12000F0DCF8C02000F03BF9C22015
:1076B00000F0D6F80D2000F035F9002000F032F986
:1076C000C32000F0CDF88D2000F02CF92A2000F026
:1076D00029F9C42000F0C4F88D2000F023F9EE2031
:1076E00000F020F9C52000F0BBF81A2000F01AF9CC
:1076F000C72000F0B5F8B62000F014F93A2000F0E9
:10770000AFF8052000F00EF92A2000F0A9F80020BB
:1077100000F008F9002000F005F9002000F002F95F
:107720009F2000F0FFF82B2000F09AF8002000F0D6
:10773000F9F8002000F0F6F8002000F0F3F87F20C0
:1077400000F0F0F8362000F08BF8602000F0EAF846
:10775000E02000F085F8042000F0E4F8222000F09A
:10776000E1F8072000F0DEF80A2000F0DBF82E2018
:1077700000F0D8F8302000F0D5F8252000F0D2F83D
:107780002A2000F0CFF8282000F0CCF8262000F0C6
:10779000C9F82E2000F0C6F83A2000F0C3F8002007
:1077A00000F0C0F8012000F0BDF8032000F0BAF8A6
:1077B000132000F0B7F8E12000F052F8042000F0A8
:1077C000B1F8162000F0AEF8062000F0ABF80D205E
:1077D00000F0A8F82D2000F0A5F8262000F0A2F86F
:1077E000232000F09FF8272000F09CF8272000F0CD
:1077F00099F8252000F096F82D2000F093F83B2012
:1078000000F090F8002000F08DF8012000F08AF8D8
:10781000042000F087F8132000F084F8C820FFF758
:10782000E1FE292000F01CF810BD000010B5082171
:107830000A48FDF731F90120FFF7D4FE0821074877
:10784000FDF728F90A20FFF7CDFE08210348FDF7D0
:1078500023F96420FFF7C6FE10BD000000040048B5
:1078600010B5044680211148FDF716F910210F4884
:10787000FDF710F920210D48FDF70CF940210B48C8
:10788000FDF708F90948808AC0B22102FF221202DE
:10789000114008430549888240210448FDF7FCF85F
:1078A00010210248FDF7F8F810BD00000004004860
:1078B00010B5044680211A48FDF7EEF8102118484B
:1078C000FDF7E8F820211648FDF7E6F81448808A0D
:1078D000C0B221120902FF221202114008431049CE
:1078E000888240210E48FDF7D5F840210C48FDF76D
:1078F000D3F80B48808AC0B22102FF221202114045
:1079000008430749888240210548FDF7C3F8402114
:107910000348FDF7C1F810210148FDF7BDF810BD7F
:107920000004004810B5044680211148FDF7B4F862
:1079300010210F48FDF7AEF820210D48FDF7ACF8F7
:107940000B48808AC0B22102FF2212021140084374
:107950000749888240210648FDF79CF840210448E9
:10796000FDF79AF810210248FDF796F810BD0000C7
:107970000004004810B504462300FEF711FC07324E
:1079800005143623454D55000121032001F0FCFC70
:107990000121022001F0F8FCFF2025490870012098
:1079A0002449087041E00121032001F0EDFC012190
:1079B000022001F0E9FCFF201D49087003201D4949
:1079C000087032E00021022001F0DEFCFE2019499F
:1079D00008700121032001F0D7FCFF201449087032
:1079E00023E00120124908701FE00021032001F06C
:1079F000CBFC00200E4908700121022001F0C4FCDC
:107A0000FF200C49087010E00121032001F0BCFCAC
:107A1000FF200749087008E00121022001F0B4FCB2
:107A2000FF200449087000E000BF00BF10BD000047
:107A3000E4000020E500002008B5344D681E3449FC
:107A4000884200D90CE0681E324948610321081FB2
:107A5000FDF76CF800202F4988610720086100BFFE
:107A6000002408E0A0002C4940180068A1002B4A1F
:107A70005050601CC4B2302CF4DB00BF28480068B2
:107A800080088000264908600846006803210843F2
:107A90002349086000BF072001218140214A11606D
:107AA00000BF0A20FEF7EAFC002000F04FF800209B
:107AB000034602461CA10090FDF796FB00200346FA
:107AC00002461BA10090FDF745FB0020FDF7D6FB09
:107AD00019A10020FDF784FC17E00121032001F02B
:107AE00053FC0021022001F04FFCFF20F53001F093
:107AF0000BF80021032001F047FC0121022001F0D6
:107B000043FCFF20F53000F0FFFFE6E780BB0000FC
:107B1000FFFFFF0000E000E0004000080000002040
:107B20000000014080E100E0525454555000000034
:107B3000525454444F574E005345474745525F52A5
:107B400054545F72756E0D0A0000000010B50446B3
:107B5000FEF78EFF012C04D101F098FD02F04AF8E7
:107B600001E001F00EFD01F00BFD01F043FEFEF718
:107B700091FFFFF76FFB0021052001F005FC0021BC
:107B8000082001F001FC0021092001F0FDFBFEF7B7
:107B900061FC00F027F801F0D3FC01F09DFE00210C
:107BA000084601F0F1FB10BD10B5044600F09EFB45
:107BB000FFF742FF10BD000070B504462046FCF7F9
:107BC0006BFB85B22946204601F0D0FD224602A17A
:107BD0000020FDF705FC70BD54582D3E25730D0A9D
:107BE0000000000010B500206E49087548778877BE
:107BF00000216C482030017000206A492031487013
:107C00008870C87008714871A0318871002165487A
:107C1000C030C17100206349C03108724872002130
:107C20006048C030817200205E49C031C8720021B6
:107C30005D48C17101205C494872887100215A4831
:107C400081705A48C1770020584988770120FFF792
:107C500091FE00F0ADFA5648007E002802D00121C6
:107C6000534801765248C07F002802D00121504875
:107C7000C1774F48407E002804D10121084601F019
:107C800083FB06E001214A4841760021012001F0F2
:107C90007BFB47484038007D002804D101210620A5
:107CA00001F072FB07E001214148403801750021D5
:107CB000062001F069FB00203B494039087301218F
:107CC000072001F061FB3A48807E002802D00121A4
:107CD000374881763648C07E002806D0012809D072
:107CE00002280CD0032814D10EE00A202E49403976
:107CF000887316E014202C494039887311E01E2047
:107D00002949403988730CE0FF202749403988739E
:107D100007E002212648C1761E2023494039887396
:107D200000BF00BF2248007F042802DD0121204857
:107D300001771F49087F00F03DF81D48407F192852
:107D400002DD08211A48417717484079082802DDEA
:107D50000820154948711648807F002802D001216B
:107D60001348817701F000FB6420FEF787FB00F0E9
:107D70001FFA00F011FA00200EE03A2141430C4AAC
:107D80002032515C032905DD00223A214143084B92
:107D900020335A54411CC8B20A28EEDB01F0D2FA53
:107DA00010BD0000F8170020F8180020982C0020C3
:107DB0007E15002070B504462BA0FFF7FDFE1E20A7
:107DC000FEF75CFB00254BE02300FEF7E9F9050414
:107DD0000F132B373F0025A0FFF7EEFEFF20F530F5
:107DE000FEF74CFB28A0FFF7E7FE33E01FA0FFF7EC
:107DF000E3FE2FE02B488078032803D12AA0FFF769
:107E0000DBFE0EE027488078022803D12DA0FFF783
:107E1000D3FE06E023488078012802D130A0FFF786
:107E2000CBFE17E01F488078032803D133A0FFF76B
:107E3000C3FE02E038A0FFF7BFFE0BE019488078D0
:107E4000032802D13BA0FFF7B7FE03E007A0FFF72E
:107E5000B3FE00BF00BF6420FEF710FB681CC5B274
:107E6000032DB1DB70BD00000D0A000041542B5101
:107E70004346473D226E777363616E6D6F64652282
:107E80002C332C310D0A000041542B514346473D01
:107E9000226E777363616E6D6F6465222C302C31B6
:107EA0000D0A00001818002041542B514346473D4D
:107EB000226E777363616E6D6F6465222C372C318F
:107EC0000D0A000041542B514346473D226E777303
:107ED00063616E6D6F6465222C322C310D0A0000D7
:107EE00041542B514346473D226E777363616E6D5B
:107EF0006F6465222C342C310D0A000041542B5143
:107F00004346473D226E777363616E6D6F646522F1
:107F10002C362C310D0A000041542B514346473D6D
:107F2000226E777363616E6D6F6465222C312C3124
:107F30000D0A000041542B514346473D226E777392
:107F400063616E6D6F6465222C382C310D0A000060
:107F5000FFB58BB004461546169E159804901498EC
:107F6000029040203040002801D05C4800E05C488E
:107F7000039010203040002801D076087600F007EA
:107F8000C00F002801D0302000E020200A900020FF
:107F9000099002203040002812D0002D03DA2D2055
:107FA00009906D420CE004203040002802D02B20C4
:107FB000099005E008203040002801D020200990D9
:107FC0000027002D05D1302238467F1C05A90A5410
:107FD0001DE01AE00E98019001980A280AD128465F
:107FE0000A21FCF70BF9009128460A21FCF706F953
:107FF000054603E02807000F00902D09009803991B
:108000000A5C38467F1C05A90A54002DE2D1159858
:10801000874200DD159715990298401A02901120A9
:108020003040002814D10998002805D00298002873
:1080300002DD0298401E029005E00C98844201D2B5
:1080400020202070641C0298411E02910028F4DC5C
:108050000998002808D00C98844201D20998207011
:108060000298401E0290641C1020304000280BD162
:1080700005E00C98844201D20A982070641C029892
:10808000411E02910028F4DC05E00C98844201D2E4
:1080900030202070641C1598411E1591B842F4DC04
:1080A00006E00C98844202D205A8C05D2070641CD2
:1080B00038467F1E002802DD04980028F1D105E033
:1080C0000C98844201D220202070641C0298411E2A
:1080D00002910028F4DC20460FB0F0BD2F330108D8
:1080E0001E33010810B504460920C006844204D19D
:1080F00001214804FCF772FD26E01448844204D1B3
:1081000001210002FCF76AFD1EE01148844204D1FF
:1081100001210002FCF762FD16E00E48844204D102
:1081200001210805FCF75AFD0EE00B48844204D1FA
:1081300001214002FCF752FD06E00848844203D1C9
:1081400001218805FCF74AFD10BD0000000400482D
:1081500000080048000C00480010004800140048C7
:1081600010B5034A03490448FEF7F5FA10BD0000B4
:108170006D0700005641002000E8030810B5034ACF
:1081800003490448FEF7E7FA10BD0000FA070000B3
:10819000C348002000F0030810B591229200024964
:1081A0000248FEF7D8FA10BD9E15002000E0030833
:1081B00010B5C02202490348FEF7CDFA10BD0000F9
:1081C000DE14002000D80308F7B506460D46360237
:1081D000360A03200006064328460299FCF751F8A8
:1081E000FF2101310920C006FCF754FC00241AE0ED
:1081F0000120C007E0403040002805D0012189025D
:108200002248FCF749FC04E0012189021F48FCF7E1
:1082100041FC02211D48FCF73DFC02211B48FCF7F4
:108220003BFC601CC4B2202CE2DB002424E00027CD
:108230001EE002211548FCF72FFC02211348FCF731
:1082400029FC01211148FCF71BFC002807D0285D00
:108250000721CA1B012191400843285506E0295DEA
:108260000720C21B0120904081432955781CC7B2CA
:10827000082FDEDB601CC4B202988442D7DBFF21EA
:1082800001310920C006FCF707FCFEBD00040048D0
:108290007FB50A4C14200221CA01094B00930192B8
:1082A000029103900023074A07A1204600F016FC24
:1082B0000546204600F078FC7FBD0000E05300201A
:1082C000E0520020A97B00086D61696E000000008B
:1082D00010B5044C02E020688047241D0248844207
:1082E000F9D310BD443301084C33010810B5044CD8
:1082F00002E020688047241D02488442F9D310BD63
:108300004C3301085033010810B5FBF70BFF04464E
:1083100004480088401C00B2024908802046FBF750
:1083200005FF10BD6002002010B5FBF7FBFE044600
:108330000D480088401E00B20B4908800846002105
:10834000415E00290CDC0020074908802046FBF72D
:10835000EDFE06480068002805D000F0CBF902E0E9
:108360002046FBF7E3FE10BD6002002064020020FF
:1083700010B5FDF7C1F97D21C90005480068FBF77C
:108380003DFF0446FDF790FEFFF7A2FF10BD000081
:10839000F801002070470000044613A0E16900F0D6
:1083A000B3F815A0A16900F0AFF817A0616900F05B
:1083B000ABF819A0216900F0A7F81BA0E16800F054
:1083C000A3F81DA0A16800F09FF81FA0616800F04D
:1083D0009BF821A0216800F097F82348016823A0AA
:1083E00000F092F800BFFEE77073723A20307825F3
:1083F0003038780A000000002070633A2030782579
:108400003038780A00000000206C723A203078255D
:108410003038780A000000007231323A2030782576
:108420003038780A000000007230333A2030782566
:108430003038780A000000007230323A2030782557
:108440003038780A000000007230313A2030782548
:108450003038780A000000007230303A2030782539
:108460003038780A000000006402002068617264FD
:10847000206661756C74206F6E207468726561642B
:108480003A2025730A000000FFB50C46101DC008F5
:10849000C00040380146002503E00A4EAF00CE512F
:1084A0006D1C102DF9D30C6200264E628E62CE62D6
:1084B0000E634B63009E8E6301263606CE6304B0C6
:1084C000F0BD0000EFBEADDE10B5FBF72BFE04469D
:1084D00004480078401C034908702046FBF726FE3C
:1084E00010BD00001C02002010B5FBF71BFE044667
:1084F00004480078401E034908702046FBF716FE2A
:1085000010BD00001C0200200FB438B505A8009073
:108510007F210948009B049A00F01EFD04467F2C31
:1085200000D97F240448FFF735FF0020009038BCB5
:1085300008BC04B01847000050550020406000609F
:1085400070474060006070470268516002680A60CE
:108550000160486070470268516002680A6001600B
:108560004860704701460868884201D10120704781
:108570000020FCE7026841685160426801681160B0
:10858000406000607047F7B51646009C019D334679
:10859000102B1CD3A807800FA707BF0F3843002854
:1085A00015D121462A4608E001CA01C101CA01C10C
:1085B00001CA01C101CA01C1103B102BF4D202E073
:1085C00001CA01C11B1F042BFAD20C46154603E059
:1085D000287820706D1C641C18465B1E0028F7D19B
:1085E0000098FEBDF7B50546019EF4B2042A17D3E4
:1085F0008607B60F002E13D10146260226433346C6
:108600001E04334304E008C108C108C108C1103A80
:10861000102AF8D201E008C1121F042AFBD20D462D
:1086200001E02C706D1C1646521E002EF9D1FEBDC5
:1086300070B5044600202072FBF774FD0546204605
:108640000C30026841685160426801681160406006
:10865000006000BF2846FBF769FD70BD024600219F
:1086600008E00801054B185C904202D10801C018CF
:108670007047491C0429F4DB0020F9E720020020A0
:10868000F7B582B004460D4600262846FFF7E6FF00
:108690000746FFF739FE7E6802E030460C38366840
:1086A000381D8642F9D1FFF73FFE80202843207213
:1086B00008222046049900F016F9FBF733FD0190DB
:1086C000381D21460C310268516002680A60016061
:1086D000486000BF0198FBF729FD05B0F0BD0146D9
:1086E000087A80221040002801D001207047002025
:1086F000FCE70000F8B5FBF715FD074618480088B1
:10870000002827D117480068FDF758FD461EF000E5
:10871000154908580446143C14480068844218D08F
:1087200013490E701148056804601248007800284B
:1087300009D121461C3128461C30FBF7FAFC38468B
:10874000FBF7F4FCF8BD21461C3128461C30FBF732
:10875000F0FC00BF3846FBF7E9FC00BFF2E7000081
:10876000600200206C020020D0550020640200202E
:10877000680200201C02002070B50446FBF7D2FC02
:1087800005463420005D0009000101210843342121
:1087900008553522125DD2000A4BD01821461431FB
:1087A0004268116042684A604160086000BF064943
:1087B000A06B09680843044908602846FBF7B6FC2B
:1087C00070BD0000D05500206C02002070B504463A
:1087D000FBF7A8FC0546204614300268416851604A
:1087E0004268016811604060006000BF3521095D8A
:1087F000C9000A4A88180168814201D1012100E0BC
:108800000021002905D00648A16B0068884304496F
:1088100008602846FBF78AFC70BD0000D055002098
:108820006C02002008B509A0FFF76EFE0AA0FFF752
:108830006BFE12A0032301221946009012A0FFF73D
:1088400063FE19A0FFF760FE08BD00000A205C204F
:108850007C202F0A000000002D205254202D2020C3
:10886000202020546872656164204F7065726174C5
:10887000696E672053797374656D0A004D617220CB
:108880003136203230323100202F207C205C2020F5
:1088900020202025642E25642E2564206275696CB5
:1088A000642025730A0000002032303036202D204D
:1088B0003230313920436F70797269676874206291
:1088C000792072742D746872656164207465616DBD
:1088D0000A00000001460A4600E0521C10780028F9
:1088E000FBD1501A704770B50346002A15D01846C0
:1088F0000C4600BF25780570641C401C002D07D174
:1089000002E000250570401C551E2A1EF9D102E028
:10891000551E2A1EEED100BF00BF184670BD0000D4
:1089200010B500200B490880002405E0E1000A4A48
:108930008818FFF703FE641C082CF7DB07200749A3
:108940000870002006490860064908600648FFF7DD
:10895000F5FD10BD60020020D05500206802002007
:10896000640200206C0200207002002070B50848EC
:108970000068FDF723FC451EE80006490858044638
:10898000143C0548046020461C30FBF70AFC70BD0F
:108990006C020020D05500206402002010B5002495
:1089A00005E0E100034A8818FFF7CBFD641C002CAA
:1089B000F7D010BD780200207047000070B5134852
:1089C0000468FBF7AFFB05462046FFF7FFFE0421D6
:1089D000342001552046443000F0FEF92046FFF7D0
:1089E0007EFE012806D1206F002803D12046FFF724
:1089F0001FFE04E0214614310548FFF7A5FD284677
:108A0000FBF794FBFFF776FE70BD000064020020C8
:108A10007002002001E000F001F8FCE770B536E0DC
:108A2000FBF780FB0546FDF707FC002827D01B4815
:108A300000680446143C20461430026841685160C6
:108A40004268016811604060006000BFFFF75CFC95
:108A5000206F002802D02046216F88472046FFF76C
:108A60003EFE012808D12046FFF7E2FDFFF75CFC3F
:108A70002846FBF75BFB70BDFFF756FC03E028467A
:108A8000FBF754FBF7E72846FBF750FB00BFFDF769
:108A9000D3FB0028C4D100BFEDE700007002002026
:108AA0001FB5202007218022074B009301920291DD
:108AB00003900023054A06A1074800F00FF8064876
:108AC00000F072F81FBD0000D0540020158A000885
:108AD0007469646C6500000058540020FFB585B0CF
:108AE0000C460EADE0CD224601210598FFF7C8FDEA
:108AF00011986946E0C103902146089B079A0598A2
:108B0000FDF7A4FB09B0F0BD70B50446204600F0A7
:108B1000C7F80546284600F025F870BD70B5044634
:108B20003420005D0007000F022802D00020C0435F
:108B300070BDFBF7F7FA054620461430FFF71AFD23
:108B40002046443000F0F0F92846FBF7EFFA2046C3
:108B5000FFF712FE0020EBE70148006870470000B5
:108B60006402002031B5FBF7DDFA05460D480468C4
:108B7000204600F031F86A4600212046443000F0DB
:108B80000DF92046443000F04BF92846FBF7CEFAA9
:108B9000FFF7B0FD206B801C002800D1206300206F
:108BA00038BD00006402002010B504463620015D87
:108BB00035200155015D01208840A0630221342049
:108BC00001552046FFF7AAFFFFF7C6FF002801D096
:108BD000FFF790FD002010BD70B504463420005D05
:108BE0000007000F012802D00020C04370BDFBF732
:108BF00099FA05463420005D00090001022108436E
:108C0000342108552046FFF7E1FD2046443000F0AE
:108C10008BF92846FBF78AFA0020E7E770B504468F
:108C200025460120C043286328461430FFF7A2FCE4
:108C30002846FFF7A1FDFFF75DFD70BD70B5FBF79E
:108C400071FA0546144804683420005D0007000FDF
:108C500001281CD16169A069814218D020461430D6
:108C6000FFF788FC3522125DD2000C4BD01821464C
:108C700014314268116042684A604160086000BF78
:108C80002846FBF753FAFFF735FD002070BD284654
:108C9000FBF74CFA0020F9E764020020D0550020D1
:108CA00070B50546002D02DA0024E44315E07D216D
:108CB000C9002846FBF7B8FA7D21C900484304469D
:108CC0002846FBF7B1FA7D20C0004143401E0E1834
:108CD000411C3046FBF7A8FA0419204670BD00007D
:108CE00001480068704700001802002010B50A48CB
:108CF0000068401C08490860FFF72EFF0446206CFE
:108D0000401E2064206C002803D1E06B2064FFF734
:108D100095FF00F003F810BD1802002070B5FFF7B2
:108D2000DFFF0546FBF7FEF9064629E01948006813
:108D30000446143CA06A281A174988421FD22046CC
:108D4000FDF7E6FAE169206A8847FFF7C9FF0546A3
:108D5000607A0221084000280CD0607AC007C00F5A
:108D6000002807D0607A400840006072204600F07A
:108D700057F805E0607A40084000607200E004E0C7
:108D80000448FFF7EFFB0028D0D000BF3046FBF7C8
:108D9000CDF970BD78020020FFFFFF7F10B50346BC
:108DA000002909D0012904D0022908D0032910D1B3
:108DB0000AE0586A10600CE01068586209E0587ABE
:108DC0000224A043587204E0587A022420435872C7
:108DD00000BF00BF002010BD70B50446FBF7A2F92C
:108DE00005462046FDF794FA2846FBF79FF92046F2
:108DF000FFF71EFC002070BDF8B507460C4615466F
:108E00001E4622460A213846FFF73AFC0798009092
:108E1000324629463846069BFDF75CFAF8BD00004D
:108E2000FEB50546FBF77EF901902846FDF770FA7E
:108E3000687A4008400068720198FBF777F9FFF7FD
:108E40004FFF696A4018A862FBF76CF90190334F35
:108E50000097002430E01BE0A2006B469A5811688E
:108E60001422E300D218881A826AAB6AD21A00D19F
:108E700007E0826AAB6AD21A294B9A4200D20FE00D
:108E800000BFA000694608580068A1006A4650501B
:108E9000A00069460858E100C91949688842DBD139
:108EA00000BF002C07D0A000694608580830611C9C
:108EB00089006A465050641C002CCCD019480068C8
:108EC000401C184908600846066829461431009875
:108ED000FFF741FB022414E0B007800F00280DD1FA
:108EE0000122121BD2002B461433D1180122121B6F
:108EF00092006B469858FFF72EFB00E003E0B6089F
:108F0000641C012CE8D900BF687A0121084368720B
:108F10000198FBF70BF90020FEBD0000780200204D
:108F2000FFFFFF7F8002002070B50446607AC00713
:108F3000C00F002801D1401E70BDFBF7F3F80546B5
:108F40002046FDF7E5F92846FBF7F0F8607A40087F
:108F5000400060720020EFE7FFB58BB00B9C0B9CCC
:108F60000C9826180B9CA64204D20026F6430B98B8
:108F7000301A0C908AE10D980078252806D0B4426A
:108F800002D20D9800782070641C7CE1002526E058
:108F90000D98401C0D900D9800782D2802D11020BE
:108FA00005431CE00D9800782B2802D104200543CE
:108FB00015E00D980078202802D1082005430EE026
:108FC0000D980078232802D12020054307E00D9852
:108FD0000078302802D10120054300E000E0D7E707
:108FE00000BF0027FF430D98007830380A2804D2CC
:108FF0000DA800F093FA07460EE00D9800782A2895
:109000000AD10D98401C0D900E9880C80E90002F2C
:1090100002DA7F42102005430020C04303900D98E0
:1090200000782E281ED10D98401C0D900D980078C8
:1090300030380A2804D20DA800F070FA03900CE032
:109040000D9800782A2808D10D98401C0D900E9894
:10905000006803900E98001D0E900398002801DA16
:1090600000200390002004900D980078682803D019
:109070000D9800786C2805D10D98007804900D9813
:10908000401C0D900A2005900D9800786F2873D031
:109090000CDC632813D004DC25286ED058286DD151
:1090A00098E064286BD06928F9D19AE0702874D0D0
:1090B000732826D075286FD07828F0D18DE0102045
:1090C0002840002808D104E0B44201D220202070BA
:1090D000641C781E071EF7DC0E980178001D0E90A8
:1090E000C8B20790B44201D207982070641C04E013
:1090F000B44201D220202070641C781E071EF7DCC9
:10910000C1E00E98006806900E98001D0E9006981B
:10911000002801D168A006900698FFF7DBFB0890B5
:109120000398002805DD03990898884201DD03981B
:1091300008901020284000280AD104E0B44201D24F
:1091400020202070641C38467F1E08998842F5DC78
:10915000002009900BE0B44202D2069800782070FB
:10916000641C0698401C06900998401C09900899B8
:1091700009988842EFDB09E029E022E035E02FE0A2
:109180000BE0B44201D220202070641C38467F1EC0
:1091900008998842F5DC76E026E0781C002802D1A8
:1091A00008270120054303980097029501900E9827
:1091B00004C8102331460E902046FEF7C9FE04462F
:1091C00061E0B44201D225202070641C5BE00820DD
:1091D00005901EE04020054300BF1020059018E0D8
:1091E00000BF0220054300BF13E0B44201D2252096
:1091F0002070641C0D980078002806D0B44202D27A
:109200000D9800782070641C02E00D98401E0D90AF
:1092100039E000BF04986C280CD10E9800680A90C1
:109220000E98001D0E900220284000281FD00A989A
:109230000A901CE0049868280DD10E980188001D42
:109240000E9088B20A900220284000280FD00A9879
:1092500000B20A900BE00E9800680A900E98001D6C
:109260000E9002202840002801D00A980A90039806
:1092700000970295019031462046059B0A9AFEF719
:1092800067FE044600BF0D98401C0D900D980078B5
:10929000002800D06FE60C98002808D0B44202D213
:1092A0000020207003E0002130462038C1770B9861
:1092B000201A0FB0F0BD0000284E554C4C2900007C
:1092C0000020704700207047002070470020704742
:1092D00010B5FAF727FFFFF74BF8FFF7A3FAFFF7F0
:1092E0005DFBFFF71DFBFEF7D3FFFFF765FBFFF705
:1092F000D7FBFFF73BFB002010BD000010B501219C
:10930000C9020448FDF706FA034A04490148FDF77B
:109310002DFA10BD00E803086D070000564100203B
:1093200010B50121C9020448FDF7F4F9034A0449C4
:109330000148FDF71BFA10BD00F00308FA07000012
:10934000C348002010B50121C9020548FDF7E2F924
:109350009122920003490248FDF708FA10BD00006F
:1093600000E003089E15002010B50121C902044841
:10937000FDF7D0F9C02203490148FDF7F7F910BD08
:1093800000D80308DE14002070B505460C462B00FB
:10939000FCF706FF0A061824303C515D6975838F7F
:1093A000002C07D101204449C87001210020FDF79D
:1093B000C3FB06E000204049C87001210846FDF7C4
:1093C000BBFB77E0002C04D102210020FDF7B4FBA9
:1093D00003E002210120FDF7AFFB6BE0002C04D17C
:1093E00004210020FDF7A8FB03E004210120FDF784
:1093F000A3FB5FE0002C04D108210020FDF79CFBBB
:1094000003E008210120FDF797FB53E0002C0DD16C
:1094100029488079002804D110210120FDF78CFB18
:1094200008E010210020FDF787FB03E01021012058
:10943000FDF782FB3EE0002C04D120210020FDF747
:109440007BFB03E020210120FDF776FB32E0002CBE
:1094500004D140210020FDF76FFB03E040210120F3
:10946000FDF76AFB26E0002C04D180210020FDF7E7
:1094700063FB03E080210120FDF75EFB1AE0002C76
:1094800005D101210920C006FBF706FB04E00121FC
:109490000920C006FBF7FEFA0CE0002C04D10421E1
:1094A0000648FBF7F9FA03E004210448FBF7F2FA57
:1094B00000E000BF00BF70BDF818002000040048A5
:1094C000C178022902D0C178012905D10321C170D8
:1094D000C178817000210180704700000188491C1B
:1094E00001800C498978002903D130210A4A118072
:1094F00002E00021084A11800188074A128891423F
:1095000006DD8178012903D00121C170C178817005
:1095100070470000F8180020CE010020014600200E
:1095200008E00B685A1C0A601B780A2242439A180A
:10953000104630380A681278303A0A2AF1D3704758
:1095400010B5FEF71BFEFEF70BFE0A480078FF2859
:1095500004D1002007490870FFF7D0FE06480078C4
:10956000FF2806D100200449087004494876FFF717
:10957000D7FE10BD56410020C3480020A350002054
:10958000704710B5FEF73CF8FDF72AF8FCF7D2FF5C
:10959000FCF72AFFFCF7D4FEFCF756F900F008F8B8
:1095A00000F086F800F072F8FDF74AFD10BD0000EB
:1095B00000B589B01B21684601700321417001216B
:1095C0008170FBF77BFA01214804FBF707FB0122BE
:1095D0000921C806FBF732FA01220A210920C00638
:1095E000FBF72CFA032040020790022108A8017023
:1095F000002181700121C1700321417007A9092058
:10960000C006FBF7D3F901218803FBF717FB4B20BA
:10961000C0010190002002900390049006900C205D
:10962000059001A91548FCF735FB00BF4021134800
:10963000FCF7DEFA0028F9D0012204210F48FCF7DC
:10964000CDFA012208210D48FCF7A5FB01210B48AA
:10965000FCF73FFA01220A490848FCF7FAFA002011
:109660000849488008800121C9020748FAF709FE25
:1096700000210448017109B000BD0000003801401C
:1096800005010500840A00208402002010B5002096
:109690000549488008800121C9020448FAF7F1FD14
:1096A00000200149087110BDD8140020D80C0020FA
:1096B00000B589B01C21684601700021417001216C
:1096C0008170FBF7FBF901214804FBF787FA0122BF
:1096D00002210920C006FBF7B1F90122032109206C
:1096E000C006FBF7ABF90C200790022108A8017017
:1096F000002181700121C1700321417007A9092057
:10970000C006FBF753F901214804FBF777FAE12083
:1097100040020190002002900390049006900C20DB
:10972000059001A90F48FCF7B5FA00BF40210D488C
:10973000FCF75EFA0028F9D0012204210948FCF761
:109740004DFA012208210748FCF725FB01210548B5
:10975000FCF7BFF9012204490248FCF77AFA09B084
:1097600000BD0000004400400501050070B505463D
:109770000C461C4800681C490968884212D91948DF
:10978000006819490968401A19280BD200BF15480A
:10979000006815490968401A1928F8D81148006866
:1097A000114908601AE00A201049087000BF1048EB
:1097B000C069802108400028F9D028780C49203160
:1097C00008816D1C601E84B208480078002805D10D
:1097D0000748FCF78BF9FFF76BFF01E0002CE2D1A3
:1097E00000BF70BDC800002040010020F80000202C
:1097F00000440040704700003EB50446002C04D0F1
:10980000032C45D0062C44D12EE0002022490870BC
:109810008020A023214A002100900846FDF7D3FCB8
:109820001E481FA2019054230092029000220121A1
:109830001046FDF713FD0A20FDF7CCF8002802D1F1
:1098400000F054F80FE08020A023144A002100907B
:109850000846FDF7B8FC42209223124A1F210090CF
:109860000720FDF7A1FC15E001200F490873002136
:109870000720FFF789FD09480C490DA268230092D3
:1098800001910290002201210846FDF7E7FC01E06A
:1098900000E000BF00BF3EBD440100205DEF0000BE
:1098A00020202000ACE60008B81800203A3900005B
:1098B000D2D1BFAAC6F4D0B4C2EBC4A3CABD0000C3
:1098C00008B55220A023034A202100900020FDF774
:1098D0007AFC08BDFFFF000010B5002002490870A7
:1098E000FFF78AFF10BD0000480100203EB5044686
:1098F0002300FCF755FC0604FDFCFBFA91F921203E
:10990000974908708020A023964A002100900846BD
:10991000FDF759FCFFF7D4FF93A000F051F90E209A
:10992000A023904A722100900020FDF74CFC914842
:109930008C4991A2282300920191029005220021D6
:109940000846FDF78BFC8B4886498D4A00920191B1
:10995000029006204043421D282300210846FDF7BF
:109960007DFC84487F4987A23C23009201910290AC
:10997000052200210846FDF771FC7E487949804A9E
:10998000113A009201910290062041004018421DB8
:109990003C2300210846FDF761FC764871497AA214
:1099A0005023009201910290052200210846FDF704
:1099B00055FC7748407802280FD16E486949744AAF
:1099C0005632009201910290062081004018421DFB
:1099D000502300210846FDF741FC6D48A030407B34
:1099E00000280CD163485F496AA264230092019168
:1099F0000290052200210846FDF730FC0BE05D488F
:109A0000584968A264230092019102900522002126
:109A10000846FDF723FCA0E051480078212868D1D2
:109A20005B48A030407B63490978884226D058487B
:109A3000A030407B5F49087064210020FDF7D2FB15
:109A40005348A030407B00280CD14A48454951A2D8
:109A50006423009201910290052200210846FDF73F
:109A6000FDFB0BE043483F494EA264230092019165
:109A70000290052200210846FDF7F0FB444840789B
:109A80004D490978884217D0414840784A490870C2
:109A90003F48407802280FD1364832493C4A563276
:109AA000009201910290062081004018421D50232F
:109AB00000210846FDF7D2FB40480078012846D136
:109AC00000203E4908702821FDF78CFB29482549D4
:109AD00029A2282300920191029005220021084624
