:020000040800F2
:1040000090630020CD400008F9480008D141000825
:1040100000000000000000000000000000000000A0
:10402000000000000000000000000000914F0008A8
:1040300000000000000000004F4100085D50000833
:10404000FD40000800000000154E0008FD4000087B
:10405000FD400008E1460008F54600080947000851
:1040600000000000A3440008B3440008B544000861
:10407000FD400008FD400008FD4000080000000071
:10408000FD40000899510008FD400008FD4000086F
:10409000FD400008FD400008FD400008FD4000080C
:1040A000FD400008FD400008FD40000809530008DD
:1040B000A1530008FD4000080348854600F0DAF8E7
:1040C00000480047EF420008906300200C4880F34E
:1040D00008880C480168090E0B4A914205D10B482B
:1040E0000B4901600B480C4901600C4880470C48A3
:1040F0000047FEE7FEE7FEE7FEE7FEE7FEE700001B
:1041000090630020040000001F000000181002400F
:104110000100000000000140000000001D510008E7
:10412000B9400008EFF3108072B6704780F3108832
:1041300070472A4A1368012B03D001231360284AD1
:104140001060284A11602848284901607047EFF341
:10415000108272B62148016800291DD0002101603B
:104160001F48016800290AD0EFF30981203900684F
:104170000160F0C144464D4656465F46F0C11949BC
:1041800009680968F0C9F0B4F0C9A046A946B2466A
:10419000BB46F0BC81F3098882F3108804204042BA
:1041A0000047104908600E49002008600B490120B3
:1041B00008600F480F490268114301600A480B4923
:1041C00001600D480068006880F3088862B6704797
:1041D000EFF3098000B502F07FFB00BD580100201D
:1041E000500100205401002004ED00E00000001008
:1041F00020ED00E00000FF0008ED00E030B50B46C8
:10420000014600202022012409E00D46D5409D42B0
:1042100005D31D469540491B254695404019154636
:10422000521E002DF1DC30BD70B50024254600285B
:1042300001DA01244042002901DA01254942FFF751
:10424000DDFFAC4200D04042002C00D0494270BD9E
:10425000D2B201E00270401C491EFBD2704700221E
:10426000F6E710B513460A4604461946FFF7F0FF75
:10427000204610BD064C0125064E05E0E36807CC3C
:104280002B430C3C98471034B442F7D3FFF718FF88
:10429000DC8300080C84000870B58C180578401C7D
:1042A0006B075B0F01D10378401C2A1106D10278FD
:1042B000401C03E006780E70401C491C5B1EF9D1BF
:1042C0002B0705D40023521E0DD40B70491CFAE7AE
:1042D0000378401CCB1A921C03E01D780D70491C1A
:1042E0005B1C521EF9D5A142D8D3002070BD10B579
:1042F00003F0E6FD002010BD10B50B460021846AD6
:104300001C43846200BF0C4614432146416110BD2A
:10431000002904D0826801231A43826003E0826886
:1043200002231A4382607047002904D0C268012327
:104330001A43C26003E0C26852085200C26070476C
:10434000C26802239A43C260C2680A43C2607047CF
:1043500000B58DB00121084600F06EFB194800F051
:10436000C9F81948029019480390002004900420CD
:104370000590002006908020079040000890800063
:10438000099020200A9000020B9000200C9002A9B6
:104390000C4800F085F9022000F08EF8012202217D
:1043A000084800F073F90921684601710121817103
:1043B000417101A800F0B0FA0121024800F08CF828
:1043C0000DB000BD0800024040240140D200002092
:1043D00010B504460548844207D10121401500F07C
:1043E0005BFB0021601500F057FB10BD002401406D
:1043F00030B501460020002200238C680125ED071E
:104400002C438C6000BF8C68E30FDB07521C0F2429
:104410002403A24201D0002BF5D18C68E40FE407FD
:10442000002C01D1086C00E0002030BD30B5024600
:1044300000200023012424060C40002C05D09468A1
:1044400001252D06AC43234600E013681C460C40B2
:10445000002C01D0012000E0002030BD10B500226A
:10446000C268084B1A400C7964030B6823438C68BC
:104470002343CC6823430C6923434C6923431A43E9
:10448000C26010BD03D2FFFF816804221143816026
:1044900070470021016001718160C160016141616B
:1044A000704710B5022000F0D7F8022000F004F8A1
:1044B00010BD704770470000012109070140002925
:1044C00002D00349486001E002494860704700009B
:1044D0000004024000000240002904D002680123C9
:1044E0001A43026003E00268014B1A400260704701
:1044F000FEFF00000168554A114001600021016083
:1045000041608160C1605249884208D150490839F0
:1045100049680F2211434E4A083A516094E04C49D1
:104520001431884208D14A4908394968F0221143B8
:10453000474A083A516087E045492831884209D105
:104540004349083949680F2212021143404A083A88
:10455000516079E03E493C31884209D13C490839F3
:1045600049680F2212031143394A083A51606BE03F
:1045700037495031884209D13549083949680F22F5
:1045800012041143324A083A51605DE03049643107
:10459000884209D12E49083949680F221205114372
:1045A0002B4A083A51604FE029497831884209D1B5
:1045B0002749083949680F2212061143244A083A4C
:1045C000516041E02349884208D1224908394968AD
:1045D0000F2211431F4A083A516035E01D4914313A
:1045E000884208D11B4908394968F0221143194A09
:1045F000083A516028E017492831884209D1154905
:10460000083949680F2212021143124A083A5160D0
:104610001AE010493C31884209D10E4908394968ED
:104620000F22120311430B4A083A51600CE009496A
:104630005031884208D10749083949680F221204CD
:104640001143044A083A516070470000FEFF000021
:104650000800024008040240014600200022012315
:104660001B070B40002B02D0064B1A6801E0064BDB
:104670001A6813460B40002B01D0012000E00020F7
:10468000704700000004024000000240002A03D0EE
:1046900003680B43036002E003688B4303607047C9
:1046A00010B5002202680D4B1A400C6A8B68234338
:1046B0000C6923434C6923438C692343CC6923430E
:1046C0004C6A23438C6A23431A430260CB684360DD
:1046D0000B6883604B68C36010BD00000F80FFFF54
:1046E00010B5034800F038F8014800F02FF810BD6D
:1046F000F0FF000010B5034800F02EF8014800F06C
:1047000025F810BDF0FF000010B50120C00200F038
:1047100029F8002805D001F04FFD0120C00200F06B
:1047200015F80120000300F01DF8002805D001F065
:1047300087FD0120000300F009F8034800F00CF8A1
:10474000014800F003F810BDF0FF00000149486186
:1047500070470000000401400149486170470000B3
:104760000004014001460020044A52690A40002A20
:1047700001D0012000E0002070470000000401404B
:10478000002120498279002A35D00A461268036840
:104790009A430B461A600A46526803689A430B46CE
:1047A0005A60027951180A6803681A430A60154A68
:1047B000926803689A43134B9A601A46D26803685A
:1047C0009A43104BDA604279102A0CD11A4692684B
:1047D00003681A430B4B9A601A46D26803681A435F
:1047E000084BDA600DE00749427951180A680368FE
:1047F0001A430A6005E0027951180A6803689A436F
:104800000A60704700040140F0B50A460021002309
:10481000002400BF3DE001258D402B4615681D405A
:104820002C469C4234D11579012D02D01579022DE8
:1048300016D185684F000326BE40B5438560557983
:104840004E00B540866835438560858801268E40D8
:10485000B5438580858896798E40B6B2354385808C
:1048600005684F000326BE40B543056015794E002C
:10487000B540066835430560C5684F000326BE4055
:10488000B543C560D5794E00B540C6683543C560AF
:10489000491C1029BFD3F0BDF0B5002300244D07FB
:1048A000EE0E1546B5402B46CD10AE000546203520
:1048B000AD594E07F70E0F26BE40B543CE10B600D9
:1048C00007462037BD51CD10AE003D46AD591D43C2
:1048D0002C46CD10AD003E467451F0BD024600207E
:1048E000138A0B40002B01D0012000E0002070470C
:1048F000018570478161704772B600BFBFF34F8F6B
:1049000003480449C860BFF34F8F00BF00BFFEE7F4
:104910000400FA0500ED00E000218278002A27D08B
:10492000184A03231B02D21803789B109B00D1580E
:1049300002789207D30EFF229A400B469343194602
:1049400042789207120E03789B07DB0E9A401143C0
:104950000C4A03231B02D21803789B109B00D150F2
:104960000278D306DB0E01229A40064B1A6007E05C
:104970000278D306DB0E01229A40024B80331A6084
:104980007047000000E100E010B5002819DA1A4A6B
:1049900003071B0F083B9B089B00D2588307DC0EC4
:1049A000FF23A3409A438B071B0E8407E40EA3400A
:1049B0001A43114B0407240F083CA408A4001A5101
:1049C00018E00E4A03231B02D21883089B00D2581A
:1049D0008307DC0EFF23A3409A438B071B0E84073B
:1049E000E40EA3401A43054B032424021B19840838
:1049F000A4001A5110BD00001CED00E000E100E031
:104A00000C4949680122920391430A4A51601146B8
:104A1000496882B21143074A51601146096B9215E9
:104A20009143044A11631146096B020C1143014A78
:104A30001163704700100240002905D0054A5269F1
:104A40000243044B5A6104E0024A52698243014B1B
:104A50005A61704700100240002905D0054AD2690A
:104A60000243044BDA6104E0024AD2698243014BFB
:104A7000DA61704700100240002905D0054A9269AA
:104A80000243044B9A6104E0024A92698243014B5B
:104A90009A61704700100240002905D0054AD2688B
:104AA0000243044BDA6004E0024AD2688243014BBD
:104AB000DA60704700100240FEB50446002500266B
:104AC00000200290019000900027864840680C2149
:104AD00008400546002D06D0042D07D0082D08D02B
:104AE0000C2D2CD128E0804820602BE07E482060EF
:104AF00028E07C4840680F21890408400646794830
:104B000040680321C90308400290B00C861C02983B
:104B1000002803D17548374647430BE07148C06A07
:104B20000007000F401C01906F480199FFF766FBDA
:104B300070430746276005E06D48206002E06A4840
:104B4000206000BF00BF67484068F021084005466C
:104B50002D096848405D009020680099C840606059
:104B60006048406807210902084005462D0A61484F
:104B7000405D009061680098C140A1605948006B99
:104B8000FF2101310840884202D05B48E0600DE01F
:104B900054484068012189030840884203D0A06836
:104BA0004008E06002E0A0688008E0604D48006BCB
:104BB00040210840402802D05048206102E00120F6
:104BC000C00320614748006B10210840102802D024
:104BD0004548606101E0206860614248006B8007E1
:104BE000800F002802D1A068A06119E03D48006B49
:104BF0008007800F012802D12068A06110E03948A9
:104C0000006B8007800F022802D18003A06107E0BB
:104C10003448006B8007800F032801D13248A0611F
:104C20003048006B032109040840002802D1A06825
:104C3000E06120E02B48006B0321090408400121BA
:104C40000904884202D12068E06114E02548006B25
:104C500003210904084001214904884202D180103F
:104C6000E06108E01F48006B032109040840884206
:104C700001D11D48E0611B48006B032189040840F5
:104C8000002802D1A068206220E01648006B0321B2
:104C90008904084001218904884202D120682062E9
:104CA00014E01048006B0321890408400121C90465
:104CB000884202D10011206208E00A48006B0321FB
:104CC00089040840884201D1074820620548006BEA
:104CD00080210840802802D00548606200E06762B9
:104CE000FEBD00000010024000127A0000093D00E5
:104CF000006CDC0229010020809FD500128000009A
:104D0000014600BFF020084000110A235843024624
:104D10000807000F8018C0B270470146002204E067
:104D2000501CC2B208460A38C1B20A29F8DA100784
:104D3000000E08437047000010B5002101098022D1
:104D40000A4392B2D243044BDB68802423401A43C7
:104D5000014BDA6010BD00000028004008B50022B9
:104D6000009200200021124AD26840231A40002AF3
:104D70001BD1421E0E4BDA6000BF0D4AD2684023A1
:104D80001A401146009A521C00921B02009A9A4245
:104D900001D00029F1D0064AD26840231A40002AE7
:104DA00001D0012002E0002000E0012008BD000049
:104DB000002800400348C068802188430149C8603A
:104DC000704700000028004070B501460020002216
:104DD00000230F4C246804252C4022460C4C403CF8
:104DE000A4680C408E0C0D46F540ED0B15402C438D
:104DF0002346074C403CE4680D092C402246002B1A
:104E000004D094B2002C01D0012000E0002070BD3D
:104E10004028004008B501200003FFF7D5FF002817
:104E20000AD000216846C1700170417081706946E6
:104E3000012000F00BF800BF01200003FFF77CFF0A
:104E400001204004FFF788FC08BD0000F8B50546C6
:104E50000C46002600200090002D0AD12F488068C3
:104E600040210840002800D002E00020E07000BF90
:104E70000EE02A48806840210840002804D02078AD
:104E8000FFF73EFF064602E00020E07000BF00BFD3
:104E9000002D0BD020780004617809020843A17826
:104EA0000843E17809040843064610E02078FFF73C
:104EB00034FF07046078FFF730FF00020743A07853
:104EC000FFF72BFF0743E078000407433E46CA2064
:104ED0001249486253204862FFF740FF002801D181
:104EE000009016E00E4830400C490860FFF762FF62
:104EF0000A48806820210840002808D100F012F8F4
:104F0000002801D1009004E00120009001E0012080
:104F10000090FF20014948620098F8BD0028004039
:104F20007F7F7F0008B50022009200200021174AF1
:104F3000926820231A40002A01D0012025E0CA22CD
:104F4000124B5A6253225A621A46D268A0239A43DD
:104F50000E4BDA6000BF0D4AD26820231A4011467A
:104F6000009A521C00929B02009A9A4201D000299A
:104F7000F1D0064AD26820231A40002A01D001202D
:104F800000E00020FF22014B5A6208BD00280040CB
:104F90007047000030B500228B071C0F0F23A34081
:104FA0001A460B4B8C10A4001B599343084C8D10D0
:104FB000AD00635123468C10A4001B598C07250FAC
:104FC0000446AC402343024C8D10AD00635130BD0C
:104FD000080001400CB500200190009011201D49EF
:104FE00008601D4840681C494860084640684860A1
:104FF000084640687F21C90388431749486008462E
:1050000040680521C9040843134948600846006800
:105010000121090608431049086000BF0E480068D6
:105020000121490608400028F8D00B484068800854
:105030008000094948600846406802210843064943
:10504000486000BF044840680C2108400828F9D196
:105050000CBD0000002002400010024010B501F01D
:10506000D3FC02F03BFC01F0DFFC10BDF8B50025DD
:10507000002400260027244840680C2108400546EB
:10508000002D04D0042D06D0082D2AD107E01F489A
:105090001F49086029E01D481D49086025E01A489D
:1050A00040680F21890408400446174840680321DE
:1050B000C90308400646A00C841C002E04D11548E4
:1050C0006043134908600BE00F48C06A0007000FF7
:1050D000471C39460D48FFF791F860430C490860BA
:1050E00003E00A480A49086000BF00BF064840685C
:1050F000F0210840000908490D5C05480068E840B7
:1051000003490860F8BD00000010024000127A0058
:105110003C01002000093D004001002010B51B4863
:105120000068012108431949086008464068184989
:105130000840164948600846006816490840134967
:105140000860084600680121890488430F49086007
:10515000084640683F21090488430C4948600846D6
:10516000C06A00090001C8620846006BFF21543183
:105170008843064908630846406B4008400048637E
:1051800000208860FFF726FF10BD000000100240DD
:105190000CB8FF08FFFFF6FE10B50121064800F02D
:1051A00057F8002807D000F07BFD00F0AFFE01218A
:1051B000014800F03CF810BD001000401FB500246D
:1051C0000021174800F036F801211020FFF744FCB9
:1051D000112168460170012141708170FFF79CFB2D
:1051E000012400BF092002900E49684681800021F9
:1051F0008181C18001A90A4800F048F801210848CE
:1052000000F012F801221146054800F034F80020A1
:10521000034948620121024800F00CF81FBD00005C
:1052200000100040BF120000CA4302827047CA4308
:1052300002827047002904D0028801231A430280A9
:1052400003E00288014B1A4002807047FEFF000015
:1052500030B50246002000230024158A0D402B465D
:1052600095890D402C46002B03D0002C01D0012045
:1052700000E0002030BD002A03D083890B438381E6
:1052800002E083898B4383817047000000220288FB
:10529000154B984206D001239B07984202D0134B2E
:1052A000984203D1124B1A404B881A43114B984233
:1052B00003D0114B1A400B891A4302804B68C3621A
:1052C0000B880385084B984208D00C4B984205D0B8
:1052D0000B4B984202D00B4B984201D18B7A03863C
:1052E0000123838270470000002C0140000400402D
:1052F0008FFF000000100040FFFC00000040014054
:10530000004401400048014010B52049204800F009
:10531000BAF8002834D01D491D4800F08BF81D490B
:105320000988481CC117490D0918C912C902411A38
:10533000184A528891420CD0154800F069F9C1B260
:10534000144802880088401C124B1880124881546F
:1053500002E00F4800F05CF90E490888C117490DBA
:105360000918C912C902411A0A4A118001201146BE
:1053700008712021064800F05BF8032007490880E7
:105380000021C943024800F053F810BD0501050093
:105390000038014024120020240A0020C40000200C
:1053A00010B51F491F4800F06EF8002831D01C4985
:1053B0001C4800F03FF81C490988481CC117490DDA
:1053C0000918C912C902411A174A528891420CD0D1
:1053D000144800F01DF9C1B2134802880088401C2F
:1053E000114B18801148815402E00E4800F010F96A
:1053F0000D490888C117490D0918C912C902411A77
:10540000094A11800120114608712021054800F049
:105410000FF80021C943034800F00AF810BD00004E
:105420000501050000440040781C0020781400208D
:105430000162704710B5002300220B0C01249C4030
:105440002246026210BD002904D0026801231A43DB
:10545000026003E002685208520002607047002AAE
:1054600003D003680B43036002E003688B430360CF
:10547000704702460020D3690B40002B01D0012069
:1054800000E00020704770B502460B460024002162
:10549000002500201E04350ED9B201268E4031466B
:1054A000012D02D11668314006E0022D02D1566866
:1054B000314001E0966831401C0C0126A64034467C
:1054C000D6693440002903D0002C01D0012000E02F
:1054D000002070BDF8B50346002400260096002584
:1054E000002018460E04340ECEB200960127009E0E
:1054F000B7403D46022C01D1001D02E0032C00D133
:105500000830002A03D006682E43066002E00668D1
:10551000AE430660F8BD0000F0B58BB004460D4602
:10552000002700200A9000262068400840002060E4
:10553000666803210903304688430646A868064387
:10554000666026682D480640E9686868084329694E
:10555000084306432660A6680321090230468843B3
:10556000064668690643A6606846FFF7A5FA244820
:10557000844202D106980A900DE02248844202D16A
:1055800007980A9007E02048844202D108980A90C0
:1055900001E002980A9020680121C9030840002810
:1055A0000CD029680A9A5000FEF728FE07462968A1
:1055B0000A9A5000FEF722FE0E4609E029680A9872
:1055C000FEF71CFE074629680A98FEF717FE0E46EE
:1055D00028684008B04200D87F1C20680121C90318
:1055E0000840002806D03807460F384607490840CB
:1055F00030430746A7810BB0F0BD0000F3E9FFFF81
:10560000003801400044004000480040F0FF000026
:105610000146888CC005C00D7047002A03D0038B5B
:105620000B43038302E0038B8B430383704700002B
:105630000146481E084A904201D901207047481E81
:10564000064A5061FF20064AD0700020034A90614C
:10565000072010610020F1E7FFFFFF0000E000E0FD
:1056600020ED00E030B47446641E2578641CAB4223
:1056700004D3635D5B00E31830BC18471D46F8E7B0
:105680000146002900D17047C8B2002804D0C8B232
:10569000114A105C401CF6E7FF2000020840002879
:1056A00007D0FF200002084000120B4A105C0930AE
:1056B000E9E7FF2000040840002807D0FF2000048D
:1056C00008400014044A105C1130DCE7080E024A5E
:1056D000105C1930D7E70000A682000802E008C875
:1056E000121F08C1002AFAD170477047002001E05C
:1056F00001C1121F002AFBD170470000034908684E
:10570000884201D0012070470020FCE7DC01002026
:10571000FEB5044615461E460A9F204614304060DA
:10572000006000BF256266620898A0620998E06286
:105730002321E26AA06A01F012FBE16AA06A401824
:10574000021F606A0190206A114B0090019901F0DC
:105750003BF9E06136200755352007550020A0634E
:105760000B98E0630B982064002020630021342014
:10577000015500202067606700902346054A2146B6
:1057800001902046443002F02FF90020FEBD0000B9
:10579000A17500080D780008FFB581B004460E46DB
:1057A00017460A986072607A400840006072E661AD
:1057B00027620020A06204986062002506E0EA00EB
:1057C00021461431501801F0A3F96D1C012DF6DBB0
:1057D00005B0F0BD10B50246002001460EE0CC0039
:1057E00013461433E0180468436863604468036830
:1057F00023604060006000BF481C01460129EEDBC9
:1058000010BD000000B587B02548FFF7F9F8012169
:105810004802FFF731F92348FEF7DAFD01A8FEF749
:1058200038FE002001900120694608720020039094
:105830000590069001A91B48FEF710FE07220221E1
:105840001848FEF759FD072210211648FEF754FDAF
:10585000072240211348FEF74FFD072280211148FF
:10586000FEF74AFD0F48FEF7C3FD02210D48FEF783
:1058700067FD01210B48FEF757FD01210948FEF79E
:1058800047FD00BF08490748FEF7D0FD0028F9D0C2
:105890000448FEF7F9FDFEF75BFD07B000BD000010
:1058A0000040000100240140010000011CB502205D
:1058B000009003216846417101710021C171694660
:1058C0000920C006FEF7A0FF1020009003216846C3
:1058D000417101710021C17169460920C006FEF7BE
:1058E00093FF40200090032168464171017100211F
:1058F000C17169460920C006FEF786FF802000902E
:1059000003216846417101710021C1716946092076
:10591000C006FEF779FF1CBD10B5C0220549C803BB
:1059200001F0EEF9044800680321084302490860C9
:10593000002010BD00400008000001401CB52848B0
:1059400000F06CFE02200090002168464171017158
:105950000121C17169462248FEF756FF204800F038
:105960005DFE012000900021684641710171012116
:10597000C17169461A48FEF747FF1A4800F04EFE0B
:105980000120009000216846417101710121C1711F
:1059900069461448FEF738FF0920C00600F03EFEB5
:1059A0002020009000216846417101710121C171E0
:1059B00069460920C006FEF727FF0920C00600F04F
:1059C0002DFE0120C0030090002168464171017145
:1059D0000121C17169460920C006FEF715FF1CBDF3
:1059E00000140048000400481CB54A4800F016FEA8
:1059F000012040030090002168464171012101719E
:105A0000C17169464348FEF7FFFE01214903414841
:105A1000FEF76EFF3F4800F001FE0120800300907A
:105A200000216846417101210171C17169463948FF
:105A3000FEF7EAFE012189033648FEF759FF354893
:105A400000F0ECFD0120C003009000216846417188
:105A500001210171C17169462E48FEF7D5FE012171
:105A6000C9032C48FEF744FF2B4800F0D7FD042063
:105A7000009000216846417101210171C1716946A0
:105A80002548FEF7C1FE04212348FEF733FF2248D4
:105A900000F0C4FD02200090002168464171012100
:105AA0000171C17169461C48FEF7AEFE02211A4819
:105AB000FEF71EFF0920C00600F0B0FDFF200130F8
:105AC000009000216846417101210171C171694650
:105AD0000920C006FEF798FEFF2101310920C0060B
:105AE000FEF706FF0920C00600F098FD0120009097
:105AF00000216846417101210171C1716946092087
:105B0000C006FEF781FE01210920C006FEF7F0FE67
:105B10001CBD0000000800480004004810B5044601
:105B200020460A380300FFF79DFD06040B131C23D3
:105B30002C3501211B48FEF7D1FE1B4908702DE0D2
:105B400020210920C006FEF7C9FE1749087025E08C
:105B50000121C9030920C006FEF7C0FE12490870E2
:105B60001CE002210F48FEF7B9FE0F49087015E04E
:105B7000012109030920C006FEF7B0FE0A4908709A
:105B80000CE00121C9020920C006FEF7A7FE064964
:105B9000087003E000200449087000BF00BF0248FD
:105BA000007810BD0014004814010020014800785E
:105BB000704700002801002008B50020009018E080
:105BC0000023DB43012269460A4801F01FF900283F
:105BD0000FD10121022002F089F9FF20F53001F0F8
:105BE0008BFD0021022002F081F9FF20F53001F049
:105BF00083FDE5E7F001002070B5044600251CE0B8
:105C00000121C9031348FEF773FE802020400028BD
:105C100005D0012149030F48FEF76CFE04E0012185
:105C200049030C48FEF764FE6006040E0121C90317
:105C30000848FEF75FFE681CC5B2082DE0DB0121B5
:105C400089030448FEF754FE012189030148FEF749
:105C500051FE70BD0008004870B505460C46002D89
:105C600005D10848007820430649087004E005483B
:105C70000078A0430349087002480078FFF7BCFF92
:105C800070BD00001C010020002181700180C178DE
:105C9000012903D10021C170012101717047000069
:105CA00010B50A20FFF73AFF002803D1794802F027
:105CB000C7F902E0774802F0B5F90B20FFF72EFF95
:105CC000002804D17348001D00F0EEF803E071488D
:105CD000001DFFF7D9FF0C20FFF720FF002804D19B
:105CE0006C480A3000F0E0F803E06A480A30FFF739
:105CF000CBFFFFF75BFF68490978884207D0FFF7C1
:105D000055FF6549087000206449087004E0634845
:105D10000078401C614908706148807800280BD1E8
:105D20005E480078322812DD00205C4908705A482D
:105D300000785C4908700AE058480078082806DDB9
:105D40000020564908705448007856490870554854
:105D500000780300FFF786FC110A4B50555A645F28
:105D6000696E73787D82878C91969B0049481030CC
:105D7000FFF78AFF47481630FFF786FF45481C307B
:105D8000FFF782FF43482230FFF77EFF414828306B
:105D9000FFF77AFF3F482E30FFF776FF3D4834305B
:105DA000FFF772FF3B483A30FFF76EFF394840304B
:105DB000FFF76AFF37484630FFF766FF35484C303B
:105DC000FFF762FF3348523002F02CF93148563069
:105DD00002F028F92F485A3002F024F92D485E309D
:105DE00002F020F92B48623002F01CF950E02948FB
:105DF000523002F025F94BE02648563002F020F9E7
:105E000046E024485A3002F01BF941E021485E3058
:105E100002F016F93CE01F48623002F011F937E059
:105E20001C484C3000F040F832E01A48103000F0C6
:105E30003BF82DE01748163000F036F828E01548FA
:105E40001C3000F031F823E01248223000F02CF82A
:105E50001EE01048283000F027F819E00D482E30D9
:105E600000F022F814E00B48343000F01DF80FE089
:105E700008483A3000F018F80AE00648403000F0D0
:105E800013F805E00348463000F00EF800E000BFCC
:105E900000BF10BDD04800202001002021010020BB
:105EA000982000201E01002015498978002907D17B
:105EB0003021144A11804B21C900134A118005E09A
:105EC0000021104A118064210F4A11808178002935
:105ED00015D10188491C018001880A4A1288914223
:105EE00001DD0121C1700188074A1288914206DD57
:105EF0000021C17001800121817002210171704770
:105F00009820002024010020260100208948C08814
:105F10008949884213DD8748C0888749A031884273
:105F20007ADA844880888549884209DD81488088FA
:105F30008249A031884203DA0120814908706BE070
:105F40007C4880887F49884209DD7A4880887D497D
:105F5000A031884203DA0220794908705CE0754874
:105F600080887949884209DD724880887649A03165
:105F7000884203DA0820724908704DE06D48808835
:105F80007249884209DD6B4880886E498F398842A2
:105F900003DA09206A4908703EE0664880886C4947
:105FA000884209DD6348808867498839884203DA76
:105FB0000B20634908702FE05E488088654988425D
:105FC00009DD5C48808861497439884203DA0C2015
:105FD0005B49087020E0574880885F49884209DDA6
:105FE000544880885C49A031884203DA0E20544925
:105FF000087011E04F4880885849884209DD4D48B3
:1060000080885649A031884203DA0F204C49087035
:1060100002E000204A490870464880884649884284
:1060200014DD444880884449A03188420EDA414852
:10603000C0884249091D884209DD3E48C0883F4961
:10604000A431884203DA03203D49087071E03948E1
:10605000C0883C49891E884209DD3648C0883949D4
:106060009E31884203DA04203549087061E03148E6
:10607000C0883649491C884209DD2E48C08831490C
:106080008E39884203DA05202D49087051E02948ED
:10609000C0883249884209DD2648C0882F49A0318E
:1060A000884203DA06202649087042E02148C08869
:1060B0002849891E884209DD1E48C088234976394F
:1060C000884203DA07201E49087032E01948C08868
:1060D0001D49891E884209DD1648C0881A499E312B
:1060E000884203DA0A201649087022E01148C08865
:1060F00017490A31884209DD0E48C08812497E39A5
:10610000884203DA0D200E49087012E00948C08861
:106110001149091F884209DD0648C0880E499C3193
:10612000884203DA10200649087002E00020044982
:1061300008707047D2000020AF0F00004709000030
:10614000280100203B0E0000B10700000C0D0000EC
:1061500089060000F80B00001A050000AC0A0000D8
:106160000EB50B210020FEF715FF0120C0020190A3
:10617000002168460172102141720121817201A83B
:10618000FEF7FEFA0C210020FEF704FF01200003B9
:106190000190002168460172102141720121817233
:1061A00001A8FEF7EDFA0721684601700121417050
:1061B0008170FEF7B1FB0EBD10B50E20FFF7AEFCEF
:1061C00001281BD11B480078422810D11A480078BA
:1061D000002805D11749087002201849087028E0E6
:1061E00000201449087001201449087021E0412062
:1061F000104908700020104908701AE00D48007816
:10620000422810D10C480078002805D109490870AF
:1062100001200A4908700CE000200649087002209D
:106220000649087005E04120024908700120024932
:10623000087010BDCC000020CD000020DA00002046
:1062400010B50F20FFF76AFC01281BD11B4800780E
:10625000412810D11A480078002805D11749087044
:1062600001201849087028E0002014490870022015
:106270001449087021E0422010490870002010499C
:1062800008701AE00D480078412810D10C480078B9
:10629000002805D10949087002200A4908700CE05D
:1062A00000200649087001200649087005E04220D8
:1062B0000249087001200249087010BDCC0000207E
:1062C000CD000020DA0000201CB500241EE0A10053
:1062D000104A505800F0A2F960000F49085A009087
:1062E00000216846417101210171C171A100094A73
:1062F00050586946FEF788FA6200074B995AA20087
:10630000044B9858FEF7F4FA601CC4B20D2CDEDB87
:106310001CBD0000E00000208C820008FEB5254F67
:10632000781E2549884200D90CE0781E234948612F
:106330000321081FFEF728FB002020498861072061
:10634000086100BF01F0AEFE00200121C902012357
:106350001B4A009101901BA11B4800F026FD04463A
:10636000002C05D019A000F0B3FB0020C043FEBDF7
:1063700014200421C0230022009101901A491BA07F
:1063800001F0E5F80546002D02D0284601F004FA98
:1063900014200421C023002200910190164913A06B
:1063A00001F0D5F80646002E02D0304601F0F4F98F
:1063B0000120DCE780BB0000FFFFFF0000E000E001
:1063C000240200206D717400F0010020696E697470
:1063D000206D6573736167652071756575652066ED
:1063E00061696C65642E0A00996600086C656473C7
:1063F00068696E6500000000B95B000810B50446CE
:1064000000F090F9FFF78AFF10BD000030B51B4C7B
:10641000436824681919884216D04B88002B13D181
:10642000174B1B6899420FD0164B1B688B4201D14A
:10643000144B18604B684360104B1B68C31A0F4D18
:106440004C682D686419A3600C4C836824681A1981
:10645000824212D05388002B0FD10A4B1B68834213
:1064600001D1084B1A6043685360044B1B68D41A6F
:10647000024D43682D685B199C6030BD64010020AB
:10648000680100206C010020FFB58BB00446154662
:10649000169E1598049014980290402030400028D1
:1064A00001D05C4800E05C48039010203040002898
:1064B00001D076087600F007C00F002801D0302008
:1064C00000E020200A90002009900220304000289F
:1064D00012D0002D03DA2D2009906D420CE004202B
:1064E0003040002802D02B20099005E008203040E1
:1064F000002801D0202009900027002D05D130224E
:1065000038467F1C05A90A541DE01AE00E98019038
:1065100001980A280AD128460A21FDF76FFE00914A
:1065200028460A21FDF76AFE054603E02807000F0A
:1065300000902D09009803990A5C38467F1C05A934
:106540000A54002DE2D11598874200DD1597159960
:106550000298401A029011203040002814D1099866
:10656000002805D00298002802DD0298401E029003
:1065700005E00C98844201D220202070641C02980F
:10658000411E02910028F4DC0998002808D00C98DC
:10659000844201D2099820700298401E0290641C27
:1065A0001020304000280BD105E00C98844201D225
:1065B0000A982070641C0298411E02910028F4DCA5
:1065C00005E00C98844201D230202070641C15989C
:1065D000411E1591B842F4DC06E00C98844202D2C8
:1065E00005A8C05D2070641C38467F1E002802DDAF
:1065F00004980028F1D105E00C98844201D22020B3
:106600002070641C0298411E02910028F4DC204690
:106610000FB0F0BDB7830008A683000810B504468C
:106620000920C006844204D101214804FEF704FA7F
:1066300026E01448844204D101210002FEF7FCF94F
:106640001EE01148844204D101210002FEF7F4F952
:1066500016E00E48844204D101210805FEF7ECF94A
:106660000EE00B48844204D101214002FEF7E4F918
:1066700006E00848844203D101218805FEF7DCF9D1
:1066800010BD00000004004800080048000C00484D
:10669000001000480014004808B54120009019E09F
:1066A00068460078401CC1B20091012269460A4840
:1066B00000F02EFC0021032001F018FCFF20F53033
:1066C00001F01AF80121032001F010FCFF20F53041
:1066D00001F012F8E4E70000F00100201CB51420DE
:1066E0000221CB01002200910190044904A000F096
:1066F0002EFF0446204601F04FF81CBDFD63000844
:106700006D61696E0000000010B5044C02E0206865
:106710008047241D02488442F9D310BDCC83000871
:10672000D483000810B5044C02E020688047241D83
:1067300002488442F9D310BDD4830008D8830008EE
:1067400010B5FDF7EFFC044604480088401C00B279
:10675000024908802046FDF7E9FC10BDCC0100206D
:1067600010B5FDF7DFFC04460D480088401E00B25E
:106770000B49088008460021415E00290CDC0020FE
:10678000074908802046FDF7D1FC0648006800282C
:1067900005D000F093FC02E02046FDF7C7FC10BDD9
:1067A000CC010020D001002070B50546002D00D19D
:1067B00070BD1F480068854203D31E4800688542AB
:1067C00000D3F5E72C460C3C0021C9431A4800F0E1
:1067D0003CFD6088002804D02088F52149018842CA
:1067E00008D016A000F074F92388628821461AA008
:1067F00000F06EF900206080F520400120802248E2
:106800000068844201D22048046009496068096830
:10681000611A401A1D490968081A1C490860204677
:10682000FFF7F4FD044800F0F2FC00BFC0E70000F1
:106830006401002068010020304B0020746F206646
:106840007265652061206261642064617461206208
:106850006C6F636B3A0A00006D656D3A20307825E5
:106860003038782C207573656420666C61673A2037
:1068700025642C206D6167696320636F64653A202D
:106880003078253034780A006C0100207401002033
:1068900000487047904B002000487047905B0020F4
:1068A00070B5FEF7E3FB7D21C90009480068FDF7DC
:1068B000A5FC0446FEF7BCFEFFF726FFFFF7ECFF42
:1068C0000446FFF7E5FF0546214600F079FD70BD5F
:1068D0003C01002070470000044613A0E16900F06D
:1068E000F7F815A0A16900F0F3F817A0616900F0AE
:1068F000EFF819A0216900F0EBF81BA0E16800F0A7
:10690000E7F81DA0A16800F0E3F81FA0616800F09F
:10691000DFF821A0216800F0DBF82348016823A0FC
:1069200000F0D6F800BFFEE77073723A2030782589
:106930003038780A000000002070633A2030782553
:106940003038780A00000000206C723A2030782538
:106950003038780A000000007231323A2030782551
:106960003038780A000000007230333A2030782541
:106970003038780A000000007230323A2030782532
:106980003038780A000000007230313A2030782523
:106990003038780A000000007230303A2030782514
:1069A0003038780A00000000D0010020686172646D
:1069B000206661756C74206F6E2074687265616406
:1069C0003A2025730A000000FFB50C46101DC008D0
:1069D000C00040380146002503E00A4EAF00CE510A
:1069E0006D1C102DF9D30C6200264E628E62CE62B1
:1069F0000E634B63009E8E6301263606CE6304B0A1
:106A0000F0BD0000EFBEADDE10B5FDF78BFB044618
:106A100004480078401C034908702046FDF786FBB7
:106A200010BD00006001002010B5FDF77BFB04469F
:106A300004480078401E034908702046FDF776FBA5
:106A400010BD00006001002070B5044620680546B6
:106A5000143D284600F05AFE002070BDF7B50546EB
:106A60000C46204600F0B0FE0298002802D0012813
:106A700022D105E021461431284600F061F81BE0E0
:106A80002E680EE03746143F3520015DC05D81421F
:106A900006DA214614313846143000F051F802E08D
:106AA0003668AE42EED100BFAE4204D12146143169
:106AB000284600F045F800BF00BF0020FEBD10B51D
:106AC00004462046143000F01DF8002010BD0000E0
:106AD0000FB438B505A800907F210948009B049A9F
:106AE00001F032F804467F2C00D97F240448FFF7D8
:106AF000F1FE0020009038BC08BC04B0184700002C
:106B0000B04A0020406000607047406000607047FD
:106B10004060006070470268516002680A6001606E
:106B2000486070470268516002680A60016048600E
:106B300070470268516002680A60016048607047EF
:106B40004268116042684A604160086070470146CF
:106B50000868884201D1012070470020FCE7014607
:106B60000868884201D1012070470020FCE70268D4
:106B70004168516042680168116040600060704780
:106B800002684168516042680168116040600060BD
:106B900070470000F8B50546002D00D1F8BDE81C8F
:106BA0008508AD004F480068854201D90020F5E70F
:106BB0000C2D00D20C250021C9434B4800F045FBA9
:106BC0004A4800684A490968461A7FE04848006810
:106BD00084196088002875D130460C306168081A25
:106BE000A8426FD330460C306168091A2846183025
:106BF000814230D330460C30401900903C48016847
:106C000000980F18F52040013880002078806068D7
:106C10007860BE60009860600120608031487968CB
:106C200000680C30814205D00098314A79681268BA
:106C3000891888602F48016828460C3008182D49AB
:106C400008602D4800680968884219D22948006800
:106C50002949086014E001206080254960680968BE
:106C6000611A401A234909684018224908602248DD
:106C700000680968884203D21E4800681E490860FF
:106C8000F5204001208019480068844213D107E0B4
:106C9000164800684068164909684018134908609A
:106CA000124800684088002805D010480068134941
:106CB00009688842ECD10C4800F0A9FA20460C3053
:106CC0006CE7FFE70A4800688019466805480068D5
:106CD000401BB04200D979E7034800F098FA002041
:106CE0005CE7000070010020304B00206C010020A8
:106CF0006401002074010020780100206801002058
:106D0000F7B51646009C019D3346102B1CD3A807EF
:106D1000800FA707BF0F3843002815D121462A4608
:106D200008E001CA01C101CA01C101CA01C101CA09
:106D300001C1103B102BF4D202E001CA01C11B1F9C
:106D4000042BFAD20C46154603E0287820706D1CFF
:106D5000641C18465B1E0028F7D10098FEBDF7B5ED
:106D60000546019EF4B2042A17D38607B60F002EFB
:106D700013D101462602264333461E04334304E062
:106D800008C108C108C108C1103A102AF8D201E0B0
:106D900008C1121F042AFBD20D4601E02C706D1CA5
:106DA0001646521E002EF9D1FEBDFFB581B0044635
:106DB0000F463A460621204600F04CF90B986072C7
:106DC0002046FFF77CFE0398E0610498C01C800811
:106DD00080002084208C011D0A98FDF70FFA608442
:106DE0000020A062E0622063002608E0208C001DE5
:106DF0007043E1690D18206B28602563761C608C58
:106E0000B042F3DC0020A08405B0F0BDFFB583B034
:106E100004460F460020019000F096FC0546FDF761
:106E200081F90290A08C002809D10698002806D18B
:106E30000298FDF77BF90120C04307B0F0BD3FE0A9
:106E4000002028630698002806D10298FDF76EF905
:106E50000120C0432863F0E7627A294620461430B7
:106E6000FFF7FCFD069800280CDD00F031FD0190D5
:106E700006AA00212846443000F088FD2846443008
:106E800000F0C6FD0298FDF751F900F017F9286BE4
:106E9000002801D0286BD0E7FDF744F9029006984E
:106EA00000280DDD00F014FD0199401A01900699AB
:106EB0000198081A06900698002801DA002006902A
:106EC000A08C0028BCD0A66A3068A062E06AB042FC
:106ED00001D10020E062A08C401EA0840298FDF742
:106EE00025F9218C0598814201D2208C00E005987B
:106EF0000246311D3846FFF703FFFDF713F90290F4
:106F0000206B306026630298FDF710F9002094E7AB
:106F1000F8B504460F461646208CB04202D2002037
:106F2000C043F8BDFDF7FEF80090256B002D04D19D
:106F30000098FDF7FBF8E81EF3E728682063009847
:106F4000FDF7F4F80020286032463946281DFFF787
:106F5000D7FEFDF7E7F80090E06A002801D0E06A6C
:106F60000560E562A06A002800D1A562A08C401CE3
:106F7000A08420461430FFF7EAFD00280AD12046FD
:106F80001430FFF761FD0098FDF7D0F800F096F897
:106F90000020C6E70098FDF7C9F80020C1E7F8B562
:106FA00006460F46304600F043F80546E868FFF70E
:106FB000F1FD0446002C00D1F8BD00212046EA680E
:106FC000FFF7CDFE26720020607208223946204667
:106FD00000F0D9F9FDF7A6F8009021460C31281DE4
:106FE000FFF799FD0098FDF7A1F82046E4E770B59A
:106FF000044600202072FDF795F8054620460C3027
:10700000FFF7B5FD2846FDF791F82046FFF7CCFBCA
:1070100070BD70B5044600202072FDF783F8054668
:1070200020460C30FFF7A3FD2846FDF77FF870BD22
:107030000246002108E00801054B185C904202D18D
:107040000801C0187047491C0529F4DB0020F9E746
:107050007C010020F7B582B004460D460026284684
:10706000FFF7E6FF0746FFF76BFB7E6802E030465E
:107070000C383668381D8642F9D1FFF771FB802045
:107080002843207208222046049900F07CF9FDF77D
:1070900049F8019021460C31381DFFF73CFD01985D
:1070A000FDF744F805B0F0BD0146087A8022104093
:1070B000002801D0012070470020FCE7F8B5FDF75B
:1070C00031F8074618480088002827D1174800687B
:1070D000FEF7D6FA461EF000154908580446143C3F
:1070E00014480068844218D013490E70114805688E
:1070F000046012480078002809D121461C31284636
:107100001C30FDF716F83846FDF710F8F8BD21469B
:107110001C3128461C30FDF70CF800BF3846FDF73F
:1071200005F800BFF2E70000CC010020D8010020E4
:10713000504B0020D0010020D4010020600100202D
:1071400070B50446FCF7EEFF05463420005D0009EB
:10715000000101210843342108553522125DD20077
:107160000A4BD018214614314268116042684A60C7
:107170004160086000BF0649A06B096808430449E4
:1071800008602846FCF7D2FF70BD0000504B00207D
:10719000D801002070B50446FCF7C4FF0546204620
:1071A00014300268416851604268016811604060B3
:1071B000006000BF3521095DC9000A4A88180168CE
:1071C000814201D1012100E00021002905D00648BB
:1071D000A16B00688843044908602846FCF7A6FFB5
:1071E00070BD0000504B0020D8010020F8B50446C7
:1071F0000D4616461F462A4602212046FFF72AFF63
:107200002046FFF75CFCA68367720020F8BD70B5CE
:1072100004460025FCF786FF064620461430FFF79B
:1072200096FC002805D120461430FFF70DFC0125FF
:1072300002E0A08B401CA0833046FCF777FF012DB5
:1072400001D1FFF73BFF002070BD73B50546FCF789
:1072500069FF0646A88B002806DDA88B401EA88380
:107260003046FCF763FF2AE00198002805D130463C
:10727000FCF75CFF0120C0437CBD00F065FA0446CA
:10728000002020636A7A214628461430FFF7E6FB87
:107290000198002809DD01AA00212046443000F0B1
:1072A00075FB2046443000F0B3FB3046FCF73EFF50
:1072B000FFF704FF206B002801D0206BDCE70020E3
:1072C000DAE7000008B509A0FFF702FC0AA0FFF703
:1072D000FFFB12A0032301221946009012A0FFF722
:1072E000F7FB19A0FFF7F4FB08BD00000A205C20A3
:1072F0007C202F0A000000002D205254202D202039
:10730000202020546872656164204F70657261743A
:10731000696E672053797374656D0A004D61722040
:107320003137203230323100202F207C205C202069
:1073300020202025642E25642E2564206275696C2A
:10734000642025730A0000002032303036202D20C2
:107350003230313920436F70797269676874206206
:10736000792072742D746872656164207465616D32
:107370000A00000001460A4600E0521C107800286E
:10738000FBD1501A704770B50346002A15D0184635
:107390000C4600BF25780570641C401C002D07D1E9
:1073A00002E000250570401C551E2A1EF9D102E09E
:1073B000551E2A1EEED100BF00BF184670BD00004A
:1073C000F3B581B00546E81C8608B6000298870828
:1073D000BF00182F08D938461838B04204D3B81B5C
:1073E00018381E49086005E029461DA0029AFFF7DB
:1073F0006FFBFEBD294806600468F520400120802F
:10740000164800680C3060600020A060608023494E
:1074100060680968401822490860F5204001096841
:10742000088001201E49096848800C4800680C301B
:107430001B4909684860094800680C301849096808
:1074400088600023012217A11848FFF7CFFE1348D8
:1074500000681749086000BFCBE7000070010020FA
:107460006D656D20696E69742C206572726F722073
:10747000626567696E206164647265737320307839
:1074800025782C20616E6420656E642061646472CE
:1074900065737320307825780A00000064010020AD
:1074A000680100206865617000000000304B00201A
:1074B0006C01002010B500200B490880002405E075
:1074C000E1000A4A8818FFF720FB641C082CF7DB50
:1074D000072007490870002006490860064908602F
:1074E0000648FFF712FB10BDCC010020504B0020D6
:1074F000D4010020D0010020D8010020DC010020B0
:1075000070B508480068FEF7BBF8451EE80006495C
:1075100008580446143C0548046020461C30FCF71B
:1075200040FE70BDD8010020504B0020D00100204B
:1075300010B5002405E0E100034A8818FFF7E8FAD7
:10754000641C002CF7D010BDE40100207047FFB58B
:1075500085B006460F461D4631460120FFF71FFD48
:1075600004900498002801D109B0F0BD2846FFF727
:1075700011FB0446002C04D10498FFF738FD0020CD
:10758000F2E70E990F9801950094029103903A4604
:107590003146079B0498FEF7BBF80498E4E7000027
:1075A00070B513480468FCF7BDFD05462046FFF79B
:1075B000F1FD0421342001552046443000F004FA46
:1075C0002046FFF771FD012806D1206F002803D166
:1075D0002046FFF71EFD04E0214614310548FFF761
:1075E000A1FA2846FCF7A2FDFFF768FD70BD000078
:1075F000D0010020DC01002001E000F001F8FCE7F0
:1076000070B53CE0FCF78EFD0546FEF777F80028E4
:1076100027D01E4800680446143C204614300268F7
:10762000416851604268016811604060006000BFBD
:10763000FFF786F8206F002802D02046216F884788
:107640002046FFF731FD012808D12046FFF7E1FC75
:10765000FFF786F82846FCF769FD70BDFFF780F854
:1076600003E02846FCF762FDF7E72846FCF75EFDDD
:10767000A06AFFF799F82046FFF7B9FC00BFFEF7B4
:107680003DF80028BED100BFE7E70000DC01002084
:107690001FB520200721C200074B009301920291E1
:1076A00003900023054A06A1074800F00FF806489A
:1076B00000F072F81FBD0000B0490020F975000805
:1076C0007469646C6500000038490020FFB585B01E
:1076D0000C460EADE0CD224601210598FFF7BAFC1D
:1076E00011986946E0C103902146089B079A0598C6
:1076F000FEF70EF809B0F0BD70B50446204600F064
:10770000C7F80546284600F025F870BD70B5044658
:107710003420005D0007000F022802D00020C04383
:1077200070BDFCF7FFFC054620461430FFF728FA31
:107730002046443000F0F0F92846FCF7F7FC2046DC
:10774000FFF7FEFC0020EBE70148006870470000EF
:10775000D001002031B5FCF7E5FC05460D48046872
:10776000204600F031F86A4600212046443000F0FF
:107770000DF92046443000F04BF92846FCF7D6FCC2
:10778000FFF79CFC206B801C002800D120630020A8
:1077900038BD0000D001002010B504463620015D40
:1077A00035200155015D01208840A063022134206D
:1077B00001552046FFF7AAFFFFF7C6FF002801D0BA
:1077C000FFF77CFC002010BD70B504463420005D3E
:1077D0000007000F012802D00020C04370BDFCF755
:1077E000A1FC05463420005D000900010221084388
:1077F000342108552046FFF7CDFC2046443000F0E8
:107800008BF92846FCF792FC0020E7E770B50446A8
:1078100025460120C043286328461430FFF7B0F9FD
:107820002846FFF78DFCFFF749FC70BD70B5FCF7EB
:1078300079FC0546144804683420005D0007000FF9
:1078400001281CD16169A069814218D020461430FA
:10785000FFF796F93522125DD2000C4BD018214665
:1078600014314268116042684A604160086000BF9C
:107870002846FCF75BFCFFF721FC002070BD284682
:10788000FCF754FC0020F9E7D0010020504B002009
:1078900070B50546002D02DA0024E44315E07D2191
:1078A000C9002846FCF7C0FC7D21C90048430446B6
:1078B0002846FCF7B9FC7D20C0004143401E0E184D
:1078C000411C3046FCF7B0FC0419204670BD000096
:1078D00001480068704700005C01002010B50A48AC
:1078E0000068401C08490860FFF72EFF0446206C22
:1078F000401E2064206C002803D1E06B2064FFF759
:1079000095FF00F003F810BD5C01002070B5FFF793
:10791000DFFF0546FCF706FC064629E0194800682B
:107920000446143CA06A281A174988421FD22046F0
:10793000FDF750FFE169206A8847FFF7C9FF054658
:10794000607A0221084000280CD0607AC007C00F7E
:10795000002807D0607A400840006072204600F09E
:1079600057F805E0607A40084000607200E004E0EB
:107970000448FFF7F4F80028D0D000BF3046FCF7E9
:10798000D5FB70BDE4010020FFFFFF7F10B503466B
:10799000002909D0012904D0022908D0032910D1D7
:1079A0000AE0586A10600CE01068586209E0587AE2
:1079B0000224A043587204E0587A022420435872EB
:1079C00000BF00BF002010BD70B50446FCF7AAFB45
:1079D00005462046FDF7FEFE2846FCF7A7FB20469D
:1079E000FFF717FB002070BDF8B507460C4615469B
:1079F0001E4622460A213846FFF72CFB07980090C6
:107A0000324629463846069BFDF7C6FEF8BD000003
:107A1000FEB50546FCF786FB01902846FDF7DAFE29
:107A2000687A4008400068720198FCF77FFBFFF716
:107A30004FFF696A4018A862FCF774FB0190334F4E
:107A40000097002430E01BE0A2006B469A581168B2
:107A50001422E300D218881A826AAB6AD21A00D1C3
:107A600007E0826AAB6AD21A294B9A4200D20FE031
:107A700000BFA000694608580068A1006A4650503F
:107A8000A00069460858E100C91949688842DBD15D
:107A900000BF002C07D0A000694608580830611CC0
:107AA00089006A465050641C002CCCD019480068EC
:107AB000401C184908600846066829461431009899
:107AC000FFF737F8022414E0B007800F00280DD12B
:107AD0000122121BD2002B461433D1180122121B93
:107AE00092006B469858FFF724F800E003E0B608D0
:107AF000641C012CE8D900BF687A01210843687230
:107B00000198FCF713FB0020FEBD0000E4010020FB
:107B1000FFFFFF7FEC01002070B50446607AC007CC
:107B2000C00F002801D1401E70BDFCF7FBFA0546CE
:107B30002046FDF74FFE2846FCF7F8FA607A400829
:107B4000400060720020EFE7FFB58BB00B9C0B9CF0
:107B50000C9826180B9CA64204D20026F6430B98DC
:107B6000301A0C908AE10D980078252806D0B4428E
:107B700002D20D9800782070641C7CE1002526E07C
:107B80000D98401C0D900D9800782D2802D11020E2
:107B900005431CE00D9800782B2802D104200543F2
:107BA00015E00D980078202802D1082005430EE04A
:107BB0000D980078232802D12020054307E00D9876
:107BC0000078302802D10120054300E000E0D7E72B
:107BD00000BF0027FF430D98007830380A2804D2F0
:107BE0000DA800F04DFA07460EE00D9800782A28FF
:107BF0000AD10D98401C0D900E9880C80E90002F51
:107C000002DA7F42102005430020C04303900D9804
:107C100000782E281ED10D98401C0D900D980078EC
:107C200030380A2804D20DA800F02AFA03900CE09C
:107C30000D9800782A2808D10D98401C0D900E98B8
:107C4000006803900E98001D0E900398002801DA3A
:107C500000200390002004900D980078682803D03D
:107C60000D9800786C2805D10D98007804900D9837
:107C7000401C0D900A2005900D9800786F2873D055
:107C80000CDC632813D004DC25286ED058286DD175
:107C900098E064286BD06928F9D19AE0702874D0F4
:107CA000732826D075286FD07828F0D18DE0102069
:107CB0002840002808D104E0B44201D220202070DE
:107CC000641C781E071EF7DC0E980178001D0E90CC
:107CD000C8B20790B44201D207982070641C04E037
:107CE000B44201D220202070641C781E071EF7DCED
:107CF000C1E00E98006806900E98001D0E90069840
:107D0000002801D168A006900698FFF733FB089081
:107D10000398002805DD03990898884201DD03983F
:107D200008901020284000280AD104E0B44201D273
:107D300020202070641C38467F1E08998842F5DC9C
:107D4000002009900BE0B44202D20698007820701F
:107D5000641C0698401C06900998401C09900899DC
:107D600009988842EFDB09E029E022E035E02FE0C6
:107D70000BE0B44201D220202070641C38467F1EE4
:107D800008998842F5DC76E026E0781C002802D1CC
:107D900008270120054303980097029501900E984B
:107DA00004C8102331460E902046FEF76DFB0446B2
:107DB00061E0B44201D225202070641C5BE0082001
:107DC00005901EE04020054300BF1020059018E0FC
:107DD00000BF0220054300BF13E0B44201D22520BA
:107DE0002070641C0D980078002806D0B44202D29E
:107DF0000D9800782070641C02E00D98401E0D90D4
:107E000039E000BF04986C280CD10E9800680A90E5
:107E10000E98001D0E900220284000281FD00A98BE
:107E20000A901CE0049868280DD10E980188001D66
:107E30000E9088B20A900220284000280FD00A989D
:107E400000B20A900BE00E9800680A900E98001D90
:107E50000E9002202840002801D00A980A9003982A
:107E600000970295019031462046059B0A9AFEF73D
:107E70000BFB044600BF0D98401C0D900D98007838
:107E8000002800D06FE60C98002808D0B44202D237
:107E90000020207003E0002130462038C1770B9885
:107EA000201A0FB0F0BD0000284E554C4C290000A0
:107EB0000020704700207047002070470020704766
:107EC00010B5FCF72FF9FEF7EBFCFFF7FBF9FFF716
:107ED0002FFBFFF7EFFAFEF701FCFFF737FBFFF789
:107EE000D7FBFFF70DFB002010BD000070B5054665
:107EF0000C462B00FDF7B6FB0A061824303C515DFA
:107F00006975838F002C07D101204449C870012175
:107F10000020FDF7A1FE06E000204049C8700121C5
:107F20000846FDF799FE77E0002C04D102210020DD
:107F3000FDF792FE03E002210120FDF78DFE6BE0CC
:107F4000002C04D104210020FDF786FE03E004216B
:107F50000120FDF781FE5FE0002C04D10821002004
:107F6000FDF77AFE03E008210120FDF775FE53E0DE
:107F7000002C0DD129488079002804D1102101203E
:107F8000FDF76AFE08E010210020FDF765FE03E022
:107F900010210120FDF760FE3EE0002C04D12021DD
:107FA0000020FDF759FE03E020210120FDF754FEDB
:107FB00032E0002C04D140210020FDF74DFE03E00B
:107FC00040210120FDF748FE26E0002C04D180214D
:107FD0000020FDF741FE03E080210120FDF73CFE7B
:107FE0001AE0002C05D101210920C006FCF782FC13
:107FF00004E001210920C006FCF77AFC0CE0002C0B
:1080000004D104210648FCF775FC03E00421044870
:10801000FCF76EFC00E000BF00BF70BD98200020A0
:1080200000040048C178022902D0C178012905D195
:108030000321C170C1788170002101807047000068
:108040000188491C01800C498978002903D130211D
:108050000A4A118002E00021084A11800188074A7B
:108060001288914206DD8178012903D00121C17077
:10807000C178817070470000982000202201002004
:108080000146002008E00B685A1C0A601B780A228F
:1080900042439A18104630380A681278303A0A2A51
:1080A000F1D3704710B5FEF70FF9FDF79DFCFDF712
:1080B00045FCFDF7FBFBFDF7A5FBFDF77FF800F0A6
:1080C00007F800F085F800F071F8FEF749F810BDE8
:1080D00000B589B01B216846017003214170012160
:1080E0008170FCF719FC01214804FCF7A5FC012272
:1080F0000921C806FCF7D0FB01220A210920C0068D
:10810000FCF7CAFB032040020790022108A8017077
:10811000002181700121C1700321417007A909204C
:10812000C006FCF771FB01218803FCF7A5FC4B207E
:10813000C0010190002002900390049006900C2052
:10814000059001A91548FDF7E7F900BF4021134844
:10815000FDF78FF90028F9D0012204210F48FDF71F
:108160007EF9012208210D48FDF757FA01210B483D
:10817000FDF769F901220A490848FDF7ABF900202B
:108180000849488008800121C9020748FCF767F8C0
:1081900000210448017109B000BD00000038014011
:1081A0000501050024120020240A002010B500203B
:1081B0000549488008800121C9020448FCF74FF8AE
:1081C00000200149087110BD781C0020781400209F
:1081D00000B589B01C216846017000214170012161
:1081E0008170FCF799FB01214804FCF725FC012272
:1081F00002210920C006FCF74FFB012203210920C0
:10820000C006FCF749FB0C200790022108A801706A
:10821000002181700121C1700321417007A909204B
:10822000C006FCF7F1FA01214804FCF715FCE12037
:1082300040020190002002900390049006900C20D0
:10824000059001A90F48FDF767F900BF40210D48CF
:10825000FDF70FF90028F9D0012204210948FDF7A4
:10826000FEF8012208210748FDF7D7F9012105484A
:10827000FDF7E9F8012204490248FDF72BF909B09E
:1082800000BD00000044004005010500080010008A
:1082900020004000800000010002000400080010DF
:1082A00000200040008000000100020001000300E7
:1082B00001000200010004000100020001000300AF
:1082C000010002000100050001000200010003009E
:1082D000010002000100040001000200010003008F
:1082E000010002000100060001000200010003007D
:1082F000010002000100040001000200010003006F
:10830000010002000100050001000200010003005D
:10831000010002000100040001000200010003004E
:10832000010002000100070001000200010003003B
:10833000010002000100040001000200010003002E
:10834000010002000100050001000200010003001D
:10835000010002000100040001000200010003000E
:1083600001000200010006000100020001000300FC
:1083700001000200010004000100020001000300EE
:1083800001000200010005000100020001000300DD
:1083900001000200010004000100020001000300CE
:1083A00001000200010030313233343536373839BC
:1083B0006162636465660030313233343536373894
:1083C0003941424344454600BD7E0008B57E000861
:1083D00019590008B17E0008B97E00080C84000815
:1083E000C40000202C010000984200080C84000802
:1083F00000000020C0000000EC5600085C8400086B
:10840000F0010020A0610000EC560008011D1204DC
:108410000A2F480401182D01020304044506070829
:1084200009AC6CDC021B6917012832011380012A98
:1084300020043278294D1A900C2904322032051A72
:10844000A00C2904323032061AB00C29043234321E
:0C8450000A1AC00C290402272C000000AE
:04000005080040B9F6
:00000001FF
