:020000040800F2
:10000000A8200020CD0000083D0B0008E5080008EE
:1000100000000000000000000000000000000000E0
:10002000000000000000000000000000550F000864
:100030000000000000000000910B0008B90F00084C
:10004000FD00000800000000350E0008FD0000085B
:10005000FD000008D504000891050008950500087A
:100060000000000061040008710400087304000827
:10007000FD000008FD000008FD0000080000000071
:10008000FD000008FD000008FD000008FD0000085C
:10009000FD000008FD000008FD000008FD0000084C
:1000A000FD000008FD000008FD0000082910000800
:1000B0002D100008FD0000080348854600F0BEF939
:1000C00000480047211B0008A82000200C4880F3AE
:1000D00008880C480168090E0B4A914205D10B486B
:1000E0000B4901600B480C4901600C4880470C48E3
:1000F0000047FEE7FEE7FEE7FEE7FEE7FEE700005B
:10010000A8200020040000001F000000181002407A
:10011000010000000000014000000000C90F0008BD
:10012000B900000830B50B4601460020202201240A
:1001300009E00D46D5409D4205D31D469540491B1B
:100140002546954040191546521E002DF1DC30BD64
:1001500070B500242546002801DA01244042002918
:1001600001DA01254942FFF7DDFFAC4200D04042F1
:10017000002C00D0494270BD01466139192900D8D0
:100180002038704703460B439B0703D009E008C99A
:10019000121F08C0042AFAD203E00B780370401C37
:1001A000491C521EF9D27047D2B201E00270401CC5
:1001B000491EFBD270470022F6E710B513460A46E7
:1001C00004461946FFF7F0FF204610BD421C017897
:1001D000401C0029FBD1801A704730B5044600202E
:1001E000034600E05B1C934203D2E05CCD5C401B05
:1001F000F8D030BDF0B50C465C4085B0E40FE407A4
:1002000003944C00002664085900944649080246AD
:100210000296224321D062460A431ED06200570D47
:100220004A000E032303550D012402462C492405E0
:10023000781B1B0B360B4018234326436146009066
:100240001C46501AB44103D30098401C009002E0B1
:10025000921800985B41002803DA0020014605B09F
:10026000F0BD0020012109050746864611E06446DD
:100270001D46141BB54106D36546521BB341744657
:1002800007430C43A646CD07400849082843921867
:100290005B4105460D43EAD11046184313D0604632
:1002A000194650407140084306D06046101AB341C9
:1002B00006D20122002306E000220123DB0702E030
:1002C0000122D2435310009874460105381C614145
:1002D000029C039D0019694100F051F8BFE700003E
:1002E000FD0300000EB505490291002100910A4668
:1002F0000B46019100F050F803B000BD330400003C
:100300004A0009030123090B1B051943094B10B5CA
:10031000520D9A4201DA002010BD064B34339A4246
:1003200003DC9A1A00F01AF810BD034951188840EE
:1003300010BD0000FF030000CDFBFFFF10B5202A19
:1003400004DB0146203A9140002010BD914020235B
:100350009C1A0346E3401943904010BD10B5202A73
:1003600004DB0846203AD040002110BD0B46D340A4
:10037000D0402024A21A91400843194610BD10B560
:10038000002B08DA0024401C614192185B411A439B
:1003900001D14008400010BDF0B51FB482B0054641
:1003A0000C0003D0084600F079FF02E000F076FF71
:1003B00020300246009021462846FFF7BFFF049BED
:1003C000059A04460F4618431143084314D01846B3
:1003D00010431BD0009840210A1A18460599FFF7D0
:1003E000BDFF05460E46009A05990498FFF7A6FF43
:1003F000084305D0012004E02046394607B0F0BD8F
:100400000020C11705430E432C43374300990E9833
:100410006305401A7905E40A00220C43FD0A0A30FC
:1004200002D500200146E9E70105101969410C9C3D
:100430000D9D00196941FFF7A2FFDFE7064C01257A
:10044000064E05E0E36807CC2B430C3C984710347C
:10045000B442F7D3FFF734FE542600087426000890
:1004600010B5022000F012F8022000F003F810BDD1
:1004700070477047C10002D5024948607047024981
:10048000486070470004024000000240024600201D
:10049000D10002D50449096801E004490968114204
:1004A00000D001207047000000040240000002401C
:1004B0007D22D20003E00021491C9142FCD3401E62
:1004C000411CF8D170470A2000BF401E80B20028AE
:1004D000FAD17047F8B572B6012000F073F8002821
:1004E00015D0294D2879002811D101272F71288096
:1004F00000260020401CC0B22028FBD30920012187
:10050000C00600F0E4F9002806D00220287101207E
:1005100000F04CF862B6F8BD00240020401CC0B2C8
:100520003E28FBD309200121C00600F0D0F90028A5
:1005300007D02888154A3B46115CA3401943115443
:1005400006E02888114A3B46115CA34099431154A8
:10055000641CE4B2082CE0D32888401C28800020CA
:10056000401CC0B23428FBD37D24E40004E03046B4
:10057000761CB6B2A042BBD809200121C00600F00B
:10058000A6F90028B4D0F2E740080020400000207F
:100590007047000010B5044C204600F00DF82046CE
:1005A00000F004F810BD0000F0FF000001494861B0
:1005B0007047000000040140014948617047000095
:1005C0000004014001460020024A52690A4200D05C
:1005D00001207047000401400149C86070470000D5
:1005E00000200240F0B506460B273F04384600F0D5
:1005F0006DF804280FD1084C20690225284320619A
:1006000066612069402108432061384600F05EF8A9
:100610002169A9432161F0BD00200240042008495E
:10062000CA68D20701D001207047CA68D20601D536
:1006300002207047C9684907FBD5032070470000B6
:100640000020024002480169802211430161704785
:1006500000200240F8B505460E46002000900B270A
:100660003F04384600F032F804280ED10E4C2069C1
:100670000121084320612E80384600F027F8042825
:1006800004D02169490849002161F8BDAD1C0095DD
:100690000098310C0180384600F018F821694908AB
:1006A00049002161F8BD00000020024004480169B2
:1006B000090603D5034941600349416070470000C2
:1006C0000020024023016745AB89EFCD00B503460A
:1006D000FFF7A4FF02E0FFF7A1FF5B1E012801D195
:1006E000002BF8D1002B00D1052000BD70B50646C7
:1006F0000D46FFF7DBFF2520FFF76EFF0024ED0A14
:1007000005E0E0028019FFF76DFF641CE4B2A5422A
:10071000F7D8FFF797FF70BD10B50B460146184696
:10072000FFF730FD10BD0000F7B584B006990498BE
:1007300040180499C90A0191401EC00A0090002582
:10074000FFF7B4FF2520FFF747FF049801994605FE
:10075000C00AC00203900098760D401A401C029017
:1007600043E02548FFF73EFF002D3DD10199009859
:10077000884239D100240398A700C01904221F49D8
:10078000FFF7CAFF1D491C48091F38184968FFF7C1
:1007900061FF641C012040028442ECD30498FFF7FF
:1007A00021FF002400271BE0A6420BD80698301832
:1007B000A04207D905980422C1191048FFF7E2FCAE
:1007C0003F1D05E00C4804220C492018FFF7A4FF48
:1007D0000A490398091F00194968FFF73BFF241DC8
:1007E0000120C0028442DFD36D1C0298A842B8D811
:1007F000FFF728FF07B0F0BD00E003081800002055
:10080000F8B506460D461746FFF750FF2520FFF7BF
:10081000E3FE00240EE028194278295D12028918AF
:100820008278C07812040006101809183019FFF7F2
:1008300011FF241DBC42EED3FFF704FFF8BDF0B555
:1008400000220325012393400C681C409C422AD1BE
:100850000C79012C01D0022C12D1876854002E464D
:10086000A640B74387604E79A640846826438660D9
:1008700084889C43848084888B7993401C43848043
:10088000066853002C469C40A64306600E79076814
:100890009E403E430660C668A643C660CC799C4035
:1008A000C3681C43C460521C102ACBD3F0BD10B5E2
:1008B0004B07DB0E9A40C90889000818016A0F240B
:1008C0009C40A1430162016A1143016210BD0246CE
:1008D0000020128A0A4200D001207047018570472B
:1008E00081617047BFF34F8F03490248C860BFF36F
:1008F0004F8FFEE70400FA0500ED00E010B501F0AF
:100900007BF800F005F9814C80212046FFF7E8FFD5
:1009100008212046FFF7E4FF0120FFF7C9FD082169
:100920002046FFF7DBFF0A20FFF7C2FD0821204623
:10093000FFF7D6FF6420FFF7BBFD112001F076F82A
:100940007820FFF7B5FDB12001F070F8052001F027
:10095000C3F83C2001F0C0F83C2001F0BDF8B42001
:1009600001F064F8002001F0B7F8C02001F05EF853
:10097000282001F0B1F8082001F0AEF8042001F0C1
:10098000ABF8C12001F052F8C02001F0A5F8C22058
:1009900001F04CF80D2001F09FF8002001F09CF8C8
:1009A000C32001F043F88D2001F096F82A2001F0D1
:1009B00093F8C42001F03AF88D2001F08DF8EE2074
:1009C00001F08AF8C52001F031F81A2001F084F80E
:1009D000C72001F02BF8B62001F07EF83A2001F094
:1009E00025F8052001F078F82A2001F01FF80020F2
:1009F00001F072F8002001F06FF8002001F06CF8AF
:100A00009F2001F069F82B2001F010F8002001F080
:100A100063F8002001F060F8002001F05DF87F200D
:100A200001F05AF8362001F001F8602001F054F886
:100A3000E02000F0FBFF042001F04EF8222001F03E
:100A40004BF8072001F048F80A2001F045F82E2065
:100A500001F042F8302001F03FF8252001F03CF889
:100A60002A2001F039F8282001F036F8262001F07C
:100A700033F82E2001F030F83A2001F02DF8002054
:100A800001F02AF8012001F027F8032001F024F8F2
:100A9000132001F021F8E12000F0C8FF042001F04C
:100AA0001BF8162001F018F8062001F015F80D20AB
:100AB00001F012F82D2001F00FF8262001F00CF8BB
:100AC000232001F009F8272001F006F8272001F083
:100AD00003F8252001F000F82D2000F0FDFF3B2059
:100AE00000F0FAFF002000F0F7FF012000F0F4FF13
:100AF000042000F0F1FF132000F0EEFFC820FFF704
:100B0000D7FC292000F092FF10BD0000000400482F
:100B100070B5094C08212046FFF7E0FEFF25F535AA
:100B20002846FFF7C5FC08212046FFF7D9FE2846D6
:100B3000FFF7BEFC70BD00000004004870470000D5
:100B400030B5827801240178002A16D08B080E4A2D
:100B50009B009A1813688907C90EFF258D40AB4387
:100B60004578AD072D0E8D401D4315600078C006F9
:100B7000C00E84400548046030BDC806C00E8440E5
:100B800002488030046030BD00E400E000E100E095
:100B900070470000054A002903D0516901435161A3
:100BA0007047516981435161704700000010024055
:100BB000054A002903D0D1690143D1617047D16949
:100BC0008143D1617047000000100240F8B504462F
:100BD00000215C4E70680C2210405B4D002820D034
:100BE000042820D0082820D00C2839D0256070682F
:100BF000F02210400009554B1F5C20680246FA4065
:100C000094466260726807273F023A40120A9B5C72
:100C10006246DA40A260336BDB0524D44C4BE360C0
:100C200029E02560E3E72560E1E771680F20800493
:100C3000014070680322D20310408F0CBF1C0028B3
:100C40000AD0F06A0107090F491C2846FFF76AFA23
:100C5000784301462160CAE73E4839464143F9E7F7
:100C60003D482060C3E773685B0402D45308E36027
:100C700001E09308E360336B5F06384B03D4374FD2
:100C80001237276100E02361376BFF0601D46561ED
:100C900000E06061376BBF070ED0376BBF07BF0F37
:100CA000012F0BD0376BBF07BF0F022F08D0376B58
:100CB000FF43BF0706D006E0A26104E0A06102E0A6
:100CC000A36100E0A561376BBF03BF0F0FD0376B87
:100CD000BF03BF0F012F0CD0376BBF03BF0F022F15
:100CE00009D0376BBF03BF0F032F06D006E0E261C8
:100CF00004E0E06102E0E36100E0E561376B3F039F
:100D0000BF0F0FD0326B1203920F012A0CD0306B41
:100D10000003800F022809D0306B0003800F0328E6
:100D200006D006E0226204E0206202E0236200E0D6
:100D30002562306B000602D407486062F8BD61622C
:100D4000F8BD00000010024000127A002E000020C2
:100D5000809FD50000093D00006CDC02008000008F
:100D600001090A2251430007000F4018C0B2704722
:100D7000002103E0491CC9B20A38C0B20A28F9D2DE
:100D80000907090E0843704700098021084380B213
:100D9000C2430348C3680B401A43C2607047000057
:100DA0000028004018B5002000900E4BD86840067F
:100DB00015D40020C043D86040210C02D8680840F8
:100DC000009A521C0092009AA24201D00028F5D04D
:100DD000D868400601D5012018BD002018BD0120AB
:100DE00018BD0000002800400248C16880229143DD
:100DF000C16070470028004070B500210C4A12689D
:100E000004231A400A4C403CA368860C0546F54072
:100E1000ED0B034015402B43E26800090240002B14
:100E200003D01004000C00D00121084670BD000062
:100E30004028004038B5012424032046FFF7DCFF9A
:100E400000280BD0002000906946012000F008F82F
:100E50002046FFF799FF6001FFF7AEFB38BD0000A9
:100E6000F8B505460C4600260020244F002D06D07C
:100E7000B968490608D52078FFF772FF05E0B96820
:100E8000490602D4E07000E0E070002D0AD020781E
:100E9000A578000405436078E1780002090408435E
:100EA00005430FE02078FFF763FF05046078FFF744
:100EB0005FFF00020543A078FFF75AFF0543E07883
:100EC00000040543CA20786253207862FFF76AFF66
:100ED00000280ED00A4805403D60FFF785FFB8683E
:100EE000800605D400F00EF8002802D0012600E0AC
:100EF0000126FF2078623046F8BD0000002800403F
:100F00007F7F7F0018B500200090114B9868800605
:100F100001D5012018BDCA20586253205862D868F4
:100F2000A0218843D86020218C02D8680840009A0C
:100F3000521C0092009AA24201D00028F5D0D86835
:100F4000800601D5012000E00020FF21596218BD74
:100F500000280040704700000CB500200190009070
:100F6000134911200860134841684160416841609D
:100F700041687F22D2039143416041680522D20437
:100F800011434160016801221206114301600168AA
:100F90008901FCD5416889088900416041680222C5
:100FA0001143416041680907890F0229FAD10CBD3C
:100FB000002002400010024002480168491C016004
:100FC000704700001000002010B51448016801228D
:100FD000114301604168124A114041600168114AA1
:100FE000114001600168012292049143016041684F
:100FF0003F22120491434160C16A09090901C1629B
:10100000016BFF22543291430163416B490849004F
:10101000416300218160FFF79FFF10BD0010024077
:101020000CB8FF08FFFFF6FE7047000070B5184CC3
:10103000184D2146284600F057F8002821D02146B7
:10104000284600F02FF8144C20886188401C400589
:10105000400D884208D0284600F0D4F821884A1C68
:1010600022800E4A505402E0284600F0CBF8208837
:101070004005400D2080012020712021284600F0ED
:101080000FF80021C943284600F00AF870BD00009F
:1010900005010500004400404610002046080020DD
:1010A00001627047090C01228A40026270470029E0
:1010B00004D00168012211430160704701684908AA
:1010C000490001607047002A03D002680A430260A9
:1010D000704702688A430260704702460020D26966
:1010E0000A4200D00120704730B500240A04130ED4
:1010F00001252A468A40012B0ED0022B0FD083688F
:101100001340090C8D40C0692840002B02D00028F4
:1011100000D00124204630BD03681340F1E7436846
:101120001340EEE710B50B041C0E01238B40022C7C
:1011300002D0032C02D002E0001D00E00830002A9B
:1011400003D001681943016010BD01689943016033
:1011500010BD000030B58BB004460D462068400835
:10116000400020606068032109038843A9680143A7
:10117000616020681E490840EA68696811432A696D
:10118000024311432160A068032109028843696971
:101190000143A16001A8FFF719FD1648844201D15F
:1011A00007980AE01448844201D1089805E01348E2
:1011B000844201D1099800E003982168090404D50C
:1011C00040002968FEF7AEFF02E02968FEF7AAFF9B
:1011D0002A6852088A4200D8401C2168090404D5B4
:1011E0000107490F064A10400843A0810BB030BDEB
:1011F000F3E9FFFF00380140004400400048004090
:10120000F0FF0000808CC005C00D7047002A03D09D
:10121000028B0A4302837047028B8A430283704722
:10122000F8B504460D461C4F002A02D13878A84272
:1012300031D072B6E08961680885FFF744F9002073
:10124000009080261CE0684601783046C84028425D
:1012500003D02168A089886102E02168A0890885FF
:10126000FFF731F9A168208A0885FFF72CF9A168FA
:10127000208A8861FFF727F969460878401C0090AA
:10128000684600780828DED36168E0898861FFF746
:101290001AF962B63D70F8BD2C0000202021020C26
:1012A00001D010211046020A01D010460839020967
:1012B00001D01046091F820801D01046891E42083D
:1012C00001D0881E7047081A704702E008C8121F34
:1012D00008C1002AFAD170477047002001E001C11F
:1012E000121F002AFBD1704710B500F0C9FAFFF7B2
:1012F00005FB00F00BF8044801780122114301704E
:1013000000F094F810BD00002D0000207CB5802076
:101310001F4D00210090A0232A46084600F052FCF1
:10132000162000210090A0231F22084600F04AFC4E
:101330001F2318A203212820009501F00CF91F2477
:101340002B4617A21C210020009401F09FF82B4689
:10135000164A1C213C20009401F098F82B4614A258
:101360002B210020009401F091F80120009010231F
:1013700065224B2101941E2000F070FCE0020090D9
:101380002B460EA25F21002001F080F87CBD0000FA
:10139000FFFF0000B5A5C6ACBBFAC9FDBCB6000096
:1013A000B5B1C7B0B0E6B1BEA3BA0000841C00203E
:1013B000C9FDBCB6B0E6B1BEA3BA0000BEAFB8E688
:1013C000A3BAC9FDBCB6B9FDB3CCD6D0C7EBCEF03D
:1013D000B6CFB5E7A3A1000030B5034600200B4C03
:1013E00010E01A785B1C120250400822050403D555
:1013F0004000604080B201E04004000C521E120622
:10140000120EF3D1491EECD530BD000021100000B2
:10141000054A03E00021491C9142FCD30146401ECD
:1014200080B20029F6D17047A0860100FEB50020E9
:10143000029000F09BFC00F067FC064600F0CAFC3E
:1014400030780C2806D00B281BD00D283ED00A2857
:1014500061D098E0774801780029FAD10121017024
:10146000754D1F242B46B21D2B213C20009401F00A
:101470000DF82B4671A23C210020009401F006F8E3
:1014800081E073497148086028227248FFF74CF9DF
:101490001F200090684B70A23C21002000F0F6FF56
:1014A00000241F25ED02012602231A467B21204637
:1014B0000096019500F0D2FB241DE4B2A02CF3D3DA
:1014C00000206A49401C8842FCD3FEBD60495F4849
:1014D000086028225F48FFF727F91F200090564B2D
:1014E00063A23C21002000F0D1FF00241F25ED0263
:1014F000012602231A467B2120460096019500F022
:10150000ADFB241DE4B2A02CF3D300205749401CAE
:101510008842FCD3FEBD4748407800280AD14548A0
:10152000012141701F200090434B57A23C21002015
:1015300000F0ACFFB08800280FD0FEF7D3FE0022E9
:10154000554BFEF757FE04460D467088FEF7CAFE5F
:1015500022462B46FEF74EFE01E000200146FEF734
:10156000CFFE80B26421FEF7DDFD324841808288E3
:10157000914208D081800E20CBB21F2200904C21D6
:10158000104600F01FFB30780A2829D04348444910
:101590000068884224D92E492C48086028222D480A
:1015A000FFF7C2F81F200090234B3EA23C210020F1
:1015B00000F06CFF00241F25ED02012602231A46CD
:1015C0007B2120460096019500F048FB241DE4B2E3
:1015D000A02CF3D300202549401C8842FCD3FEBD3B
:1015E0000298401C02903549029888421AD900207E
:1015F00002901F20C0020124022301901A467B2181
:101600000094384600F02AFB3F1DFFB29F2F09D3FC
:101610000027094801900223A0227B21009400208A
:1016200000F01CFB2648017800222648FFF7F8FD51
:1016300001E7000000000020FFFF0000D5FDD4DA24
:10164000CFC2D4D8B9CCBCFE2E2E2E007856341280
:10165000801C002000F80308D2D1BEADCAC7D7EE67
:10166000D0C2B0E6B1BEA3A10000000080C3C90192
:10167000C9FDBCB6B3C9B9A6A3A1BCB4BDABD6D88D
:10168000C6F42E2E2E000000D5FDD4DAC9FDBCB65E
:10169000B9CCBCFE2E2E2E000000594010000020B8
:1016A000E0930400C9FDBCB6B9CCBCFEB3ACCAB172
:1016B0002CC6F4B6AFD3A6D3C3000000204E000062
:1016C0002D0000204026000808B5010AC0B20A46D5
:1016D000A13A022A06D8A12804D35E214A43101851
:1016E000A13812E0A92905D1A12803D3F62801D8F1
:1016F00079300AE0B039472906D8A12804D35E2200
:1017000051430818CF3000E000202F21400009028B
:1017100040180222694600F0BDF868460088010AB8
:101720000002081880B208BD10B5034620395E29B2
:1017300009D80C204143054808180C22194600F02E
:10174000A9F8012010BD002010BD0000406D06006A
:1017500010B5034620395E2908D80801044940180D
:101760001022194600F096F8012010BD002010BD8F
:10177000C0B70300F8B506460C4621780F466078DE
:101780000A46A13A1D4B022A09D8A12807D35E2197
:101790004A431018A13818214843C51826E0A92942
:1017A00006D1A12804D3793018214843C5181DE07B
:1017B000B039472909D8A12807D35E225143081818
:1017C000D73018214843C51810E039463046FFF796
:1017D000BFFF002808D0304661781030FFF7B8FF0F
:1017E000002803D00120F8BD0020F8BD18223146A2
:1017F000284600F04FF80120F8BD000080CF03001C
:1018000070B506460C46217860780A46A43A042A48
:1018100003D8A12801D3002528E00A46A13A082AC6
:1018200007D8A12805D35E214A431018A1384501E5
:101830001CE00A46B03A472A08D8A12806D35E2100
:101840004A430E491018401845010FE03046FFF793
:101850007FFF002808D0304661781030FFF778FF0E
:10186000002803D0012070BD002070BD2022314629
:10187000284600F00FF8012070BD0000AD02000006
:1018800010B500F023FD0248FFF71EFF10BD000059
:10189000B2E20000F7B50E4605022D0A032000064D
:1018A000054330460299FEF786FCFF2109200131ED
:1018B000C006FFF713F80024274F0120C007E040BF
:1018C000284205D0012189023846FFF709F804E0D3
:1018D000012189023846FFF701F81F4F02213846DF
:1018E000FEF7FCFF02213846FEF7FAFF641CE4B263
:1018F000202CE2D30024012723E0002502211648F2
:10190000FEF7EEFF02211448FEF7E8FF012112481E
:10191000FEF7DDFF002807D00721305D491B3A465E
:101920008A401043305506E00721305D491B3A4696
:101930008A40904330556D1CEDB2082DDED3641CF7
:10194000E4B202988442D8D3FF2109200131C006B5
:10195000FEF7C6FFFEBD00000004004870B500237E
:1019600013E0CC5C250930352407240F3034392DA1
:1019700001D9ED1DEDB2392C01D9E41DE4B25E00B0
:10198000855535186C705B1C9BB29342E9D30021DE
:101990005200815470BD7CB504460121C804FFF794
:1019A000F9F8A08900900326684646710125057163
:1019B000C57169462068FEF742FF2168A089088545
:1019C000E0890090684646710571C5716946606896
:1019D000FEF735FF6168E0898861208A00906846DB
:1019E00046710571C5716946A068FEF728FFA168B8
:1019F000208A08857CBD00007CB501218804FFF7A2
:101A0000C9F8084C00940320694648710120087108
:101A1000C871054D2846FEF712FF21462846FEF7FD
:101A20005DFF7CBDF8FF00000004004870B505466E
:101A30000F4C80212046FEF753FF10212046FEF771
:101A40004DFF20212046FEF749FF40212046FEF7AA
:101A500045FFA08A2902C0B20843A0824021204647
:101A6000FEF73EFF10212046FEF73AFF70BD000052
:101A70000004004870B50546164C80212046FEF74C
:101A80002FFF10212046FEF729FF20212046FEF7D8
:101A900027FFA08A290AC0B209020843A082402178
:101AA0002046FEF71BFF40212046FEF719FFA08AC3
:101AB0002902C0B20843A08240212046FEF70EFF53
:101AC00040212046FEF70CFF10212046FEF708FFBC
:101AD00070BD00000004004870B505460F4C802121
:101AE0002046FEF7FDFE10212046FEF7F7FE2021DE
:101AF0002046FEF7F5FEA08A2902C0B20843A08264
:101B000040212046FEF7EAFE40212046FEF7E8FE8F
:101B100010212046FEF7E4FE70BD000000040048DE
:101B20001F4920484161204C0723211DCA69120228
:101B3000120A45042A43CA610025856103612822EF
:101B40001A491B48FEF7E8FD18481A490068884200
:101B500018D11948FFF71FFF184805700178202297
:101B600011430170114920310979002913D00178FE
:101B7000022211430170017801220F48FFF750FB48
:101B8000FFF7B2FB00F098FBBFF34F8F0C48E0600B
:101B9000BFF34F8FFEE70178FD2211400170EAE7A5
:101BA0007FBB000000E000E000ED00E0801C0020B2
:101BB00000F8030888888888402600082D00002047
:101BC0000400FA05FFB581B00A9F1E467A1E93B243
:101BD000721E92B200F06FF82C20FFF727FF00254D
:101BE00008E0002403E00398FFF744FF641CB442BC
:101BF000F9DB6D1CBD42F4DB05B0F0BDFFB581B073
:101C00000A9A521E93B2049A521E92B200F053F8EE
:101C10002C20FFF70BFF00251BE000240A98EE089C
:101C200046436807400F012787400DE003980019DD
:101C3000305C384203D00B98FFF71CFF02E00C9891
:101C4000FFF718FF641CE4B204988442EED36D1CC5
:101C5000EDB20A988542E0D305B0F0BDFFB583B080
:101C60000C9E04460D461746FBB2E9B2E0B2009660
:101C70000D9AFFF7A7FF0698E9B2C0B20290009054
:101C8000E0B233460D9AFFF79DFF02980090E019ED
:101C9000801BE9B2C0B233460D9AFFF793FF069856
:101CA000FBB22818801BC1B20096E0B20D9AFFF774
:101CB00089FF07B0F0BDF8B504460D4617461E462D
:101CC0002A20FFF7B3FE200AFFF706FFE0B2FFF776
:101CD00003FFE4192004000EFFF7FEFEE0B2FFF759
:101CE000FBFE2B20FFF7A2FE280AFFF7F5FEE8B265
:101CF000FFF7F2FEAC192004000EFFF7EDFEE0B294
:101D0000FFF7EAFEF8BD000000487047541C0020B1
:101D1000FEB501214E043046FEF73CFF0420009042
:101D200003256846457101240471C4710E4F69464C
:101D30003846FEF784FD04213846FEF7D1FD012127
:101D40003046FEF727FF0094684645710471C47160
:101D50000924E40669462046FEF771FD012120466C
:101D6000FEF7BEFDFEBD00000004004810B500F007
:101D700015FBFFF7CDFF04210A48FEF7B1FD0D2149
:101D800009A000F071FB1420FFF742FB0D2106A013
:101D900000F06AFB2A210848FEF70DFA07490648B9
:101DA000C86010BD0004004841542B4346554E3DC9
:101DB000312C310D0A000000541C00201C000020B2
:101DC00010B504462046FEF701FA81B2204600F025
:101DD0004BFB10BDF0B589B07F4F804BB8681C68D5
:101DE000A04200D9BC607E4A7D251078ED007D4977
:101DF00007281FD004DC00280AD001287AD110E07F
:101E0000774D0D266D880A2845D00C2872D11BE02D
:101E1000B868201AA8426DD9BC6073A0FFF7D0FF44
:101E200068E0B868201A884264D9BC6070A0FFF7E7
:101E3000C7FF5FE0B868201AA8425BD9BC600F21D9
:101E400071A000F011FB55E0002D53D1B868201AA5
:101E500000D54042884202DC787800284AD1507888
:101E6000002847D118226CA102A8FEF78BF95C4923
:101E700005A8042226310330FEF784F96946CE76A0
:101E80000A200877BC60152102A800F0EDFA7878E6
:101E9000401C78702EE09088854226D2B8687D215B
:101EA000201A0901884202D8B888854222D0182217
:101EB0005FA102A8FEF766F9BD806D1C7D806946B2
:101EC0004D71280A087105A8022201A90330FFF705
:101ED00045FD6946CE760A20087740480068B8601C
:101EE000152102A800F0C0FA04E016700C2156A0DB
:101EF00000F0BAFA584D5FE0FE88A1194A05089132
:101F00005649520D895C0D2913D00A2911D08442FB
:101F100003D2011B721C914208DC844252D9012178
:101F2000C902091B0918701C81424BDD761CFE801A
:101F300042E0022E37D3012189024948FEF73BF9DE
:101F400001210898C902884206D244483246211825
:101F50004348FEF717F923E00E46081BC117890D09
:101F60000918890A8902421A3C4821183C48FEF7A0
:101F700009F96888341AE117890D0919890A890253
:101F8000621A01218902891AFA8880184005400DD9
:101F9000FEF7DEF832480A4620183049FEF7F2F81C
:101FA0002F4800F05FF8F8886988401C0818400541
:101FB000400D68800020F8806C88288884429BD17E
:101FC00009B0F0BDF988012080028142F8D30020D9
:101FD00028806880F880F3E71C00002010000020B3
:101FE000541C002088130000415445300D0A0000A5
:101FF00041542B504F433D30303030303030313051
:102000003130310D0A00000041542B504F433D3414
:1020100032303030300D0A0041542B504F433D34A4
:1020200033303030303030303030300D0A00000086
:1020300041542B504F433D34333030303030313009
:102040003030310D0A00000041542B51504F57449D
:102050003D300D0A00000000461000204608002018
:1020600054180020F0B5FFB084B00446022278A1D5
:102070002046FEF7B2F80126764D00282FD0072221
:1020800075A12046FEF7A9F8002832D0072274A1D6
:102090002046FEF7A2F8274601460937781D8290B0
:1020A00000293AD0092270A12046FEF796F80028B0
:1020B0006AD009226FA12046FEF78FF8002865D06C
:1020C00009226FA12046FEF788F800286CD009226B
:1020D0006EA12046FEF781F87FB004B0F0BD2878ED
:1020E000002804D00828F7D109202870F4E72E70C2
:1020F000F2E7022268A1E01DFEF76FF8002809D080
:10210000022266A1E01DFEF768F80028E4D1052050
:102110002870E1E707202870DEE74E4E0C222C36AF
:10212000311D8298FEF759F80028D5D11022311DB3
:102130008298FEF752F800281DD00C20287020212C
:10214000A81DFEF738F82046FEF740F80E38C20604
:10215000D20EA81D8299FEF715F8304610211638C8
:10216000FEF729F804223946B01FFEF70BF80020CD
:1021700068806870B0E70D2028700C2148A000F03E
:1021800073F90B202870A7E76E70A5E70A20287066
:10219000042281A9384600F0DBF880A88088010A73
:1021A00000020143A98097E72046FEF70FF8872138
:1021B0008900884290D3FF270137394641A8FDF7AF
:1021C000FAFF4320C000042281A9201800F0C0F8C3
:1021D00004226946829800F0BBF820467A0041A9A3
:1021E000183000F0B5F869460888040A0006000CAB
:1021F0000443394641A8FFF7EFF880A9898888424F
:1022000087D16888401CA04286D12948294C017892
:10221000002905D10670192149032046FEF766FA08
:102220006888000204193A4641A92046FEF7E8FAF8
:102230003A4601A92046FEF76FFA3A4641A901A89D
:10224000FDF7CBFF002895D16888401C688043E7E4
:102250004F4B0000541C00202B504F433A383200A3
:102260002B504F433A3432002B504F433A343330E3
:10227000300000002B504F433A343330320000001E
:102280002B504F433A343330330000002B504F4330
:102290003A34333031000000303200003031000079
:1022A00041542B51504F57443D300D0A000000005F
:1022B0001C00002000400008024840680249C86035
:1022C000886000470040000800000020FEB50121A2
:1022D0008E043046FEF75EFC02200090032568461F
:1022E000457101240471C471184F69463846FEF7E0
:1022F000A6FA01213046FEF74DFCA0020090684688
:1023000045710471C47169463846FEF798FA012197
:102310004804FEF73FFC20020090684645710471B6
:10232000C47109206946C006FEF789FA01213046CA
:10233000FEF730FC00946846457100210171C471BC
:1023400069463846FEF77BFAFEBD000000040048EF
:10235000F7B506460F4600241CE0305DFDF70CFF84
:10236000C5B230194078FDF707FFC0B2392D02D948
:10237000373DE9B201E0303DE9B2392802D93738BA
:10238000C0B201E03038C0B20901014360083954DD
:10239000A41CA4B202988442DFD3FEBDF0B589B07C
:1023A0001C21684601700024447001258570FEF7E9
:1023B000C7FB01214F043846FEF7ECFB0920012240
:1023C0000221C006FEF773FA092001220321C0068C
:1023D000FEF76DFA0C260796022108A8017084709A
:1023E000C57003214170092007A9C006FEF727FA2E
:1023F00001213846FEF7DCFBE12040020190029407
:102400000394049406940596144D01A92846FEF7FA
:10241000A1FE40212846FEF760FE0028F9D00122E7
:1024200004212846FEF74FFE012208212846FEF728
:10243000EDFE01212846FEF73AFE01220849284612
:10244000FEF770FE074D6C802C800121C902681ACE
:10245000FDF7B1FE2C7109B0F0BD00000044004052
:10246000050105004610002010B5074C064A20342F
:1024700007E0D3691B06FCD50378401C2381491E65
:1024800089B20029F5D110BD00440040FFB58DB0E0
:10249000169E1D46202103A8FDF78DFE0F98FDF71F
:1024A00095FE80B20B9000240E9808300C904DE001
:1024B0000F98015D084620385E2820D803A8FFF752
:1024C00033F906200D99604347189A2F3CD808200D
:1024D00000900E980196C1B20295F8B2062303AAA5
:1024E000FFF78CFB0520029500900C9804AAC1B25E
:1024F0000196F8B206230232FFF780FB24E00F9822
:10250000011903A8FFF736F900281DD006200D9900
:1025100060434718942F15D8082000900E98019614
:10252000C1B20295F8B20C2303AAFFF767FB04209F
:10253000029500900C980196C1B2F8B20C2306AA3D
:10254000FFF75CFB641CA4B2641CA4B20B98844229
:10255000AED311B0F0BDFFB58DB0169E1D46202143
:1025600003A8FDF728FE0F98FDF730FE80B20B9010
:1025700000240E9808300C905CE00F98015D08462E
:1025800020385E2830D803A8FFF7E2F8002003AA1D
:1025900011180B7ADB000B72175CBC467F093B43BA
:1025A0000B726746F9001154401C80B20828EFD323
:1025B0000D98E1000F18982F3AD8082000900E9837
:1025C0000196C1B20295F8B2082303AAFFF716FBE1
:1025D0000820029500900C980196C1B2F8B2082329
:1025E00005AAFFF70BFB23E00F98011903A8FFF7DB
:1025F00007F900281CD00D98E1000F18902F15D86E
:10260000082000900E980196C1B20295F8B21023EE
:1026100003AAFFF7F3FA0820029500900C980196A0
:10262000C1B2F8B2102307AAFFF7E8FA641CA4B2FB
:10263000641CA4B20B9884429FD311B0F0BD00007B
:10264000000800480008004800080048002000403A
:1026500000800000742600080000002040000000F8
:10266000CA120008B42600084000002068200000BC
:10267000DA12000800000000000000000000000066
:10268000000000000000000000000000000000004A
:10269000000000000000000000000000000000003A
:1026A0000000000000000102030401020304060709
:0426B0000809000015
:04000005080000B936
:00000001FF
